{
  "address": "0xc9FCE6D37e29eC819Cc8f60c1B7647F4d49267ab",
  "abi": [
    {
      "anonymous": false,
      "inputs": [
        {
          "indexed": true,
          "internalType": "bytes32",
          "name": "_transactionHash",
          "type": "bytes32"
        },
        {
          "indexed": true,
          "internalType": "address",
          "name": "_originalTokenAddress",
          "type": "address"
        },
        {
          "indexed": true,
          "internalType": "address",
          "name": "_to",
          "type": "address"
        },
        {
          "indexed": false,
          "internalType": "address",
          "name": "_from",
          "type": "address"
        },
        {
          "indexed": false,
          "internalType": "uint256",
          "name": "_amount",
          "type": "uint256"
        },
        {
          "indexed": false,
          "internalType": "bytes32",
          "name": "_blockHash",
          "type": "bytes32"
        },
        {
          "indexed": false,
          "internalType": "uint256",
          "name": "_logIndex",
          "type": "uint256"
        },
        {
          "indexed": false,
          "internalType": "uint256",
          "name": "_originChainId",
          "type": "uint256"
        },
        {
          "indexed": false,
          "internalType": "uint256",
          "name": "_destinationChainId",
          "type": "uint256"
        }
      ],
      "name": "AcceptedCrossTransfer",
      "type": "event"
    },
    {
      "anonymous": false,
      "inputs": [
        {
          "indexed": false,
          "internalType": "address",
          "name": "_newAllowTokens",
          "type": "address"
        }
      ],
      "name": "AllowTokensChanged",
      "type": "event"
    },
    {
      "anonymous": false,
      "inputs": [
        {
          "indexed": true,
          "internalType": "bytes32",
          "name": "_transactionHash",
          "type": "bytes32"
        },
        {
          "indexed": true,
          "internalType": "address",
          "name": "_originalTokenAddress",
          "type": "address"
        },
        {
          "indexed": true,
          "internalType": "address",
          "name": "_to",
          "type": "address"
        },
        {
          "indexed": false,
          "internalType": "address",
          "name": "_sender",
          "type": "address"
        },
        {
          "indexed": false,
          "internalType": "uint256",
          "name": "_amount",
          "type": "uint256"
        },
        {
          "indexed": false,
          "internalType": "bytes32",
          "name": "_blockHash",
          "type": "bytes32"
        },
        {
          "indexed": false,
          "internalType": "uint256",
          "name": "_logIndex",
          "type": "uint256"
        },
        {
          "indexed": false,
          "internalType": "address",
          "name": "_reciever",
          "type": "address"
        },
        {
          "indexed": false,
          "internalType": "address",
          "name": "_relayer",
          "type": "address"
        },
        {
          "indexed": false,
          "internalType": "uint256",
          "name": "_fee",
          "type": "uint256"
        },
        {
          "indexed": false,
          "internalType": "uint256",
          "name": "_destinationChainId",
          "type": "uint256"
        },
        {
          "indexed": false,
          "internalType": "uint256",
          "name": "_originChainId",
          "type": "uint256"
        }
      ],
      "name": "Claimed",
      "type": "event"
    },
    {
      "anonymous": false,
      "inputs": [
        {
          "indexed": true,
          "internalType": "address",
          "name": "_tokenAddress",
          "type": "address"
        },
        {
          "indexed": false,
          "internalType": "string",
          "name": "_to",
          "type": "string"
        },
        {
          "indexed": true,
          "internalType": "uint256",
          "name": "_destinationChainId",
          "type": "uint256"
        },
        {
          "indexed": false,
          "internalType": "address",
          "name": "_from",
          "type": "address"
        },
        {
          "indexed": false,
          "internalType": "uint256",
          "name": "_originChainId",
          "type": "uint256"
        },
        {
          "indexed": false,
          "internalType": "uint256",
          "name": "_amount",
          "type": "uint256"
        },
        {
          "indexed": false,
          "internalType": "bytes",
          "name": "_userData",
          "type": "bytes"
        }
      ],
      "name": "Cross",
      "type": "event"
    },
    {
      "anonymous": false,
      "inputs": [
        {
          "indexed": false,
          "internalType": "address",
          "name": "_newFederation",
          "type": "address"
        }
      ],
      "name": "FederationChanged",
      "type": "event"
    },
    {
      "anonymous": false,
      "inputs": [
        {
          "indexed": false,
          "internalType": "uint256",
          "name": "_amount",
          "type": "uint256"
        }
      ],
      "name": "FeePercentageChanged",
      "type": "event"
    },
    {
      "anonymous": false,
      "inputs": [
        {
          "indexed": false,
          "internalType": "address",
          "name": "token",
          "type": "address"
        },
        {
          "indexed": false,
          "internalType": "string",
          "name": "uid",
          "type": "string"
        }
      ],
      "name": "HathorTokenMapped",
      "type": "event"
    },
    {
      "anonymous": false,
      "inputs": [
        {
          "indexed": true,
          "internalType": "address",
          "name": "_newSideTokenAddress",
          "type": "address"
        },
        {
          "indexed": true,
          "internalType": "address",
          "name": "_originalTokenAddress",
          "type": "address"
        },
        {
          "indexed": false,
          "internalType": "string",
          "name": "_newSymbol",
          "type": "string"
        },
        {
          "indexed": false,
          "internalType": "uint256",
          "name": "_granularity",
          "type": "uint256"
        },
        {
          "indexed": false,
          "internalType": "uint256",
          "name": "_chainId",
          "type": "uint256"
        }
      ],
      "name": "NewSideToken",
      "type": "event"
    },
    {
      "anonymous": false,
      "inputs": [
        {
          "indexed": true,
          "internalType": "address",
          "name": "previousOwner",
          "type": "address"
        },
        {
          "indexed": true,
          "internalType": "address",
          "name": "newOwner",
          "type": "address"
        }
      ],
      "name": "OwnershipTransferred",
      "type": "event"
    },
    {
      "anonymous": false,
      "inputs": [
        {
          "indexed": false,
          "internalType": "address",
          "name": "account",
          "type": "address"
        }
      ],
      "name": "Paused",
      "type": "event"
    },
    {
      "anonymous": false,
      "inputs": [
        {
          "indexed": true,
          "internalType": "address",
          "name": "account",
          "type": "address"
        }
      ],
      "name": "PauserAdded",
      "type": "event"
    },
    {
      "anonymous": false,
      "inputs": [
        {
          "indexed": true,
          "internalType": "address",
          "name": "account",
          "type": "address"
        }
      ],
      "name": "PauserRemoved",
      "type": "event"
    },
    {
      "anonymous": false,
      "inputs": [
        {
          "indexed": false,
          "internalType": "address",
          "name": "_newSideTokenFactory",
          "type": "address"
        }
      ],
      "name": "SideTokenFactoryChanged",
      "type": "event"
    },
    {
      "anonymous": false,
      "inputs": [
        {
          "indexed": false,
          "internalType": "address",
          "name": "account",
          "type": "address"
        }
      ],
      "name": "Unpaused",
      "type": "event"
    },
    {
      "anonymous": false,
      "inputs": [
        {
          "indexed": false,
          "internalType": "bool",
          "name": "_isUpgrading",
          "type": "bool"
        }
      ],
      "name": "Upgrading",
      "type": "event"
    },
    {
      "anonymous": false,
      "inputs": [
        {
          "indexed": false,
          "internalType": "address",
          "name": "_wrappedCurrency",
          "type": "address"
        }
      ],
      "name": "WrappedCurrencyChanged",
      "type": "event"
    },
    {
      "inputs": [],
      "name": "CLAIM_TYPEHASH",
      "outputs": [
        {
          "internalType": "bytes32",
          "name": "",
          "type": "bytes32"
        }
      ],
      "stateMutability": "view",
      "type": "function"
    },
    {
      "inputs": [
        {
          "internalType": "address",
          "name": "",
          "type": "address"
        }
      ],
      "name": "EvmToHathorTokenMap",
      "outputs": [
        {
          "internalType": "string",
          "name": "",
          "type": "string"
        }
      ],
      "stateMutability": "view",
      "type": "function"
    },
    {
      "inputs": [
        {
          "internalType": "string",
          "name": "",
          "type": "string"
        }
      ],
      "name": "HathorToEvmTokenMap",
      "outputs": [
        {
          "internalType": "address",
          "name": "tokenAddress",
          "type": "address"
        },
        {
          "internalType": "uint256",
          "name": "originChainId",
          "type": "uint256"
        }
      ],
      "stateMutability": "view",
      "type": "function"
    },
    {
      "inputs": [
        {
          "internalType": "address",
          "name": "sender",
          "type": "address"
        }
      ],
      "name": "__Pausable_init",
      "outputs": [],
      "stateMutability": "nonpayable",
      "type": "function"
    },
    {
      "inputs": [
        {
          "internalType": "address",
          "name": "sender",
          "type": "address"
        }
      ],
      "name": "__PauserRol_init",
      "outputs": [],
      "stateMutability": "nonpayable",
      "type": "function"
    },
    {
      "inputs": [
        {
          "internalType": "address",
          "name": "_originalTokenAddress",
          "type": "address"
        },
        {
          "internalType": "address payable",
          "name": "_from",
          "type": "address"
        },
        {
          "internalType": "address payable",
          "name": "_to",
          "type": "address"
        },
        {
          "internalType": "uint256",
          "name": "_amount",
          "type": "uint256"
        },
        {
          "internalType": "bytes32",
          "name": "_blockHash",
          "type": "bytes32"
        },
        {
          "internalType": "bytes32",
          "name": "_transactionHash",
          "type": "bytes32"
        },
        {
          "internalType": "uint32",
          "name": "_logIndex",
          "type": "uint32"
        },
        {
          "internalType": "uint256",
          "name": "_originChainId",
          "type": "uint256"
        },
        {
          "internalType": "uint256",
          "name": "_destinationChainId",
          "type": "uint256"
        }
      ],
      "name": "acceptTransfer",
      "outputs": [],
      "stateMutability": "nonpayable",
      "type": "function"
    },
    {
      "inputs": [
        {
          "internalType": "uint256",
          "name": "originalChainId",
          "type": "uint256"
        },
        {
          "internalType": "address",
          "name": "token",
          "type": "address"
        },
        {
          "internalType": "string",
          "name": "uid",
          "type": "string"
        }
      ],
      "name": "addHathorToken",
      "outputs": [],
      "stateMutability": "nonpayable",
      "type": "function"
    },
    {
      "inputs": [
        {
          "internalType": "address",
          "name": "account",
          "type": "address"
        }
      ],
      "name": "addPauser",
      "outputs": [],
      "stateMutability": "nonpayable",
      "type": "function"
    },
    {
      "inputs": [],
      "name": "allowTokens",
      "outputs": [
        {
          "internalType": "contract IAllowTokens",
          "name": "",
          "type": "address"
        }
      ],
      "stateMutability": "view",
      "type": "function"
    },
    {
      "inputs": [
        {
          "internalType": "address",
          "name": "newAllowTokens",
          "type": "address"
        }
      ],
      "name": "changeAllowTokens",
      "outputs": [],
      "stateMutability": "nonpayable",
      "type": "function"
    },
    {
      "inputs": [
        {
          "internalType": "address",
          "name": "newFederation",
          "type": "address"
        }
      ],
      "name": "changeFederation",
      "outputs": [],
      "stateMutability": "nonpayable",
      "type": "function"
    },
    {
      "inputs": [
        {
          "internalType": "address",
          "name": "newSideTokenFactory",
          "type": "address"
        }
      ],
      "name": "changeSideTokenFactory",
      "outputs": [],
      "stateMutability": "nonpayable",
      "type": "function"
    },
    {
      "inputs": [
        {
          "components": [
            {
              "internalType": "address payable",
              "name": "to",
              "type": "address"
            },
            {
              "internalType": "uint256",
              "name": "amount",
              "type": "uint256"
            },
            {
              "internalType": "bytes32",
              "name": "blockHash",
              "type": "bytes32"
            },
            {
              "internalType": "bytes32",
              "name": "transactionHash",
              "type": "bytes32"
            },
            {
              "internalType": "uint32",
              "name": "logIndex",
              "type": "uint32"
            },
            {
              "internalType": "uint256",
              "name": "originChainId",
              "type": "uint256"
            }
          ],
          "internalType": "struct IBridge.ClaimData",
          "name": "_claimData",
          "type": "tuple"
        }
      ],
      "name": "claim",
      "outputs": [
        {
          "internalType": "uint256",
          "name": "receivedAmount",
          "type": "uint256"
        }
      ],
      "stateMutability": "nonpayable",
      "type": "function"
    },
    {
      "inputs": [
        {
          "components": [
            {
              "internalType": "address payable",
              "name": "to",
              "type": "address"
            },
            {
              "internalType": "uint256",
              "name": "amount",
              "type": "uint256"
            },
            {
              "internalType": "bytes32",
              "name": "blockHash",
              "type": "bytes32"
            },
            {
              "internalType": "bytes32",
              "name": "transactionHash",
              "type": "bytes32"
            },
            {
              "internalType": "uint32",
              "name": "logIndex",
              "type": "uint32"
            },
            {
              "internalType": "uint256",
              "name": "originChainId",
              "type": "uint256"
            }
          ],
          "internalType": "struct IBridge.ClaimData",
          "name": "_claimData",
          "type": "tuple"
        }
      ],
      "name": "claimFallback",
      "outputs": [
        {
          "internalType": "uint256",
          "name": "receivedAmount",
          "type": "uint256"
        }
      ],
      "stateMutability": "nonpayable",
      "type": "function"
    },
    {
      "inputs": [
        {
          "components": [
            {
              "internalType": "address payable",
              "name": "to",
              "type": "address"
            },
            {
              "internalType": "uint256",
              "name": "amount",
              "type": "uint256"
            },
            {
              "internalType": "bytes32",
              "name": "blockHash",
              "type": "bytes32"
            },
            {
              "internalType": "bytes32",
              "name": "transactionHash",
              "type": "bytes32"
            },
            {
              "internalType": "uint32",
              "name": "logIndex",
              "type": "uint32"
            },
            {
              "internalType": "uint256",
              "name": "originChainId",
              "type": "uint256"
            }
          ],
          "internalType": "struct IBridge.ClaimData",
          "name": "_claimData",
          "type": "tuple"
        },
        {
          "internalType": "address payable",
          "name": "_relayer",
          "type": "address"
        },
        {
          "internalType": "uint256",
          "name": "_fee",
          "type": "uint256"
        },
        {
          "internalType": "uint256",
          "name": "_deadline",
          "type": "uint256"
        },
        {
          "internalType": "uint8",
          "name": "_v",
          "type": "uint8"
        },
        {
          "internalType": "bytes32",
          "name": "_r",
          "type": "bytes32"
        },
        {
          "internalType": "bytes32",
          "name": "_s",
          "type": "bytes32"
        }
      ],
      "name": "claimGasless",
      "outputs": [
        {
          "internalType": "uint256",
          "name": "receivedAmount",
          "type": "uint256"
        }
      ],
      "stateMutability": "nonpayable",
      "type": "function"
    },
    {
      "inputs": [
        {
          "internalType": "bytes32",
          "name": "",
          "type": "bytes32"
        }
      ],
      "name": "claimed",
      "outputs": [
        {
          "internalType": "bool",
          "name": "",
          "type": "bool"
        }
      ],
      "stateMutability": "view",
      "type": "function"
    },
    {
      "inputs": [
        {
          "components": [
            {
              "internalType": "uint256",
              "name": "_typeId",
              "type": "uint256"
            },
            {
              "internalType": "address",
              "name": "_originalTokenAddress",
              "type": "address"
            },
            {
              "internalType": "uint8",
              "name": "_originalTokenDecimals",
              "type": "uint8"
            },
            {
              "internalType": "string",
              "name": "_originalTokenSymbol",
              "type": "string"
            },
            {
              "internalType": "string",
              "name": "_originalTokenName",
              "type": "string"
            },
            {
              "internalType": "uint256",
              "name": "_originChainId",
              "type": "uint256"
            }
          ],
          "internalType": "struct IBridge.CreateSideTokenStruct[]",
          "name": "createSideTokenStruct",
          "type": "tuple[]"
        }
      ],
      "name": "createMultipleSideTokens",
      "outputs": [],
      "stateMutability": "nonpayable",
      "type": "function"
    },
    {
      "inputs": [
        {
          "internalType": "uint256",
          "name": "_typeId",
          "type": "uint256"
        },
        {
          "internalType": "address",
          "name": "_originalTokenAddress",
          "type": "address"
        },
        {
          "internalType": "uint8",
          "name": "_originalTokenDecimals",
          "type": "uint8"
        },
        {
          "internalType": "string",
          "name": "_tokenSymbol",
          "type": "string"
        },
        {
          "internalType": "string",
          "name": "_tokenName",
          "type": "string"
        },
        {
          "internalType": "uint256",
          "name": "_originChainId",
          "type": "uint256"
        }
      ],
      "name": "createSideToken",
      "outputs": [],
      "stateMutability": "nonpayable",
      "type": "function"
    },
    {
      "inputs": [
        {
          "internalType": "uint256",
          "name": "chainId",
          "type": "uint256"
        },
        {
          "internalType": "string",
          "name": "hathorTo",
          "type": "string"
        }
      ],
      "name": "depositTo",
      "outputs": [],
      "stateMutability": "payable",
      "type": "function"
    },
    {
      "inputs": [
        {
          "internalType": "address",
          "name": "",
          "type": "address"
        }
      ],
      "name": "deprecatedKnownTokens",
      "outputs": [
        {
          "internalType": "bool",
          "name": "",
          "type": "bool"
        }
      ],
      "stateMutability": "view",
      "type": "function"
    },
    {
      "inputs": [
        {
          "internalType": "address",
          "name": "",
          "type": "address"
        }
      ],
      "name": "deprecatedMappedTokens",
      "outputs": [
        {
          "internalType": "address",
          "name": "",
          "type": "address"
        }
      ],
      "stateMutability": "view",
      "type": "function"
    },
    {
      "inputs": [
        {
          "internalType": "address",
          "name": "",
          "type": "address"
        }
      ],
      "name": "deprecatedOriginalTokens",
      "outputs": [
        {
          "internalType": "address",
          "name": "",
          "type": "address"
        }
      ],
      "stateMutability": "view",
      "type": "function"
    },
    {
      "inputs": [],
      "name": "deprecatedSymbolPrefix",
      "outputs": [
        {
          "internalType": "string",
          "name": "",
          "type": "string"
        }
      ],
      "stateMutability": "view",
      "type": "function"
    },
    {
      "inputs": [],
      "name": "domainSeparator",
      "outputs": [
        {
          "internalType": "bytes32",
          "name": "",
          "type": "bytes32"
        }
      ],
      "stateMutability": "view",
      "type": "function"
    },
    {
      "inputs": [],
      "name": "feePercentageDivider",
      "outputs": [
        {
          "internalType": "uint256",
          "name": "",
          "type": "uint256"
        }
      ],
      "stateMutability": "view",
      "type": "function"
    },
    {
      "inputs": [],
      "name": "getFederation",
      "outputs": [
        {
          "internalType": "address",
          "name": "",
          "type": "address"
        }
      ],
      "stateMutability": "view",
      "type": "function"
    },
    {
      "inputs": [],
      "name": "getFeePercentage",
      "outputs": [
        {
          "internalType": "uint256",
          "name": "",
          "type": "uint256"
        }
      ],
      "stateMutability": "view",
      "type": "function"
    },
    {
      "inputs": [
        {
          "internalType": "address",
          "name": "sideToken",
          "type": "address"
        }
      ],
      "name": "getOriginalTokenBySideToken",
      "outputs": [
        {
          "components": [
            {
              "internalType": "address",
              "name": "tokenAddress",
              "type": "address"
            },
            {
              "internalType": "uint256",
              "name": "originChainId",
              "type": "uint256"
            }
          ],
          "internalType": "struct IBridge.OriginalToken",
          "name": "originalToken",
          "type": "tuple"
        }
      ],
      "stateMutability": "view",
      "type": "function"
    },
    {
      "inputs": [
        {
          "internalType": "address",
          "name": "_to",
          "type": "address"
        },
        {
          "internalType": "uint256",
          "name": "_amount",
          "type": "uint256"
        },
        {
          "internalType": "bytes32",
          "name": "_blockHash",
          "type": "bytes32"
        },
        {
          "internalType": "bytes32",
          "name": "_transactionHash",
          "type": "bytes32"
        },
        {
          "internalType": "uint32",
          "name": "_logIndex",
          "type": "uint32"
        },
        {
          "internalType": "uint256",
          "name": "_originChainId",
          "type": "uint256"
        },
        {
          "internalType": "uint256",
          "name": "_destinationChainId",
          "type": "uint256"
        }
      ],
      "name": "getTransactionDataHash",
      "outputs": [
        {
          "internalType": "bytes32",
          "name": "",
          "type": "bytes32"
        }
      ],
      "stateMutability": "pure",
      "type": "function"
    },
    {
      "inputs": [
        {
          "internalType": "bytes32",
          "name": "transactionHash",
          "type": "bytes32"
        }
      ],
      "name": "hasBeenClaimed",
      "outputs": [
        {
          "internalType": "bool",
          "name": "",
          "type": "bool"
        }
      ],
      "stateMutability": "view",
      "type": "function"
    },
    {
      "inputs": [
        {
          "internalType": "bytes32",
          "name": "transactionHash",
          "type": "bytes32"
        }
      ],
      "name": "hasCrossed",
      "outputs": [
        {
          "internalType": "bool",
          "name": "",
          "type": "bool"
        }
      ],
      "stateMutability": "view",
      "type": "function"
    },
    {
      "inputs": [],
      "name": "initDomainSeparator",
      "outputs": [],
      "stateMutability": "nonpayable",
      "type": "function"
    },
    {
      "inputs": [],
      "name": "initialize",
      "outputs": [],
      "stateMutability": "nonpayable",
      "type": "function"
    },
    {
      "inputs": [
        {
          "internalType": "address",
          "name": "sender",
          "type": "address"
        }
      ],
      "name": "initialize",
      "outputs": [],
      "stateMutability": "nonpayable",
      "type": "function"
    },
    {
      "inputs": [
        {
          "internalType": "address",
          "name": "_manager",
          "type": "address"
        },
        {
          "internalType": "address",
          "name": "_federation",
          "type": "address"
        },
        {
          "internalType": "address",
          "name": "_allowTokens",
          "type": "address"
        },
        {
          "internalType": "address",
          "name": "_sideTokenFactory",
          "type": "address"
        }
      ],
      "name": "initialize",
      "outputs": [],
      "stateMutability": "nonpayable",
      "type": "function"
    },
    {
      "inputs": [
        {
          "components": [
            {
              "internalType": "address payable",
              "name": "to",
              "type": "address"
            },
            {
              "internalType": "uint256",
              "name": "amount",
              "type": "uint256"
            },
            {
              "internalType": "bytes32",
              "name": "blockHash",
              "type": "bytes32"
            },
            {
              "internalType": "bytes32",
              "name": "transactionHash",
              "type": "bytes32"
            },
            {
              "internalType": "uint32",
              "name": "logIndex",
              "type": "uint32"
            },
            {
              "internalType": "uint256",
              "name": "originChainId",
              "type": "uint256"
            }
          ],
          "internalType": "struct IBridge.ClaimData",
          "name": "_claimData",
          "type": "tuple"
        },
        {
          "internalType": "bytes32",
          "name": "transactionDataHashMultichain",
          "type": "bytes32"
        }
      ],
      "name": "isClaimed",
      "outputs": [
        {
          "internalType": "bool",
          "name": "",
          "type": "bool"
        }
      ],
      "stateMutability": "view",
      "type": "function"
    },
    {
      "inputs": [
        {
          "internalType": "bytes32",
          "name": "transactionDataHash",
          "type": "bytes32"
        },
        {
          "internalType": "bytes32",
          "name": "transactionDataHashMultichain",
          "type": "bytes32"
        }
      ],
      "name": "isClaimed",
      "outputs": [
        {
          "internalType": "bool",
          "name": "",
          "type": "bool"
        }
      ],
      "stateMutability": "view",
      "type": "function"
    },
    {
      "inputs": [],
      "name": "isOwner",
      "outputs": [
        {
          "internalType": "bool",
          "name": "",
          "type": "bool"
        }
      ],
      "stateMutability": "view",
      "type": "function"
    },
    {
      "inputs": [
        {
          "internalType": "address",
          "name": "account",
          "type": "address"
        }
      ],
      "name": "isPauser",
      "outputs": [
        {
          "internalType": "bool",
          "name": "",
          "type": "bool"
        }
      ],
      "stateMutability": "view",
      "type": "function"
    },
    {
      "inputs": [],
      "name": "isUpgrading",
      "outputs": [
        {
          "internalType": "bool",
          "name": "",
          "type": "bool"
        }
      ],
      "stateMutability": "view",
      "type": "function"
    },
    {
      "inputs": [
        {
          "internalType": "uint256",
          "name": "chainId",
          "type": "uint256"
        },
        {
          "internalType": "address",
          "name": "originalToken",
          "type": "address"
        }
      ],
      "name": "knownToken",
      "outputs": [
        {
          "internalType": "bool",
          "name": "",
          "type": "bool"
        }
      ],
      "stateMutability": "view",
      "type": "function"
    },
    {
      "inputs": [
        {
          "internalType": "uint256",
          "name": "",
          "type": "uint256"
        },
        {
          "internalType": "address",
          "name": "",
          "type": "address"
        }
      ],
      "name": "knownTokenByChain",
      "outputs": [
        {
          "internalType": "bool",
          "name": "",
          "type": "bool"
        }
      ],
      "stateMutability": "view",
      "type": "function"
    },
    {
      "inputs": [
        {
          "internalType": "address",
          "name": "",
          "type": "address"
        }
      ],
      "name": "nonces",
      "outputs": [
        {
          "internalType": "uint256",
          "name": "",
          "type": "uint256"
        }
      ],
      "stateMutability": "view",
      "type": "function"
    },
    {
      "inputs": [
        {
          "internalType": "bytes32",
          "name": "",
          "type": "bytes32"
        }
      ],
      "name": "originalTokenAddresses",
      "outputs": [
        {
          "internalType": "address",
          "name": "",
          "type": "address"
        }
      ],
      "stateMutability": "view",
      "type": "function"
    },
    {
      "inputs": [
        {
          "internalType": "address",
          "name": "",
          "type": "address"
        }
      ],
      "name": "originalTokenBySideToken",
      "outputs": [
        {
          "internalType": "address",
          "name": "tokenAddress",
          "type": "address"
        },
        {
          "internalType": "uint256",
          "name": "originChainId",
          "type": "uint256"
        }
      ],
      "stateMutability": "view",
      "type": "function"
    },
    {
      "inputs": [],
      "name": "owner",
      "outputs": [
        {
          "internalType": "address",
          "name": "",
          "type": "address"
        }
      ],
      "stateMutability": "view",
      "type": "function"
    },
    {
      "inputs": [],
      "name": "pause",
      "outputs": [],
      "stateMutability": "nonpayable",
      "type": "function"
    },
    {
      "inputs": [],
      "name": "paused",
      "outputs": [
        {
          "internalType": "bool",
          "name": "",
          "type": "bool"
        }
      ],
      "stateMutability": "view",
      "type": "function"
    },
    {
      "inputs": [
        {
          "internalType": "uint256",
          "name": "destinationChainId",
          "type": "uint256"
        },
        {
          "internalType": "address",
          "name": "tokenToUse",
          "type": "address"
        },
        {
          "internalType": "string",
          "name": "hathorTo",
          "type": "string"
        },
        {
          "internalType": "uint256",
          "name": "amount",
          "type": "uint256"
        }
      ],
      "name": "receiveTokensTo",
      "outputs": [],
      "stateMutability": "nonpayable",
      "type": "function"
    },
    {
      "inputs": [],
      "name": "renounceOwnership",
      "outputs": [],
      "stateMutability": "nonpayable",
      "type": "function"
    },
    {
      "inputs": [],
      "name": "renouncePauser",
      "outputs": [],
      "stateMutability": "nonpayable",
      "type": "function"
    },
    {
      "inputs": [
        {
          "internalType": "bytes32",
          "name": "",
          "type": "bytes32"
        }
      ],
      "name": "senderAddresses",
      "outputs": [
        {
          "internalType": "address",
          "name": "",
          "type": "address"
        }
      ],
      "stateMutability": "view",
      "type": "function"
    },
    {
      "inputs": [
        {
          "internalType": "uint256",
          "name": "amount",
          "type": "uint256"
        }
      ],
      "name": "setFeePercentage",
      "outputs": [],
      "stateMutability": "nonpayable",
      "type": "function"
    },
    {
      "inputs": [
        {
          "internalType": "address",
          "name": "sideToken",
          "type": "address"
        },
        {
          "components": [
            {
              "internalType": "address",
              "name": "tokenAddress",
              "type": "address"
            },
            {
              "internalType": "uint256",
              "name": "originChainId",
              "type": "uint256"
            }
          ],
          "internalType": "struct IBridge.OriginalToken",
          "name": "originalToken",
          "type": "tuple"
        }
      ],
      "name": "setOriginalTokenBySideTokenByChain",
      "outputs": [],
      "stateMutability": "nonpayable",
      "type": "function"
    },
    {
      "inputs": [
        {
          "internalType": "uint256",
          "name": "chainId",
          "type": "uint256"
        },
        {
          "internalType": "address",
          "name": "originalToken",
          "type": "address"
        },
        {
          "internalType": "address",
          "name": "sideToken",
          "type": "address"
        }
      ],
      "name": "setSideTokenByOriginalAddressByChain",
      "outputs": [],
      "stateMutability": "nonpayable",
      "type": "function"
    },
    {
      "inputs": [
        {
          "internalType": "bool",
          "name": "_isUpgrading",
          "type": "bool"
        }
      ],
      "name": "setUpgrading",
      "outputs": [],
      "stateMutability": "nonpayable",
      "type": "function"
    },
    {
      "inputs": [
        {
          "internalType": "address",
          "name": "_wrappedCurrency",
          "type": "address"
        }
      ],
      "name": "setWrappedCurrency",
      "outputs": [],
      "stateMutability": "nonpayable",
      "type": "function"
    },
    {
      "inputs": [
        {
          "internalType": "uint256",
          "name": "chainId",
          "type": "uint256"
        },
        {
          "internalType": "address",
          "name": "originalToken",
          "type": "address"
        }
      ],
      "name": "sideTokenByOriginalToken",
      "outputs": [
        {
          "internalType": "address",
          "name": "",
          "type": "address"
        }
      ],
      "stateMutability": "view",
      "type": "function"
    },
    {
      "inputs": [
        {
          "internalType": "uint256",
          "name": "",
          "type": "uint256"
        },
        {
          "internalType": "address",
          "name": "",
          "type": "address"
        }
      ],
      "name": "sideTokenByOriginalTokenByChain",
      "outputs": [
        {
          "internalType": "address",
          "name": "",
          "type": "address"
        }
      ],
      "stateMutability": "view",
      "type": "function"
    },
    {
      "inputs": [],
      "name": "sideTokenFactory",
      "outputs": [
        {
          "internalType": "contract ISideTokenFactory",
          "name": "",
          "type": "address"
        }
      ],
      "stateMutability": "view",
      "type": "function"
    },
    {
      "inputs": [
        {
          "internalType": "address",
          "name": "operator",
          "type": "address"
        },
        {
          "internalType": "address",
          "name": "from",
          "type": "address"
        },
        {
          "internalType": "address",
          "name": "to",
          "type": "address"
        },
        {
          "internalType": "uint256",
          "name": "amount",
          "type": "uint256"
        },
        {
          "internalType": "bytes",
          "name": "userData",
          "type": "bytes"
        },
        {
          "internalType": "bytes",
          "name": "",
          "type": "bytes"
        }
      ],
      "name": "tokensReceived",
      "outputs": [],
      "stateMutability": "nonpayable",
      "type": "function"
    },
    {
      "inputs": [
        {
          "internalType": "bytes32",
          "name": "",
          "type": "bytes32"
        }
      ],
      "name": "transactionsDataHashes",
      "outputs": [
        {
          "internalType": "bytes32",
          "name": "",
          "type": "bytes32"
        }
      ],
      "stateMutability": "view",
      "type": "function"
    },
    {
      "inputs": [
        {
          "internalType": "address",
          "name": "newOwner",
          "type": "address"
        }
      ],
      "name": "transferOwnership",
      "outputs": [],
      "stateMutability": "nonpayable",
      "type": "function"
    },
    {
      "inputs": [
        {
          "internalType": "string",
          "name": "uid",
          "type": "string"
        }
      ],
      "name": "uidToAddress",
      "outputs": [
        {
          "internalType": "address",
          "name": "",
          "type": "address"
        }
      ],
      "stateMutability": "pure",
      "type": "function"
    },
    {
      "inputs": [],
      "name": "unpause",
      "outputs": [],
      "stateMutability": "nonpayable",
      "type": "function"
    },
    {
      "inputs": [],
      "name": "version",
      "outputs": [
        {
          "internalType": "string",
          "name": "",
          "type": "string"
        }
      ],
      "stateMutability": "pure",
      "type": "function"
    },
    {
      "inputs": [],
      "name": "wrappedCurrency",
      "outputs": [
        {
          "internalType": "contract IWrapped",
          "name": "",
          "type": "address"
        }
      ],
      "stateMutability": "view",
      "type": "function"
    },
    {
      "stateMutability": "payable",
      "type": "receive"
    }
  ],
  "transactionHash": "0x7b2804c8831c982085a48415730a3310c22ec60b9c88475726ced5fb69d8e872",
  "args": [],
  "numDeployments": 1,
  "solcInputHash": "349e7735893da8b4a76cb0a6d85efb54",
  "bytecode": "0x608060405234801561001057600080fd5b50615368806100206000396000f3fe6080604052600436106103e75760003560e01c806382a0b8cb11610208578063b86f60d211610118578063da677037116100ab578063eb16136f1161007a578063eb16136f14610d97578063f2fde38b14610db7578063f698da2514610dd7578063f8c8765e14610ded578063fa0caa1614610e0d57600080fd5b8063da67703714610d14578063e07801d014610d43578063e6fc774414610d63578063ea21709114610d7957600080fd5b8063cbc73280116100e7578063cbc7328014610c8f578063cc3c0f0614610caf578063d12e825d14610cdf578063d3401a2214610cf457600080fd5b8063b86f60d214610bd5578063b984a40414610bf5578063c4d66de814610c39578063ca07140c14610c5957600080fd5b8063916dc59d1161019b578063ae06c1b71161016a578063ae06c1b714610b34578063aee71e7b14610b54578063b048c4fb14610b74578063b0e1268e14610b94578063b794726214610bb457600080fd5b8063916dc59d14610ab4578063a53d6e6e14610ad4578063a83cf9f214610af4578063a89f298a14610b1457600080fd5b806388710e2e116101d757806388710e2e14610a365780638ca0108214610a565780638da5cb5b14610a6b5780638f32d59b14610a8e57600080fd5b806382a0b8cb146109b157806382dc1ec4146109e15780638456cb5914610a01578063850ad45914610a1657600080fd5b80633cf3058b116103035780635c975abb11610296578063715018a611610265578063715018a6146108e45780637a0ab28f146108f95780637a98187b1461092f5780637ecebe001461096f5780638129fc1c1461099c57600080fd5b80635c975abb14610863578063615bfd6e1461087b5780636b0509b11461089b5780636ef8d66d146108cf57600080fd5b806347f8bbd4116102d257806347f8bbd4146107855780634c739509146107a55780634d5f1fa1146107c557806354fd4d501461082f57600080fd5b80633cf3058b146106fa5780633f4ba83a1461073057806342cdb2c61461074557806346fbf68e1461076557600080fd5b80631b462fc41161037b57806337e761091161034a57806337e76109146106265780633a1cbbcb146106635780633c3f63f4146106995780633c7e0cb7146106da57600080fd5b80631b462fc41461056357806322f89ba41461059b5780632f3cca4e146105e65780633500c1dc1461060657600080fd5b80630ed928af116103b75780630ed928af146104ee5780630ef1335c1461050e57806311efbf611461052e578063122aa5d41461054357600080fd5b806223de291461045b578063026976191461047b57806307c8f7b0146104bb5780630a1d1833146104db57600080fd5b36610456576041546001600160a01b0316336001600160a01b0316146104545760405162461bcd60e51b815260206004820152601b60248201527f4272696467653a206e6f74207772617070656443757272656e6379000000000060448201526064015b60405180910390fd5b005b600080fd5b34801561046757600080fd5b50610454610476366004614526565b610e2d565b34801561048757600080fd5b506104a86104963660046145d6565b60426020526000908152604090205481565b6040519081526020015b60405180910390f35b3480156104c757600080fd5b506104546104d63660046145fd565b6111af565b6104546104e93660046146bc565b61123e565b3480156104fa57600080fd5b506104a861050936600461471a565b611338565b34801561051a57600080fd5b506104a861052936600461471a565b611359565b34801561053a57600080fd5b506037546104a8565b34801561054f57600080fd5b5061045461055e36600461474f565b6113d0565b34801561056f57600080fd5b5061058361057e3660046147da565b61180e565b6040516001600160a01b0390911681526020016104b2565b3480156105a757600080fd5b506105d66105b636600461481b565b604860209081526000928352604080842090915290825290205460ff1681565b60405190151581526020016104b2565b3480156105f257600080fd5b5061045461060136600461484b565b611847565b34801561061257600080fd5b5061045461062136600461484b565b6118c7565b34801561063257600080fd5b506105d66106413660046145d6565b6000908152604260209081526040808320548352603e90915290205460ff1690565b34801561066f57600080fd5b5061058361067e36600461484b565b603b602052600090815260409020546001600160a01b031681565b3480156106a557600080fd5b506105836106b436600461481b565b60466020908152600092835260408084209091529082529020546001600160a01b031681565b3480156106e657600080fd5b506104546106f5366004614868565b611999565b34801561070657600080fd5b506105836107153660046145d6565b6044602052600090815260409020546001600160a01b031681565b34801561073c57600080fd5b50610454611b0e565b34801561075157600080fd5b5061045461076036600461484b565b611bc6565b34801561077157600080fd5b506105d661078036600461484b565b611ca7565b34801561079157600080fd5b506104546107a03660046148dc565b611cb4565b3480156107b157600080fd5b506104546107c0366004614958565b611d25565b3480156107d157600080fd5b506108106107e036600461499a565b8051602081830181018051604a82529282019190930120915280546001909101546001600160a01b039091169082565b604080516001600160a01b0390931683526020830191909152016104b2565b34801561083b57600080fd5b506040805180820190915260028152611d8d60f21b60208201525b6040516104b29190614a26565b34801561086f57600080fd5b5060345460ff166105d6565b34801561088757600080fd5b506105d6610896366004614a39565b611d95565b3480156108a757600080fd5b506104a87faf3ac34fea9cc1b1def33a9bdc482d988feb61b5015ae4a55e2a62bb3600d54c81565b3480156108db57600080fd5b50610454611e02565b3480156108f057600080fd5b50610454611e0d565b34801561090557600080fd5b5061058361091436600461484b565b603c602052600090815260409020546001600160a01b031681565b34801561093b57600080fd5b5061081061094a36600461484b565b604760205260009081526040902080546001909101546001600160a01b039091169082565b34801561097b57600080fd5b506104a861098a36600461484b565b60456020526000908152604090205481565b3480156109a857600080fd5b50610454611e92565b3480156109bd57600080fd5b506105d66109cc36600461484b565b603d6020526000908152604090205460ff1681565b3480156109ed57600080fd5b506104546109fc36600461484b565b611f03565b348015610a0d57600080fd5b50610454611f31565b348015610a2257600080fd5b50610454610a31366004614a64565b611fae565b348015610a4257600080fd5b506104a8610a51366004614ad5565b611fe8565b348015610a6257600080fd5b50610856612163565b348015610a7757600080fd5b5060345461010090046001600160a01b0316610583565b348015610a9a57600080fd5b506105d660345461010090046001600160a01b0316331490565b348015610ac057600080fd5b50610454610acf36600461484b565b6121f1565b348015610ae057600080fd5b50603f54610583906001600160a01b031681565b348015610b0057600080fd5b50610856610b0f36600461484b565b6122ca565b348015610b2057600080fd5b506104a8610b2f366004614b47565b6122e3565b348015610b4057600080fd5b50610454610b4f3660046145d6565b612355565b348015610b6057600080fd5b50610454610b6f366004614bac565b61241a565b348015610b8057600080fd5b506105d6610b8f366004614c04565b61251d565b348015610ba057600080fd5b50604154610583906001600160a01b031681565b348015610bc057600080fd5b506040546105d690600160a01b900460ff1681565b348015610be157600080fd5b50604054610583906001600160a01b031681565b348015610c0157600080fd5b50610c15610c1036600461484b565b61254f565b6040805182516001600160a01b0316815260209283015192810192909252016104b2565b348015610c4557600080fd5b50610454610c5436600461484b565b6125ce565b348015610c6557600080fd5b50610583610c743660046145d6565b6043602052600090815260409020546001600160a01b031681565b348015610c9b57600080fd5b50610454610caa366004614c26565b612690565b348015610cbb57600080fd5b506105d6610cca3660046145d6565b603e6020526000908152604090205460ff1681565b348015610ceb57600080fd5b506104546126d5565b348015610d0057600080fd5b50610583610d0f36600461481b565b61277c565b348015610d2057600080fd5b506105d6610d2f3660046145d6565b600090815260426020526040902054151590565b348015610d4f57600080fd5b506105d6610d5e36600461481b565b6127cf565b348015610d6f57600080fd5b506104a861271081565b348015610d8557600080fd5b506036546001600160a01b0316610583565b348015610da357600080fd5b50610454610db236600461484b565b612824565b348015610dc357600080fd5b50610454610dd236600461484b565b6128a6565b348015610de357600080fd5b506104a860395481565b348015610df957600080fd5b50610454610e08366004614cc9565b6128e4565b348015610e1957600080fd5b50610454610e2836600461484b565b612a39565b6001600160a01b038816301415610e43576111a5565b6001600160a01b0386163014610e9b5760405162461bcd60e51b815260206004820152601b60248201527f4272696467653a204e6f7420746f207468697320616464726573730000000000604482015260640161044b565b60003360405163555ddc6560e11b81526001600160a01b03821660048201527fac7fbab5f54a3ca8194167523c6753bfeb96a445279294b6125b68cce21770546024820152909150600090731820a4b7618bde71dce8cdc73aab6c95905fad249063aabbb8ca9060440160206040518083038186803b158015610f1d57600080fd5b505afa158015610f31573d6000803e3d6000fd5b505050506040513d601f19601f82011682018060405250810190610f559190614d25565b6001600160a01b03161415610fac5760405162461bcd60e51b815260206004820152601860248201527f4272696467653a204e6f742045524337373720746f6b656e0000000000000000604482015260640161044b565b602084101561101c5760405162461bcd60e51b815260206004820152603660248201527f4272696467653a207573657220646174612077697468206174206c65617374206044820152751d1a194819195cdd1a5b985d1a5bdb90da185a5b925960521b606482015260840161044b565b604084148061103357506001600160a01b0388163b155b6110905760405162461bcd60e51b815260206004820152602860248201527f4272696467653a2053706563696679207265636569766572206164647265737360448201526720696e206461746160c01b606482015260840161044b565b6000602085146110e1576110dc86868080601f016020809104026020016040519081016040528093929190818152602001838380828437600092019190915250600c9250612b12915050565b6110e3565b885b9050600061113387878080601f01602080910402602001604051908101604052809392919081815260200183838082843760009201919091525061112e9250602091508a9050614d58565b612b7f565b90506000604051806040016040528060098152602001681d5b9919599a5b995960ba1b81525090506111a0848c838c8c8c8080601f0160208091040260200160405190810160405280939291908181526020018383808284376000920191909152508a9250612be5915050565b505050505b5050505050505050565b6111c860345461010090046001600160a01b0316331490565b6111e45760405162461bcd60e51b815260040161044b90614d6f565b6040805460ff60a01b1916600160a01b831515810291909117808355915160ff9190920416151581527f983e436223c000a441c2443b394ca5fb4669a513fe86dc1dd44494047b514ad9906020015b60405180910390a150565b60415433906001600160a01b03166112985760405162461bcd60e51b815260206004820152601d60248201527f4272696467653a207772617070656443757272656e637920656d707479000000604482015260640161044b565b604160009054906101000a90046001600160a01b03166001600160a01b031663d0e30db0346040518263ffffffff1660e01b81526004016000604051808303818588803b1580156112e857600080fd5b505af11580156112fc573d6000803e3d6000fd5b5050505050611333604160009054906101000a90046001600160a01b03168284346040518060200160405280600081525088612be5565b505050565b60006113538261134b602082018261484b565b600080612f95565b92915050565b60608101356000908152604460205260408120546001600160a01b0316336001600160a01b0316146113c65760405162461bcd60e51b8152602060048201526016602482015275213934b233b29d1034b73b30b634b21039b2b73232b960511b604482015260640161044b565b611353823361134b565b60345460ff16156113f35760405162461bcd60e51b815260040161044b90614da4565b6001603560008282546114069190614dce565b90915550506035546036546001600160a01b0316336001600160a01b03161461146a5760405162461bcd60e51b8152602060048201526016602482015275213934b233b29d102737ba102332b232b930ba34b7b760511b604482015260640161044b565b61147383613180565b61147c826131c7565b611486838b6127cf565b806114a457506000611498848c61277c565b6001600160a01b031614155b6114e85760405162461bcd60e51b8152602060048201526015602482015274213934b233b29d102ab735b737bbb7103a37b5b2b760591b604482015260640161044b565b6001600160a01b0388166115305760405162461bcd60e51b815260206004820152600f60248201526e4272696467653a204e756c6c20546f60881b604482015260640161044b565b600087116115735760405162461bcd60e51b815260206004820152601060248201526f04272696467653a20416d6f756e7420360841b604482015260640161044b565b856115b95760405162461bcd60e51b8152602060048201526016602482015275084e4d2c8ceca74409cead8d84084d8dec6d690c2e6d60531b604482015260640161044b565b846115fc5760405162461bcd60e51b8152602060048201526013602482015272084e4d2c8ceca74409cead8d840a8f090c2e6d606b1b604482015260640161044b565b600085815260426020526040902054156116585760405162461bcd60e51b815260206004820152601860248201527f4272696467653a20416c72656164792061636365707465640000000000000000604482015260640161044b565b60006116678989898989613216565b9050600061167a8a8a8a8a8a8a8a6122e3565b9050611686828261251d565b156116cd5760405162461bcd60e51b8152602060048201526017602482015276109c9a5919d94e88105b1c9958591e4818db185a5b5959604a1b604482015260640161044b565b8060426000898152602001908152602001600020819055508b6043600089815260200190815260200160002060006101000a8154816001600160a01b0302191690836001600160a01b031602179055508a6044600089815260200190815260200160002060006101000a8154816001600160a01b0302191690836001600160a01b03160217905550896001600160a01b03168c6001600160a01b0316887fddae5e892ad96ac0e35e9018a1a3e32ecd7f3dfe55ea34d9ab1e8faecd6ccb5a8e8d8d8c8c8c6040516117d7969594939291906001600160a01b039690961686526020860194909452604085019290925263ffffffff166060840152608083015260a082015260c00190565b60405180910390a4505060355481146118025760405162461bcd60e51b815260040161044b90614de6565b50505050505050505050565b6000808383604051602001611824929190614e2b565b60408051808303601f19018152919052805160209091012060601c949350505050565b600054610100900460ff1680611860575060005460ff16155b61187c5760405162461bcd60e51b815260040161044b90614e3b565b600054610100900460ff1615801561189e576000805461ffff19166101011790555b6118a782612824565b6034805460ff1916905580156118c3576000805461ff00191690555b5050565b6118e060345461010090046001600160a01b0316331490565b6118fc5760405162461bcd60e51b815260040161044b90614d6f565b6001600160a01b03811661194b5760405162461bcd60e51b81526020600482015260166024820152754272696467653a20777261707020697320656d70747960501b604482015260640161044b565b604180546001600160a01b0319166001600160a01b0383169081179091556040519081527f0966c958966f6fac9ff807af074f8117eb2e9ce2b76390db7a158e9bdeb2485c90602001611233565b6119b260345461010090046001600160a01b0316331490565b6119ce5760405162461bcd60e51b815260040161044b90614d6f565b60005b8181101561133357611afc8383838181106119ee576119ee614e83565b9050602002810190611a009190614e99565b35848484818110611a1357611a13614e83565b9050602002810190611a259190614e99565b611a3690604081019060200161484b565b858585818110611a4857611a48614e83565b9050602002810190611a5a9190614e99565b611a6b906060810190604001614eb9565b868686818110611a7d57611a7d614e83565b9050602002810190611a8f9190614e99565b611a9d906060810190614ed4565b888888818110611aaf57611aaf614e83565b9050602002810190611ac19190614e99565b611acf906080810190614ed4565b8a8a8a818110611ae157611ae1614e83565b9050602002810190611af39190614e99565b60a00135613281565b80611b0681614f1a565b9150506119d1565b611b1733611ca7565b611b335760405162461bcd60e51b815260040161044b90614f35565b60345460ff16611b7c5760405162461bcd60e51b815260206004820152601460248201527314185d5cd8589b194e881b9bdd081c185d5cd95960621b604482015260640161044b565b6034805460ff191690557f5db9ee0a495bf2e6ff9c91a7834c1ba4fdd244a5e8aa4e537bd38aeae4b073aa335b6040516001600160a01b03909116815260200160405180910390a1565b611bdf60345461010090046001600160a01b0316331490565b611bfb5760405162461bcd60e51b815260040161044b90614d6f565b6001600160a01b038116611c5b5760405162461bcd60e51b815260206004820152602160248201527f4272696467653a2053696465546f6b656e466163746f727920697320656d70746044820152607960f81b606482015260840161044b565b604080546001600160a01b0319166001600160a01b038316908117825590519081527f619936bc6e3618d0b8dc69bcc70134fe9d88f9967f3a8b8304e318369252162590602001611233565b60006113536033836134c1565b611ccd60345461010090046001600160a01b0316331490565b611ce95760405162461bcd60e51b815260040161044b90614d6f565b6001600160a01b039182166000908152604760209081526040909120825181546001600160a01b03191694169390931783550151600190910155565b611d3e60345461010090046001600160a01b0316331490565b611d5a5760405162461bcd60e51b815260040161044b90614d6f565b60009283526046602090815260408085206001600160a01b0394851686529091529092208054919092166001600160a01b0319909116179055565b600080611dcc611da8602086018661484b565b602086013560408701356060880135611dc760a08a0160808b01614f7d565b613216565b6000818152603e602052604090205490915060ff1680611dfa57506000838152603e602052604090205460ff165b949350505050565b611e0b33613544565b565b611e2660345461010090046001600160a01b0316331490565b611e425760405162461bcd60e51b815260040161044b90614d6f565b60345460405160009161010090046001600160a01b0316907f8be0079c531659141344cd1fd0a4f28419497f9722a3daafe3b4186f6b6457e0908390a360348054610100600160a81b0319169055565b600054610100900460ff1680611eab575060005460ff16155b611ec75760405162461bcd60e51b815260040161044b90614e3b565b600054610100900460ff16158015611ee9576000805461ffff19166101011790555b60016035558015611f00576000805461ff00191690555b50565b611f0c33611ca7565b611f285760405162461bcd60e51b815260040161044b90614f35565b611f0081613586565b611f3a33611ca7565b611f565760405162461bcd60e51b815260040161044b90614f35565b60345460ff1615611f795760405162461bcd60e51b815260040161044b90614da4565b6034805460ff191660011790557f62e78cea01bee320cd4e420270b5ea74000d11b0c9f74754ebdbfc544b05a258611ba93390565b33611fc46001600160a01b0385168230856135c8565b611fe184828585604051806020016040528060008152508a612be5565b5050505050565b60004285101561202c5760405162461bcd60e51b815260206004820152600f60248201526e109c9a5919d94e8811561412549151608a1b604482015260640161044b565b6000612048612040368b90038b018b614f98565b898989613639565b6040805160008082526020820180845284905260ff89169282019290925260608101879052608081018690529192509060019060a0016020604051602081039080840390855afa1580156120a0573d6000803e3d6000fd5b5050604051601f1901519150600090506120bd60208c018c61484b565b6001600160a01b0316141580156120f157506120dc60208b018b61484b565b6001600160a01b0316816001600160a01b0316145b61213d5760405162461bcd60e51b815260206004820152601960248201527f4272696467653a20494e56414c49445f5349474e415455524500000000000000604482015260640161044b565b6121558a61214e602082018261484b565b8b8b612f95565b9a9950505050505050505050565b6038805461217090615021565b80601f016020809104026020016040519081016040528092919081815260200182805461219c90615021565b80156121e95780601f106121be576101008083540402835291602001916121e9565b820191906000526020600020905b8154815290600101906020018083116121cc57829003601f168201915b505050505081565b61220a60345461010090046001600160a01b0316331490565b6122265760405162461bcd60e51b815260040161044b90614d6f565b6001600160a01b03811661227c5760405162461bcd60e51b815260206004820152601c60248201527f4272696467653a20416c6c6f77546f6b656e7320697320656d70747900000000604482015260640161044b565b603f80546001600160a01b0319166001600160a01b0383169081179091556040519081527f5f2c1fe803fd576d8af05ea156011cc9cc8c025bda24c1e85772fc05a0b3f1e390602001611233565b6049602052600090815260409020805461217090615021565b6040805160208082019790975280820195909552606097881b6bffffffffffffffffffffffff191697850197909752607484019590955260e09190911b6001600160e01b0319166094830152609882015260b8808201939093528351808203909301835260d801909252805191012090565b61236e60345461010090046001600160a01b0316331490565b61238a5760405162461bcd60e51b815260040161044b90614d6f565b612397600a61271061506c565b81106123e55760405162461bcd60e51b815260206004820152601760248201527f4272696467653a20626967676572207468616e20313025000000000000000000604482015260640161044b565b60378190556040518181527f97e97c577f03bda90e2c9739011ec065ed5fbfb36ae217d20bb0d9be95e160cd90602001611233565b61243360345461010090046001600160a01b0316331490565b61244f5760405162461bcd60e51b815260040161044b90614d6f565b6001600160a01b0382166000908152604960209081526040909120825161247892840190614430565b506040518060400160405280836001600160a01b0316815260200184815250604a826040516124a79190615080565b90815260405160209181900382018120835181546001600160a01b0319166001600160a01b0390911617815592909101516001909201919091557fb7924ee2fddea404b34edd2016ffac13a55fccace32bd60b3ce963bff51e007a906125109084908490615092565b60405180910390a1505050565b6000828152603e602052604081205460ff168061254857506000828152603e602052604090205460ff165b9392505050565b604080518082018252600080825260209182018190526001600160a01b03848116825260478352908390208351808501909452805490911680845260019091015491830191909152156125a157919050565b60016020808301919091526001600160a01b039283166000908152603c9091526040902054909116815290565b600054610100900460ff16806125e7575060005460ff16155b6126035760405162461bcd60e51b815260040161044b90614e3b565b600054610100900460ff16158015612625576000805461ffff19166101011790555b60348054610100600160a81b0319166101006001600160a01b0385811682029290921792839055604051920416906000907f8be0079c531659141344cd1fd0a4f28419497f9722a3daafe3b4186f6b6457e0908290a380156118c3576000805461ff00191690555050565b6126a960345461010090046001600160a01b0316331490565b6126c55760405162461bcd60e51b815260040161044b90614d6f565b6111a58888888888888888613281565b604080518082018252601081526f52534b20546f6b656e2042726964676560801b60208083019182528351808501855260018152603160f81b908201529151902082517f8b73c3c69bb8fe3d512ecc4cf759cc79239f7b179b0ffacaa9a75d522b39400f8152918201527fc89efdaa54c0f20c7adf612882df0950f5a951637e0307cdcb4c672f298b8bc69181019190915246606082015230608082015260a09020603955565b60008281526046602090815260408083206001600160a01b03808616855292528220541680156127ad579050611353565b50506001600160a01b039081166000908152603b602052604090205416919050565b60008281526048602090815260408083206001600160a01b038516845290915281205460ff168015612802579050611353565b50506001600160a01b03166000908152603d602052604090205460ff16919050565b600054610100900460ff168061283d575060005460ff16155b6128595760405162461bcd60e51b815260040161044b90614e3b565b600054610100900460ff1615801561287b576000805461ffff19166101011790555b61288482611ca7565b6128915761289182613586565b80156118c3576000805461ff00191690555050565b6128bf60345461010090046001600160a01b0316331490565b6128db5760405162461bcd60e51b815260040161044b90614d6f565b611f008161373d565b600054610100900460ff16806128fd575060005460ff16155b6129195760405162461bcd60e51b815260040161044b90614e3b565b600054610100900460ff1615801561293b576000805461ffff19166101011790555b612944856125ce565b61294d85611847565b603f80546001600160a01b038581166001600160a01b031992831617909255604080548584169083161781556036805493881693909216929092179055516329965a1d60e01b815230600482018190527fb281fc8c12954d22544db45de3159a39272895b169a852b314f9cc762e44c53b60248301526044820152731820a4b7618bde71dce8cdc73aab6c95905fad24906329965a1d90606401600060405180830381600087803b158015612a0157600080fd5b505af1158015612a15573d6000803e3d6000fd5b50505050612a216126d5565b8015611fe1576000805461ff00191690555050505050565b612a5260345461010090046001600160a01b0316331490565b612a6e5760405162461bcd60e51b815260040161044b90614d6f565b6001600160a01b038116612ac45760405162461bcd60e51b815260206004820152601b60248201527f4272696467653a2046656465726174696f6e20697320656d7074790000000000604482015260640161044b565b603680546001600160a01b0319166001600160a01b0383169081179091556040519081527f4a41a4d11aaf0c0c9e4311ac1d68b2b0134556da594779a2a35b0ddf7cd1eafb90602001611233565b6000612b1f826014614dce565b83511015612b6f5760405162461bcd60e51b815260206004820152601f60248201527f4c69625574696c733a20746f416464726573735f6f75744f66426f756e647300604482015260640161044b565b500160200151600160601b900490565b6000612b8c826020614dce565b83511015612bdc5760405162461bcd60e51b815260206004820152601f60248201527f4c69625574696c733a20746f55696e743235365f6f75744f66426f756e647300604482015260640161044b565b50016020015190565b604054600160a01b900460ff1615612c335760405162461bcd60e51b81526020600482015260116024820152704272696467653a20557067726164696e6760781b604482015260640161044b565b60345460ff1615612c565760405162461bcd60e51b815260040161044b90614da4565b600160356000828254612c699190614dce565b909155505060355446821415612cdd5760405162461bcd60e51b815260206004820152603360248201527f4272696467653a2064657374696e6174696f6e20636861696e20696420657175604482015272185b0818dd5c9c995b9d0818da185a5b881a59606a1b606482015260840161044b565b612ce682613180565b60008281526048602090815260408083206001600160a01b038b1684529091529020805460ff191660011790556000612d36612710612d306037548861380590919063ffffffff16565b90613884565b90506000612d4486836138c6565b90506000612d518a613908565b905086601260ff831614612d8257612d7f612d6d8360126150b6565b612d7890600a6151bd565b8990613805565b90505b603f54604051638c34bc5560e01b81526001600160a01b038d811660048301526024820184905290911690638c34bc5590604401600060405180830381600087803b158015612dd057600080fd5b505af1158015612de4573d6000803e3d6000fd5b505050506000612df38c61254f565b80519091506001600160a01b031615612eef576000612e118d6139ec565b90506000612e1f8683613ac4565b9050612e2b8782613b06565b9650612e3786826138c6565b60405163fe9d930360e01b81529096506001600160a01b038f169063fe9d930390612e689089908e906004016151cc565b600060405180830381600087803b158015612e8257600080fd5b505af1158015612e96573d6000803e3d6000fd5b5050505050508681600001516001600160a01b03167ff79d8745c9a7b4a879eece08f2ec5bdd6f85ec822d09df9e03b171b12192d5938c8e46898e604051612ee29594939291906151e5565b60405180910390a3612f3a565b868c6001600160a01b03167ff79d8745c9a7b4a879eece08f2ec5bdd6f85ec822d09df9e03b171b12192d5938c8e46898e604051612f319594939291906151e5565b60405180910390a35b8415612f6657603454612f669061010090046001600160a01b03166001600160a01b038e169087613b65565b50505050506035548114612f8c5760405162461bcd60e51b815260040161044b90614de6565b50505050505050565b6000600160356000828254612faa9190614dce565b909155505060355460608601356000908152604360205260409020546001600160a01b0316806130155760405162461bcd60e51b8152602060048201526016602482015275109c9a5919d94e88151e081b9bdd0818dc9bdcdcd95960521b604482015260640161044b565b600061305161302760208a018a61484b565b60208a013560408b013560608c013561304660a08e0160808f01614f7d565b8d60a00135466122e3565b606089013560009081526042602052604090205490915081146130c05760405162461bcd60e51b815260206004820152602160248201527f4272696467653a2057726f6e67207472616e73616374696f6e446174614861736044820152600d60fb1b606482015260840161044b565b6130ca8882611d95565b156131115760405162461bcd60e51b8152602060048201526017602482015276109c9a5919d94e88105b1c9958591e4818db185a5b5959604a1b604482015260640161044b565b6000818152603e60209081526040909120805460ff191660011790556131459060a08a01359084908a908c01358a8a613b95565b93506131548883898989613be6565b505060355481146131775760405162461bcd60e51b815260040161044b90614de6565b50949350505050565b60008111611f005760405162461bcd60e51b815260206004820152601460248201527304272696467653a20436861696e496420697320360641b604482015260640161044b565b468114611f005760405162461bcd60e51b815260206004820152601960248201527f4272696467653a204e6f7420626c6f636b2e636861696e696400000000000000604482015260640161044b565b6040805160208101859052908101839052606086811b6bffffffffffffffffffffffff1916908201526074810185905260e082901b6001600160e01b031916609482015260009060980160405160208183030381529060405280519060200120905095945050505050565b6001600160a01b0387166132cc5760405162461bcd60e51b8152602060048201526012602482015271213934b233b29d10273ab636103a37b5b2b760711b604482015260640161044b565b6132d581613180565b60006132e1828961277c565b90506001600160a01b038116156133335760405162461bcd60e51b81526020600482015260166024820152754272696467653a20416c72656164792065786973747360501b604482015260640161044b565b600061333e88613cc1565b6040805490516326d9e96360e01b81529192506001600160a01b0316906326d9e9639061337790889088908c908c90889060040161525c565b602060405180830381600087803b15801561339157600080fd5b505af11580156133a5573d6000803e3d6000fd5b505050506040513d601f19601f820116820180604052508101906133c99190614d25565b91506133d6838a84611d25565b60408051808201909152602081018490526001600160a01b038a1681526133fd8382611cb4565b603f546040516378bf2b5360e01b81526001600160a01b038581166004830152602482018e9052909116906378bf2b5390604401600060405180830381600087803b15801561344b57600080fd5b505af115801561345f573d6000803e3d6000fd5b50505050896001600160a01b0316836001600160a01b03167f88dcf8b72e53287db29df3fee9a0f2cb07d1f986cee153aa7d7554405d5db0178a8a86896040516134ac9493929190615296565b60405180910390a35050505050505050505050565b60006001600160a01b0382166135245760405162461bcd60e51b815260206004820152602260248201527f526f6c65733a206163636f756e7420697320746865207a65726f206164647265604482015261737360f01b606482015260840161044b565b506001600160a01b03166000908152602091909152604090205460ff1690565b61354f603382613d2d565b6040516001600160a01b038216907fcd265ebaf09df2871cc7bd4133404a235ba12eff2041bb89d9c714a2621c7c7e90600090a250565b613591603382613da5565b6040516001600160a01b038216907f6719d08c1888103bea251a4ed56406bd0c3e69723c8a1686e017e7bbe159b6f890600090a250565b6040516001600160a01b03808516602483015283166044820152606481018290526136339085906323b872dd60e01b906084015b60408051601f198184030181529190526020810180516001600160e01b03166001600160e01b031990931692909217909152613e21565b50505050565b6039548451602080870151606088015160a08901516001600160a01b0385166000908152604590945260408420805494966137349690957faf3ac34fea9cc1b1def33a9bdc482d988feb61b5015ae4a55e2a62bb3600d54c959194919391928c918c918b6136a683614f1a565b909155506040805160208101999099526001600160a01b03978816908901526060880195909552608087019390935260a086019190915290921660c084015260e08301919091526101008201526101208101859052610140016040516020818303038152906040528051906020012060405161190160f01b8152600281019290925260228201526042902090565b95945050505050565b6001600160a01b03811661379e5760405162461bcd60e51b815260206004820152602260248201527f4f776e61626c653a206e6577206f776e6572206973207a65726f206164647265604482015261737360f01b606482015260840161044b565b6034546040516001600160a01b0380841692610100900416907f8be0079c531659141344cd1fd0a4f28419497f9722a3daafe3b4186f6b6457e090600090a3603480546001600160a01b0390921661010002610100600160a81b0319909216919091179055565b60008261381457506000611353565b600061382083856152bd565b90508261382d858361506c565b146125485760405162461bcd60e51b815260206004820152602160248201527f536166654d6174683a206d756c7469706c69636174696f6e206f766572666c6f6044820152607760f81b606482015260840161044b565b600061254883836040518060400160405280601a81526020017f536166654d6174683a206469766973696f6e206279207a65726f000000000000815250613fa1565b600061254883836040518060400160405280601e81526020017f536166654d6174683a207375627472616374696f6e206f766572666c6f770000815250613fcf565b60408051600481526024810182526020810180516001600160e01b031663313ce56760e01b1790529051600091829182916001600160a01b0386169161394e9190615080565b600060405180830381855afa9150503d8060008114613989576040519150601f19603f3d011682016040523d82523d6000602084013e61398e565b606091505b5091509150816139d85760405162461bcd60e51b81526020600482015260156024820152744c69625574696c733a204e6f20646563696d616c7360581b604482015260640161044b565b80806020019051810190611dfa91906152dc565b60408051600481526024810182526020810180516001600160e01b031663556f0dc760e01b1790529051600091829182916001600160a01b03861691613a329190615080565b600060405180830381855afa9150503d8060008114613a6d576040519150601f19603f3d011682016040523d82523d6000602084013e613a72565b606091505b5091509150816139d85760405162461bcd60e51b815260206004820152601860248201527f4c69625574696c733a204e6f206772616e756c61726974790000000000000000604482015260640161044b565b600061254883836040518060400160405280601881526020017f536166654d6174683a206d6f64756c6f206279207a65726f0000000000000000815250614000565b600080613b138385614dce565b9050838110156125485760405162461bcd60e51b815260206004820152601b60248201527f536166654d6174683a206164646974696f6e206f766572666c6f770000000000604482015260640161044b565b6040516001600160a01b03831660248201526044810182905261133390849063a9059cbb60e01b906064016135fc565b6000613ba087613180565b613baa87876127cf565b15613bc357613bbc868686868661402c565b9050613bdc565b613bd9613bd0888861277c565b868686866141dc565b90505b9695505050505050565b613bf3602086018661484b565b6060860135600081815260446020908152604091829020546001600160a01b039485169489811694937fa7a84dcc6757cdf9b9122d3bbc42d58358c28dc4b09cc24349599a63c56c62fd9392909116918b0135908b0135613c5a60a08d0160808e01614f7d565b604080516001600160a01b039586168152602081019490945283019190915263ffffffff166060820152818916608082015290871660a08281019190915260c082018790528a013560e0820152466101008201526101200160405180910390a45050505050565b600060128260ff161115613d175760405162461bcd60e51b815260206004820152601c60248201527f4c69625574696c733a20446563696d616c73206e6f74203c3d20313800000000604482015260640161044b565b613d228260126150b6565b61135390600a6151bd565b613d3782826134c1565b613d835760405162461bcd60e51b815260206004820181905260248201527f526f6c65733a206163636f756e7420646f65736e2774206861766520726f6c65604482015260640161044b565b6001600160a01b0316600090815260209190915260409020805460ff19169055565b613daf82826134c1565b15613dfc5760405162461bcd60e51b815260206004820152601f60248201527f526f6c65733a206163636f756e7420616c72656164792068617320726f6c6500604482015260640161044b565b6001600160a01b0316600090815260209190915260409020805460ff19166001179055565b6001600160a01b0382163b613e785760405162461bcd60e51b815260206004820152601f60248201527f5361666545524332303a2063616c6c20746f206e6f6e2d636f6e747261637400604482015260640161044b565b600080836001600160a01b031683604051613e939190615080565b6000604051808303816000865af19150503d8060008114613ed0576040519150601f19603f3d011682016040523d82523d6000602084013e613ed5565b606091505b509150915081613f275760405162461bcd60e51b815260206004820181905260248201527f5361666545524332303a206c6f772d6c6576656c2063616c6c206661696c6564604482015260640161044b565b8051156136335780806020019051810190613f4291906152f5565b6136335760405162461bcd60e51b815260206004820152602a60248201527f5361666545524332303a204552433230206f7065726174696f6e20646964206e6044820152691bdd081cdd58d8d9595960b21b606482015260840161044b565b60008183613fc25760405162461bcd60e51b815260040161044b9190614a26565b506000613734848661506c565b60008184841115613ff35760405162461bcd60e51b815260040161044b9190614a26565b5060006137348486614d58565b600081836140215760405162461bcd60e51b815260040161044b9190614a26565b50611dfa8385615312565b60008061403887613908565b60ff169050600061405f61404d836012614d58565b61405890600a615326565b8790613884565b9050808411156140a85760405162461bcd60e51b8152602060048201526014602482015273084e4d2c8ceca7440cccaca40e8dede40d0d2ced60631b604482015260640161044b565b6140b281856138c6565b6041549093506001600160a01b03898116911614156141a357604154604051632e1a7d4d60e01b8152600481018390526001600160a01b0390911690632e1a7d4d90602401600060405180830381600087803b15801561411157600080fd5b505af1158015614125573d6000803e3d6000fd5b50506040516001600160a01b038a16925085156108fc02915085906000818181858888f1935050505015801561415f573d6000803e3d6000fd5b50831561419e576040516001600160a01b0386169085156108fc029086906000818181858888f1935050505015801561419c573d6000803e3d6000fd5b505b6141d1565b6141b76001600160a01b0389168885613b65565b83156141d1576141d16001600160a01b0389168686613b65565b505095945050505050565b60006001600160a01b0386166142345760405162461bcd60e51b815260206004820152601a60248201527f4272696467653a207369646520746f6b656e206973206e756c6c000000000000604482015260640161044b565b6000866001600160a01b031663556f0dc76040518163ffffffff1660e01b815260040160206040518083038186803b15801561426f57600080fd5b505afa158015614283573d6000803e3d6000fd5b505050506040513d601f19601f820116820180604052508101906142a791906152dc565b905060006142b58683613805565b9050808411156142fe5760405162461bcd60e51b8152602060048201526014602482015273084e4d2c8ceca7440cccaca40e8dede40d0d2ced60631b604482015260640161044b565b61430881856138c6565b604051630dcdc7dd60e41b81526001600160a01b038981166004830152602482018390526080604483015260006084830181905260a0606484015260a48301529194509089169063dcdc7dd09060c401600060405180830381600087803b15801561437257600080fd5b505af1158015614386573d6000803e3d6000fd5b5050505060008411156141d157604051630dcdc7dd60e41b81526001600160a01b03868116600483015260248201869052608060448301526000608483015260a06064830152600b60a48301526a72656c617965722066656560a81b60c483015289169063dcdc7dd09060e401600060405180830381600087803b15801561440d57600080fd5b505af1158015614421573d6000803e3d6000fd5b50505050505095945050505050565b82805461443c90615021565b90600052602060002090601f01602090048101928261445e57600085556144a4565b82601f1061447757805160ff19168380011785556144a4565b828001600101855582156144a4579182015b828111156144a4578251825591602001919060010190614489565b506144b09291506144b4565b5090565b5b808211156144b057600081556001016144b5565b6001600160a01b0381168114611f0057600080fd5b60008083601f8401126144f057600080fd5b5081356001600160401b0381111561450757600080fd5b60208301915083602082850101111561451f57600080fd5b9250929050565b60008060008060008060008060c0898b03121561454257600080fd5b883561454d816144c9565b9750602089013561455d816144c9565b9650604089013561456d816144c9565b95506060890135945060808901356001600160401b038082111561459057600080fd5b61459c8c838d016144de565b909650945060a08b01359150808211156145b557600080fd5b506145c28b828c016144de565b999c989b5096995094979396929594505050565b6000602082840312156145e857600080fd5b5035919050565b8015158114611f0057600080fd5b60006020828403121561460f57600080fd5b8135612548816145ef565b634e487b7160e01b600052604160045260246000fd5b600082601f83011261464157600080fd5b81356001600160401b038082111561465b5761465b61461a565b604051601f8301601f19908116603f011681019082821181831017156146835761468361461a565b8160405283815286602085880101111561469c57600080fd5b836020870160208301376000602085830101528094505050505092915050565b600080604083850312156146cf57600080fd5b8235915060208301356001600160401b038111156146ec57600080fd5b6146f885828601614630565b9150509250929050565b600060c0828403121561471457600080fd5b50919050565b600060c0828403121561472c57600080fd5b6125488383614702565b803563ffffffff8116811461474a57600080fd5b919050565b60008060008060008060008060006101208a8c03121561476e57600080fd5b8935614779816144c9565b985060208a0135614789816144c9565b975060408a0135614799816144c9565b965060608a0135955060808a0135945060a08a013593506147bc60c08b01614736565b925060e08a013591506101008a013590509295985092959850929598565b600080602083850312156147ed57600080fd5b82356001600160401b0381111561480357600080fd5b61480f858286016144de565b90969095509350505050565b6000806040838503121561482e57600080fd5b823591506020830135614840816144c9565b809150509250929050565b60006020828403121561485d57600080fd5b8135612548816144c9565b6000806020838503121561487b57600080fd5b82356001600160401b038082111561489257600080fd5b818501915085601f8301126148a657600080fd5b8135818111156148b557600080fd5b8660208260051b85010111156148ca57600080fd5b60209290920196919550909350505050565b60008082840360608112156148f057600080fd5b83356148fb816144c9565b92506040601f198201121561490f57600080fd5b50604051604081018181106001600160401b03821117156149325761493261461a565b6040526020840135614943816144c9565b81526040939093013560208401525092909150565b60008060006060848603121561496d57600080fd5b83359250602084013561497f816144c9565b9150604084013561498f816144c9565b809150509250925092565b6000602082840312156149ac57600080fd5b81356001600160401b038111156149c257600080fd5b611dfa84828501614630565b60005b838110156149e95781810151838201526020016149d1565b838111156136335750506000910152565b60008151808452614a128160208601602086016149ce565b601f01601f19169290920160200192915050565b60208152600061254860208301846149fa565b60008060e08385031215614a4c57600080fd5b614a568484614702565b9460c0939093013593505050565b60008060008060808587031215614a7a57600080fd5b843593506020850135614a8c816144c9565b925060408501356001600160401b03811115614aa757600080fd5b614ab387828801614630565b949793965093946060013593505050565b803560ff8116811461474a57600080fd5b6000806000806000806000610180888a031215614af157600080fd5b614afb8989614702565b965060c0880135614b0b816144c9565b955060e088013594506101008801359350614b296101208901614ac4565b92506101408801359150610160880135905092959891949750929550565b600080600080600080600060e0888a031215614b6257600080fd5b8735614b6d816144c9565b9650602088013595506040880135945060608801359350614b9060808901614736565b925060a0880135915060c0880135905092959891949750929550565b600080600060608486031215614bc157600080fd5b833592506020840135614bd3816144c9565b915060408401356001600160401b03811115614bee57600080fd5b614bfa86828701614630565b9150509250925092565b60008060408385031215614c1757600080fd5b50508035926020909101359150565b60008060008060008060008060c0898b031215614c4257600080fd5b883597506020890135614c54816144c9565b9650614c6260408a01614ac4565b955060608901356001600160401b0380821115614c7e57600080fd5b614c8a8c838d016144de565b909750955060808b0135915080821115614ca357600080fd5b50614cb08b828c016144de565b999c989b50969995989497949560a00135949350505050565b60008060008060808587031215614cdf57600080fd5b8435614cea816144c9565b93506020850135614cfa816144c9565b92506040850135614d0a816144c9565b91506060850135614d1a816144c9565b939692955090935050565b600060208284031215614d3757600080fd5b8151612548816144c9565b634e487b7160e01b600052601160045260246000fd5b600082821015614d6a57614d6a614d42565b500390565b6020808252818101527f4f776e61626c653a2063616c6c6572206973206e6f7420746865206f776e6572604082015260600190565b60208082526010908201526f14185d5cd8589b194e881c185d5cd95960821b604082015260600190565b60008219821115614de157614de1614d42565b500190565b60208082526025908201527f5265656e7472616e637947756172643a206e6f207265656e7472616e7420616c6040820152641b1bddd95960da1b606082015260800190565b8183823760009101908152919050565b60208082526028908201527f436f6e747261637420696e7374616e636520697320616c726561647920696e696040820152671d1a585b1a5e995960c21b606082015260800190565b634e487b7160e01b600052603260045260246000fd5b6000823560be19833603018112614eaf57600080fd5b9190910192915050565b600060208284031215614ecb57600080fd5b61254882614ac4565b6000808335601e19843603018112614eeb57600080fd5b8301803591506001600160401b03821115614f0557600080fd5b60200191503681900382131561451f57600080fd5b6000600019821415614f2e57614f2e614d42565b5060010190565b60208082526028908201527f506175736572526f6c653a2063616c6c657220646f65736e277420686176652060408201526774686520726f6c6560c01b606082015260800190565b600060208284031215614f8f57600080fd5b61254882614736565b600060c08284031215614faa57600080fd5b60405160c081018181106001600160401b0382111715614fcc57614fcc61461a565b6040528235614fda816144c9565b8082525060208301356020820152604083013560408201526060830135606082015261500860808401614736565b608082015260a083013560a08201528091505092915050565b600181811c9082168061503557607f821691505b6020821081141561471457634e487b7160e01b600052602260045260246000fd5b634e487b7160e01b600052601260045260246000fd5b60008261507b5761507b615056565b500490565b60008251614eaf8184602087016149ce565b6001600160a01b0383168152604060208201819052600090611dfa908301846149fa565b600060ff821660ff8416808210156150d0576150d0614d42565b90039392505050565b600181815b808511156151145781600019048211156150fa576150fa614d42565b8085161561510757918102915b93841c93908002906150de565b509250929050565b60008261512b57506001611353565b8161513857506000611353565b816001811461514e576002811461515857615174565b6001915050611353565b60ff84111561516957615169614d42565b50506001821b611353565b5060208310610133831016604e8410600b8410161715615197575081810a611353565b6151a183836150d9565b80600019048211156151b5576151b5614d42565b029392505050565b600061254860ff84168361511c565b828152604060208201526000611dfa60408301846149fa565b60a0815260006151f860a08301886149fa565b6001600160a01b03871660208401526040830186905260608301859052828103608084015261522781856149fa565b98975050505050505050565b81835281816020850137506000828201602090810191909152601f909101601f19169091010190565b606081526000615270606083018789615233565b8281036020840152615283818688615233565b9150508260408301529695505050505050565b6060815260006152aa606083018688615233565b6020830194909452506040015292915050565b60008160001904831182151516156152d7576152d7614d42565b500290565b6000602082840312156152ee57600080fd5b5051919050565b60006020828403121561530757600080fd5b8151612548816145ef565b60008261532157615321615056565b500690565b6000612548838361511c56fea264697066735822122032aa0da20ee9c9db4af72f4a6a060632f1555a31eaa5099359181e9bc1401a7164736f6c63430008090033",
  "devdoc": {
    "kind": "dev",
    "methods": {
      "__Pausable_init(address)": {
        "details": "Initializes the contract in unpaused state. Assigns the Pauser role to the deployer."
      },
      "initialize(address)": {
        "details": "Initializes the contract setting the deployer as the initial owner."
      },
      "isOwner()": {
        "details": "Returns true if the caller is the current owner."
      },
      "owner()": {
        "details": "Returns the address of the current owner."
      },
      "pause()": {
        "details": "Called by a pauser to pause, triggers stopped state."
      },
      "paused()": {
        "details": "Returns true if the contract is paused, and false otherwise."
      },
      "renounceOwnership()": {
        "details": "Leaves the contract without owner. It will not be possible to call `onlyOwner` functions anymore. Can only be called by the current owner. > Note: Renouncing ownership will leave the contract without an owner, thereby removing any functionality that is only available to the owner."
      },
      "tokensReceived(address,address,address,uint256,bytes,bytes)": {
        "params": {
          "userData": "it can be 2 options in the first one you can send the receiver and the chain id of the destination const userData = web3.eth.abi.encodeParameters(   [\"address\", \"uint256\"],   [anAccount.toLowerCase(), chains.ETHEREUM_MAIN_NET_CHAIN_ID] ); or you also can send only the destination chain id, and the receiver would be the same as the from parameter const userData = web3.eth.abi.encodeParameters([\"uint256\"], [chains.ETHEREUM_MAIN_NET_CHAIN_ID]);"
        }
      },
      "transferOwnership(address)": {
        "details": "Transfers ownership of the contract to a new account (`newOwner`). Can only be called by the current owner."
      },
      "unpause()": {
        "details": "Called by a pauser to unpause, returns to normal state."
      }
    },
    "version": 1
  },
  "userdoc": {
    "kind": "user",
    "methods": {
      "acceptTransfer(address,address,address,uint256,bytes32,bytes32,uint32,uint256,uint256)": {
        "notice": "Accepts the transaction from the other chain that was voted and sent by the Federation contract"
      },
      "claim((address,uint256,bytes32,bytes32,uint32,uint256))": {
        "notice": "Claims the crossed transaction using the hash, this sends the funds to the address indicated in"
      },
      "depositTo(uint256,string)": {
        "notice": "Use network currency and cross it."
      },
      "receiveTokensTo(uint256,address,string,uint256)": {
        "notice": "ERC-20 tokens approve and transferFrom pattern See https://eips.ethereum.org/EIPS/eip-20#transferfrom"
      },
      "tokensReceived(address,address,address,uint256,bytes,bytes)": {
        "notice": "ERC-777 tokensReceived hook allows to send tokens to a contract and notify it in a single transaction See https://eips.ethereum.org/EIPS/eip-777#motivation for details"
      }
    },
    "version": 1
  },
  "storageLayout": {
    "storage": [
      {
        "astId": 15912,
        "contract": "contracts/Bridge/Bridge.sol:Bridge",
        "label": "initialized",
        "offset": 0,
        "slot": "0",
        "type": "t_bool"
      },
      {
        "astId": 15915,
        "contract": "contracts/Bridge/Bridge.sol:Bridge",
        "label": "initializing",
        "offset": 1,
        "slot": "0",
        "type": "t_bool"
      },
      {
        "astId": 15955,
        "contract": "contracts/Bridge/Bridge.sol:Bridge",
        "label": "______gap",
        "offset": 0,
        "slot": "1",
        "type": "t_array(t_uint256)50_storage"
      },
      {
        "astId": 15981,
        "contract": "contracts/Bridge/Bridge.sol:Bridge",
        "label": "_pausers",
        "offset": 0,
        "slot": "51",
        "type": "t_struct(Role)9995_storage"
      },
      {
        "astId": 16103,
        "contract": "contracts/Bridge/Bridge.sol:Bridge",
        "label": "_paused",
        "offset": 0,
        "slot": "52",
        "type": "t_bool"
      },
      {
        "astId": 16201,
        "contract": "contracts/Bridge/Bridge.sol:Bridge",
        "label": "_owner",
        "offset": 1,
        "slot": "52",
        "type": "t_address"
      },
      {
        "astId": 16920,
        "contract": "contracts/Bridge/Bridge.sol:Bridge",
        "label": "_guardCounter",
        "offset": 0,
        "slot": "53",
        "type": "t_uint256"
      },
      {
        "astId": 1344,
        "contract": "contracts/Bridge/Bridge.sol:Bridge",
        "label": "federation",
        "offset": 0,
        "slot": "54",
        "type": "t_address"
      },
      {
        "astId": 1346,
        "contract": "contracts/Bridge/Bridge.sol:Bridge",
        "label": "feePercentage",
        "offset": 0,
        "slot": "55",
        "type": "t_uint256"
      },
      {
        "astId": 1348,
        "contract": "contracts/Bridge/Bridge.sol:Bridge",
        "label": "deprecatedSymbolPrefix",
        "offset": 0,
        "slot": "56",
        "type": "t_string_storage"
      },
      {
        "astId": 1350,
        "contract": "contracts/Bridge/Bridge.sol:Bridge",
        "label": "domainSeparator",
        "offset": 0,
        "slot": "57",
        "type": "t_bytes32"
      },
      {
        "astId": 1352,
        "contract": "contracts/Bridge/Bridge.sol:Bridge",
        "label": "_deprecatedSpentToday",
        "offset": 0,
        "slot": "58",
        "type": "t_uint256"
      },
      {
        "astId": 1356,
        "contract": "contracts/Bridge/Bridge.sol:Bridge",
        "label": "deprecatedMappedTokens",
        "offset": 0,
        "slot": "59",
        "type": "t_mapping(t_address,t_address)"
      },
      {
        "astId": 1360,
        "contract": "contracts/Bridge/Bridge.sol:Bridge",
        "label": "deprecatedOriginalTokens",
        "offset": 0,
        "slot": "60",
        "type": "t_mapping(t_address,t_address)"
      },
      {
        "astId": 1364,
        "contract": "contracts/Bridge/Bridge.sol:Bridge",
        "label": "deprecatedKnownTokens",
        "offset": 0,
        "slot": "61",
        "type": "t_mapping(t_address,t_bool)"
      },
      {
        "astId": 1368,
        "contract": "contracts/Bridge/Bridge.sol:Bridge",
        "label": "claimed",
        "offset": 0,
        "slot": "62",
        "type": "t_mapping(t_bytes32,t_bool)"
      },
      {
        "astId": 1371,
        "contract": "contracts/Bridge/Bridge.sol:Bridge",
        "label": "allowTokens",
        "offset": 0,
        "slot": "63",
        "type": "t_contract(IAllowTokens)8241"
      },
      {
        "astId": 1374,
        "contract": "contracts/Bridge/Bridge.sol:Bridge",
        "label": "sideTokenFactory",
        "offset": 0,
        "slot": "64",
        "type": "t_contract(ISideTokenFactory)8726"
      },
      {
        "astId": 1376,
        "contract": "contracts/Bridge/Bridge.sol:Bridge",
        "label": "isUpgrading",
        "offset": 20,
        "slot": "64",
        "type": "t_bool"
      },
      {
        "astId": 1387,
        "contract": "contracts/Bridge/Bridge.sol:Bridge",
        "label": "wrappedCurrency",
        "offset": 0,
        "slot": "65",
        "type": "t_contract(IWrapped)8779"
      },
      {
        "astId": 1391,
        "contract": "contracts/Bridge/Bridge.sol:Bridge",
        "label": "transactionsDataHashes",
        "offset": 0,
        "slot": "66",
        "type": "t_mapping(t_bytes32,t_bytes32)"
      },
      {
        "astId": 1395,
        "contract": "contracts/Bridge/Bridge.sol:Bridge",
        "label": "originalTokenAddresses",
        "offset": 0,
        "slot": "67",
        "type": "t_mapping(t_bytes32,t_address)"
      },
      {
        "astId": 1399,
        "contract": "contracts/Bridge/Bridge.sol:Bridge",
        "label": "senderAddresses",
        "offset": 0,
        "slot": "68",
        "type": "t_mapping(t_bytes32,t_address)"
      },
      {
        "astId": 1406,
        "contract": "contracts/Bridge/Bridge.sol:Bridge",
        "label": "nonces",
        "offset": 0,
        "slot": "69",
        "type": "t_mapping(t_address,t_uint256)"
      },
      {
        "astId": 1412,
        "contract": "contracts/Bridge/Bridge.sol:Bridge",
        "label": "sideTokenByOriginalTokenByChain",
        "offset": 0,
        "slot": "70",
        "type": "t_mapping(t_uint256,t_mapping(t_address,t_address))"
      },
      {
        "astId": 1417,
        "contract": "contracts/Bridge/Bridge.sol:Bridge",
        "label": "originalTokenBySideToken",
        "offset": 0,
        "slot": "71",
        "type": "t_mapping(t_address,t_struct(OriginalToken)8262_storage)"
      },
      {
        "astId": 1423,
        "contract": "contracts/Bridge/Bridge.sol:Bridge",
        "label": "knownTokenByChain",
        "offset": 0,
        "slot": "72",
        "type": "t_mapping(t_uint256,t_mapping(t_address,t_bool))"
      },
      {
        "astId": 1427,
        "contract": "contracts/Bridge/Bridge.sol:Bridge",
        "label": "EvmToHathorTokenMap",
        "offset": 0,
        "slot": "73",
        "type": "t_mapping(t_address,t_string_storage)"
      },
      {
        "astId": 1432,
        "contract": "contracts/Bridge/Bridge.sol:Bridge",
        "label": "HathorToEvmTokenMap",
        "offset": 0,
        "slot": "74",
        "type": "t_mapping(t_string_memory_ptr,t_struct(OriginalToken)8262_storage)"
      }
    ],
    "types": {
      "t_address": {
        "encoding": "inplace",
        "label": "address",
        "numberOfBytes": "20"
      },
      "t_array(t_uint256)50_storage": {
        "base": "t_uint256",
        "encoding": "inplace",
        "label": "uint256[50]",
        "numberOfBytes": "1600"
      },
      "t_bool": {
        "encoding": "inplace",
        "label": "bool",
        "numberOfBytes": "1"
      },
      "t_bytes32": {
        "encoding": "inplace",
        "label": "bytes32",
        "numberOfBytes": "32"
      },
      "t_contract(IAllowTokens)8241": {
        "encoding": "inplace",
        "label": "contract IAllowTokens",
        "numberOfBytes": "20"
      },
      "t_contract(ISideTokenFactory)8726": {
        "encoding": "inplace",
        "label": "contract ISideTokenFactory",
        "numberOfBytes": "20"
      },
      "t_contract(IWrapped)8779": {
        "encoding": "inplace",
        "label": "contract IWrapped",
        "numberOfBytes": "20"
      },
      "t_mapping(t_address,t_address)": {
        "encoding": "mapping",
        "key": "t_address",
        "label": "mapping(address => address)",
        "numberOfBytes": "32",
        "value": "t_address"
      },
      "t_mapping(t_address,t_bool)": {
        "encoding": "mapping",
        "key": "t_address",
        "label": "mapping(address => bool)",
        "numberOfBytes": "32",
        "value": "t_bool"
      },
      "t_mapping(t_address,t_string_storage)": {
        "encoding": "mapping",
        "key": "t_address",
        "label": "mapping(address => string)",
        "numberOfBytes": "32",
        "value": "t_string_storage"
      },
      "t_mapping(t_address,t_struct(OriginalToken)8262_storage)": {
        "encoding": "mapping",
        "key": "t_address",
        "label": "mapping(address => struct IBridge.OriginalToken)",
        "numberOfBytes": "32",
        "value": "t_struct(OriginalToken)8262_storage"
      },
      "t_mapping(t_address,t_uint256)": {
        "encoding": "mapping",
        "key": "t_address",
        "label": "mapping(address => uint256)",
        "numberOfBytes": "32",
        "value": "t_uint256"
      },
      "t_mapping(t_bytes32,t_address)": {
        "encoding": "mapping",
        "key": "t_bytes32",
        "label": "mapping(bytes32 => address)",
        "numberOfBytes": "32",
        "value": "t_address"
      },
      "t_mapping(t_bytes32,t_bool)": {
        "encoding": "mapping",
        "key": "t_bytes32",
        "label": "mapping(bytes32 => bool)",
        "numberOfBytes": "32",
        "value": "t_bool"
      },
      "t_mapping(t_bytes32,t_bytes32)": {
        "encoding": "mapping",
        "key": "t_bytes32",
        "label": "mapping(bytes32 => bytes32)",
        "numberOfBytes": "32",
        "value": "t_bytes32"
      },
      "t_mapping(t_string_memory_ptr,t_struct(OriginalToken)8262_storage)": {
        "encoding": "mapping",
        "key": "t_string_memory_ptr",
        "label": "mapping(string => struct IBridge.OriginalToken)",
        "numberOfBytes": "32",
        "value": "t_struct(OriginalToken)8262_storage"
      },
      "t_mapping(t_uint256,t_mapping(t_address,t_address))": {
        "encoding": "mapping",
        "key": "t_uint256",
        "label": "mapping(uint256 => mapping(address => address))",
        "numberOfBytes": "32",
        "value": "t_mapping(t_address,t_address)"
      },
      "t_mapping(t_uint256,t_mapping(t_address,t_bool))": {
        "encoding": "mapping",
        "key": "t_uint256",
        "label": "mapping(uint256 => mapping(address => bool))",
        "numberOfBytes": "32",
        "value": "t_mapping(t_address,t_bool)"
      },
      "t_string_memory_ptr": {
        "encoding": "bytes",
        "label": "string",
        "numberOfBytes": "32"
      },
      "t_string_storage": {
        "encoding": "bytes",
        "label": "string",
        "numberOfBytes": "32"
      },
      "t_struct(OriginalToken)8262_storage": {
        "encoding": "inplace",
        "label": "struct IBridge.OriginalToken",
        "members": [
          {
            "astId": 8259,
            "contract": "contracts/Bridge/Bridge.sol:Bridge",
            "label": "tokenAddress",
            "offset": 0,
            "slot": "0",
            "type": "t_address"
          },
          {
            "astId": 8261,
            "contract": "contracts/Bridge/Bridge.sol:Bridge",
            "label": "originChainId",
            "offset": 0,
            "slot": "1",
            "type": "t_uint256"
          }
        ],
        "numberOfBytes": "64"
      },
      "t_struct(Role)9995_storage": {
        "encoding": "inplace",
        "label": "struct Roles.Role",
        "members": [
          {
            "astId": 9994,
            "contract": "contracts/Bridge/Bridge.sol:Bridge",
            "label": "bearer",
            "offset": 0,
            "slot": "0",
            "type": "t_mapping(t_address,t_bool)"
          }
        ],
        "numberOfBytes": "32"
      },
      "t_uint256": {
        "encoding": "inplace",
        "label": "uint256",
        "numberOfBytes": "32"
      }
    }
  }
}