{
  "address": "0xc9FCE6D37e29eC819Cc8f60c1B7647F4d49267ab",
  "abi": [
    {
      "anonymous": false,
      "inputs": [
        {
          "indexed": true,
          "internalType": "bytes32",
          "name": "_transactionHash",
          "type": "bytes32"
        },
        {
          "indexed": true,
          "internalType": "address",
          "name": "_originalTokenAddress",
          "type": "address"
        },
        {
          "indexed": true,
          "internalType": "address",
          "name": "_to",
          "type": "address"
        },
        {
          "indexed": false,
          "internalType": "address",
          "name": "_from",
          "type": "address"
        },
        {
          "indexed": false,
          "internalType": "uint256",
          "name": "_amount",
          "type": "uint256"
        },
        {
          "indexed": false,
          "internalType": "bytes32",
          "name": "_blockHash",
          "type": "bytes32"
        },
        {
          "indexed": false,
          "internalType": "uint256",
          "name": "_logIndex",
          "type": "uint256"
        },
        {
          "indexed": false,
          "internalType": "uint256",
          "name": "_originChainId",
          "type": "uint256"
        },
        {
          "indexed": false,
          "internalType": "uint256",
          "name": "_destinationChainId",
          "type": "uint256"
        }
      ],
      "name": "AcceptedCrossTransfer",
      "type": "event"
    },
    {
      "anonymous": false,
      "inputs": [
        {
          "indexed": false,
          "internalType": "address",
          "name": "_newAllowTokens",
          "type": "address"
        }
      ],
      "name": "AllowTokensChanged",
      "type": "event"
    },
    {
      "anonymous": false,
      "inputs": [
        {
          "indexed": true,
          "internalType": "bytes32",
          "name": "_transactionHash",
          "type": "bytes32"
        },
        {
          "indexed": true,
          "internalType": "address",
          "name": "_originalTokenAddress",
          "type": "address"
        },
        {
          "indexed": true,
          "internalType": "address",
          "name": "_to",
          "type": "address"
        },
        {
          "indexed": false,
          "internalType": "address",
          "name": "_sender",
          "type": "address"
        },
        {
          "indexed": false,
          "internalType": "uint256",
          "name": "_amount",
          "type": "uint256"
        },
        {
          "indexed": false,
          "internalType": "bytes32",
          "name": "_blockHash",
          "type": "bytes32"
        },
        {
          "indexed": false,
          "internalType": "uint256",
          "name": "_logIndex",
          "type": "uint256"
        },
        {
          "indexed": false,
          "internalType": "address",
          "name": "_reciever",
          "type": "address"
        },
        {
          "indexed": false,
          "internalType": "address",
          "name": "_relayer",
          "type": "address"
        },
        {
          "indexed": false,
          "internalType": "uint256",
          "name": "_fee",
          "type": "uint256"
        },
        {
          "indexed": false,
          "internalType": "uint256",
          "name": "_destinationChainId",
          "type": "uint256"
        },
        {
          "indexed": false,
          "internalType": "uint256",
          "name": "_originChainId",
          "type": "uint256"
        }
      ],
      "name": "Claimed",
      "type": "event"
    },
    {
      "anonymous": false,
      "inputs": [
        {
          "indexed": true,
          "internalType": "address",
          "name": "_tokenAddress",
          "type": "address"
        },
        {
          "indexed": false,
          "internalType": "string",
          "name": "_to",
          "type": "string"
        },
        {
          "indexed": true,
          "internalType": "uint256",
          "name": "_destinationChainId",
          "type": "uint256"
        },
        {
          "indexed": false,
          "internalType": "address",
          "name": "_from",
          "type": "address"
        },
        {
          "indexed": false,
          "internalType": "uint256",
          "name": "_originChainId",
          "type": "uint256"
        },
        {
          "indexed": false,
          "internalType": "uint256",
          "name": "_amount",
          "type": "uint256"
        },
        {
          "indexed": false,
          "internalType": "bytes",
          "name": "_userData",
          "type": "bytes"
        }
      ],
      "name": "Cross",
      "type": "event"
    },
    {
      "anonymous": false,
      "inputs": [
        {
          "indexed": false,
          "internalType": "address",
          "name": "_newFederation",
          "type": "address"
        }
      ],
      "name": "FederationChanged",
      "type": "event"
    },
    {
      "anonymous": false,
      "inputs": [
        {
          "indexed": false,
          "internalType": "uint256",
          "name": "_amount",
          "type": "uint256"
        }
      ],
      "name": "FeePercentageChanged",
      "type": "event"
    },
    {
      "anonymous": false,
      "inputs": [
        {
          "indexed": false,
          "internalType": "address",
          "name": "token",
          "type": "address"
        },
        {
          "indexed": false,
          "internalType": "string",
          "name": "uid",
          "type": "string"
        }
      ],
      "name": "HathorTokenMapped",
      "type": "event"
    },
    {
      "anonymous": false,
      "inputs": [
        {
          "indexed": true,
          "internalType": "address",
          "name": "_newSideTokenAddress",
          "type": "address"
        },
        {
          "indexed": true,
          "internalType": "address",
          "name": "_originalTokenAddress",
          "type": "address"
        },
        {
          "indexed": false,
          "internalType": "string",
          "name": "_newSymbol",
          "type": "string"
        },
        {
          "indexed": false,
          "internalType": "uint256",
          "name": "_granularity",
          "type": "uint256"
        },
        {
          "indexed": false,
          "internalType": "uint256",
          "name": "_chainId",
          "type": "uint256"
        }
      ],
      "name": "NewSideToken",
      "type": "event"
    },
    {
      "anonymous": false,
      "inputs": [
        {
          "indexed": true,
          "internalType": "address",
          "name": "previousOwner",
          "type": "address"
        },
        {
          "indexed": true,
          "internalType": "address",
          "name": "newOwner",
          "type": "address"
        }
      ],
      "name": "OwnershipTransferred",
      "type": "event"
    },
    {
      "anonymous": false,
      "inputs": [
        {
          "indexed": false,
          "internalType": "address",
          "name": "account",
          "type": "address"
        }
      ],
      "name": "Paused",
      "type": "event"
    },
    {
      "anonymous": false,
      "inputs": [
        {
          "indexed": true,
          "internalType": "address",
          "name": "account",
          "type": "address"
        }
      ],
      "name": "PauserAdded",
      "type": "event"
    },
    {
      "anonymous": false,
      "inputs": [
        {
          "indexed": true,
          "internalType": "address",
          "name": "account",
          "type": "address"
        }
      ],
      "name": "PauserRemoved",
      "type": "event"
    },
    {
      "anonymous": false,
      "inputs": [
        {
          "indexed": false,
          "internalType": "address",
          "name": "_newSideTokenFactory",
          "type": "address"
        }
      ],
      "name": "SideTokenFactoryChanged",
      "type": "event"
    },
    {
      "anonymous": false,
      "inputs": [
        {
          "indexed": false,
          "internalType": "address",
          "name": "account",
          "type": "address"
        }
      ],
      "name": "Unpaused",
      "type": "event"
    },
    {
      "anonymous": false,
      "inputs": [
        {
          "indexed": false,
          "internalType": "bool",
          "name": "_isUpgrading",
          "type": "bool"
        }
      ],
      "name": "Upgrading",
      "type": "event"
    },
    {
      "anonymous": false,
      "inputs": [
        {
          "indexed": false,
          "internalType": "address",
          "name": "_wrappedCurrency",
          "type": "address"
        }
      ],
      "name": "WrappedCurrencyChanged",
      "type": "event"
    },
    {
      "inputs": [],
      "name": "CLAIM_TYPEHASH",
      "outputs": [
        {
          "internalType": "bytes32",
          "name": "",
          "type": "bytes32"
        }
      ],
      "stateMutability": "view",
      "type": "function"
    },
    {
      "inputs": [
        {
          "internalType": "address",
          "name": "",
          "type": "address"
        }
      ],
      "name": "EvmToHathorTokenMap",
      "outputs": [
        {
          "internalType": "string",
          "name": "",
          "type": "string"
        }
      ],
      "stateMutability": "view",
      "type": "function"
    },
    {
      "inputs": [
        {
          "internalType": "string",
          "name": "",
          "type": "string"
        }
      ],
      "name": "HathorToEvmTokenMap",
      "outputs": [
        {
          "internalType": "address",
          "name": "",
          "type": "address"
        }
      ],
      "stateMutability": "view",
      "type": "function"
    },
    {
      "inputs": [
        {
          "internalType": "address",
          "name": "sender",
          "type": "address"
        }
      ],
      "name": "__Pausable_init",
      "outputs": [],
      "stateMutability": "nonpayable",
      "type": "function"
    },
    {
      "inputs": [
        {
          "internalType": "address",
          "name": "sender",
          "type": "address"
        }
      ],
      "name": "__PauserRol_init",
      "outputs": [],
      "stateMutability": "nonpayable",
      "type": "function"
    },
    {
      "inputs": [
        {
          "internalType": "address",
          "name": "_originalTokenAddress",
          "type": "address"
        },
        {
          "internalType": "address payable",
          "name": "_from",
          "type": "address"
        },
        {
          "internalType": "address payable",
          "name": "_to",
          "type": "address"
        },
        {
          "internalType": "uint256",
          "name": "_amount",
          "type": "uint256"
        },
        {
          "internalType": "bytes32",
          "name": "_blockHash",
          "type": "bytes32"
        },
        {
          "internalType": "bytes32",
          "name": "_transactionHash",
          "type": "bytes32"
        },
        {
          "internalType": "uint32",
          "name": "_logIndex",
          "type": "uint32"
        },
        {
          "internalType": "uint256",
          "name": "_originChainId",
          "type": "uint256"
        },
        {
          "internalType": "uint256",
          "name": "_destinationChainId",
          "type": "uint256"
        }
      ],
      "name": "acceptTransfer",
      "outputs": [],
      "stateMutability": "nonpayable",
      "type": "function"
    },
    {
      "inputs": [
        {
          "internalType": "address",
          "name": "token",
          "type": "address"
        },
        {
          "internalType": "string",
          "name": "uid",
          "type": "string"
        }
      ],
      "name": "addHathorToken",
      "outputs": [],
      "stateMutability": "nonpayable",
      "type": "function"
    },
    {
      "inputs": [
        {
          "internalType": "address",
          "name": "account",
          "type": "address"
        }
      ],
      "name": "addPauser",
      "outputs": [],
      "stateMutability": "nonpayable",
      "type": "function"
    },
    {
      "inputs": [],
      "name": "allowTokens",
      "outputs": [
        {
          "internalType": "contract IAllowTokens",
          "name": "",
          "type": "address"
        }
      ],
      "stateMutability": "view",
      "type": "function"
    },
    {
      "inputs": [
        {
          "internalType": "address",
          "name": "newAllowTokens",
          "type": "address"
        }
      ],
      "name": "changeAllowTokens",
      "outputs": [],
      "stateMutability": "nonpayable",
      "type": "function"
    },
    {
      "inputs": [
        {
          "internalType": "address",
          "name": "newFederation",
          "type": "address"
        }
      ],
      "name": "changeFederation",
      "outputs": [],
      "stateMutability": "nonpayable",
      "type": "function"
    },
    {
      "inputs": [
        {
          "internalType": "address",
          "name": "newSideTokenFactory",
          "type": "address"
        }
      ],
      "name": "changeSideTokenFactory",
      "outputs": [],
      "stateMutability": "nonpayable",
      "type": "function"
    },
    {
      "inputs": [
        {
          "components": [
            {
              "internalType": "address payable",
              "name": "to",
              "type": "address"
            },
            {
              "internalType": "uint256",
              "name": "amount",
              "type": "uint256"
            },
            {
              "internalType": "bytes32",
              "name": "blockHash",
              "type": "bytes32"
            },
            {
              "internalType": "bytes32",
              "name": "transactionHash",
              "type": "bytes32"
            },
            {
              "internalType": "uint32",
              "name": "logIndex",
              "type": "uint32"
            },
            {
              "internalType": "uint256",
              "name": "originChainId",
              "type": "uint256"
            }
          ],
          "internalType": "struct IBridge.ClaimData",
          "name": "_claimData",
          "type": "tuple"
        }
      ],
      "name": "claim",
      "outputs": [
        {
          "internalType": "uint256",
          "name": "receivedAmount",
          "type": "uint256"
        }
      ],
      "stateMutability": "nonpayable",
      "type": "function"
    },
    {
      "inputs": [
        {
          "components": [
            {
              "internalType": "address payable",
              "name": "to",
              "type": "address"
            },
            {
              "internalType": "uint256",
              "name": "amount",
              "type": "uint256"
            },
            {
              "internalType": "bytes32",
              "name": "blockHash",
              "type": "bytes32"
            },
            {
              "internalType": "bytes32",
              "name": "transactionHash",
              "type": "bytes32"
            },
            {
              "internalType": "uint32",
              "name": "logIndex",
              "type": "uint32"
            },
            {
              "internalType": "uint256",
              "name": "originChainId",
              "type": "uint256"
            }
          ],
          "internalType": "struct IBridge.ClaimData",
          "name": "_claimData",
          "type": "tuple"
        }
      ],
      "name": "claimFallback",
      "outputs": [
        {
          "internalType": "uint256",
          "name": "receivedAmount",
          "type": "uint256"
        }
      ],
      "stateMutability": "nonpayable",
      "type": "function"
    },
    {
      "inputs": [
        {
          "components": [
            {
              "internalType": "address payable",
              "name": "to",
              "type": "address"
            },
            {
              "internalType": "uint256",
              "name": "amount",
              "type": "uint256"
            },
            {
              "internalType": "bytes32",
              "name": "blockHash",
              "type": "bytes32"
            },
            {
              "internalType": "bytes32",
              "name": "transactionHash",
              "type": "bytes32"
            },
            {
              "internalType": "uint32",
              "name": "logIndex",
              "type": "uint32"
            },
            {
              "internalType": "uint256",
              "name": "originChainId",
              "type": "uint256"
            }
          ],
          "internalType": "struct IBridge.ClaimData",
          "name": "_claimData",
          "type": "tuple"
        },
        {
          "internalType": "address payable",
          "name": "_relayer",
          "type": "address"
        },
        {
          "internalType": "uint256",
          "name": "_fee",
          "type": "uint256"
        },
        {
          "internalType": "uint256",
          "name": "_deadline",
          "type": "uint256"
        },
        {
          "internalType": "uint8",
          "name": "_v",
          "type": "uint8"
        },
        {
          "internalType": "bytes32",
          "name": "_r",
          "type": "bytes32"
        },
        {
          "internalType": "bytes32",
          "name": "_s",
          "type": "bytes32"
        }
      ],
      "name": "claimGasless",
      "outputs": [
        {
          "internalType": "uint256",
          "name": "receivedAmount",
          "type": "uint256"
        }
      ],
      "stateMutability": "nonpayable",
      "type": "function"
    },
    {
      "inputs": [
        {
          "internalType": "bytes32",
          "name": "",
          "type": "bytes32"
        }
      ],
      "name": "claimed",
      "outputs": [
        {
          "internalType": "bool",
          "name": "",
          "type": "bool"
        }
      ],
      "stateMutability": "view",
      "type": "function"
    },
    {
      "inputs": [
        {
          "components": [
            {
              "internalType": "uint256",
              "name": "_typeId",
              "type": "uint256"
            },
            {
              "internalType": "address",
              "name": "_originalTokenAddress",
              "type": "address"
            },
            {
              "internalType": "uint8",
              "name": "_originalTokenDecimals",
              "type": "uint8"
            },
            {
              "internalType": "string",
              "name": "_originalTokenSymbol",
              "type": "string"
            },
            {
              "internalType": "string",
              "name": "_originalTokenName",
              "type": "string"
            },
            {
              "internalType": "uint256",
              "name": "_originChainId",
              "type": "uint256"
            }
          ],
          "internalType": "struct IBridge.CreateSideTokenStruct[]",
          "name": "createSideTokenStruct",
          "type": "tuple[]"
        }
      ],
      "name": "createMultipleSideTokens",
      "outputs": [],
      "stateMutability": "nonpayable",
      "type": "function"
    },
    {
      "inputs": [
        {
          "internalType": "uint256",
          "name": "_typeId",
          "type": "uint256"
        },
        {
          "internalType": "address",
          "name": "_originalTokenAddress",
          "type": "address"
        },
        {
          "internalType": "uint8",
          "name": "_originalTokenDecimals",
          "type": "uint8"
        },
        {
          "internalType": "string",
          "name": "_tokenSymbol",
          "type": "string"
        },
        {
          "internalType": "string",
          "name": "_tokenName",
          "type": "string"
        },
        {
          "internalType": "uint256",
          "name": "_originChainId",
          "type": "uint256"
        }
      ],
      "name": "createSideToken",
      "outputs": [],
      "stateMutability": "nonpayable",
      "type": "function"
    },
    {
      "inputs": [
        {
          "internalType": "uint256",
          "name": "chainId",
          "type": "uint256"
        },
        {
          "internalType": "string",
          "name": "hathorTo",
          "type": "string"
        }
      ],
      "name": "depositTo",
      "outputs": [],
      "stateMutability": "payable",
      "type": "function"
    },
    {
      "inputs": [
        {
          "internalType": "address",
          "name": "",
          "type": "address"
        }
      ],
      "name": "deprecatedKnownTokens",
      "outputs": [
        {
          "internalType": "bool",
          "name": "",
          "type": "bool"
        }
      ],
      "stateMutability": "view",
      "type": "function"
    },
    {
      "inputs": [
        {
          "internalType": "address",
          "name": "",
          "type": "address"
        }
      ],
      "name": "deprecatedMappedTokens",
      "outputs": [
        {
          "internalType": "address",
          "name": "",
          "type": "address"
        }
      ],
      "stateMutability": "view",
      "type": "function"
    },
    {
      "inputs": [
        {
          "internalType": "address",
          "name": "",
          "type": "address"
        }
      ],
      "name": "deprecatedOriginalTokens",
      "outputs": [
        {
          "internalType": "address",
          "name": "",
          "type": "address"
        }
      ],
      "stateMutability": "view",
      "type": "function"
    },
    {
      "inputs": [],
      "name": "deprecatedSymbolPrefix",
      "outputs": [
        {
          "internalType": "string",
          "name": "",
          "type": "string"
        }
      ],
      "stateMutability": "view",
      "type": "function"
    },
    {
      "inputs": [],
      "name": "domainSeparator",
      "outputs": [
        {
          "internalType": "bytes32",
          "name": "",
          "type": "bytes32"
        }
      ],
      "stateMutability": "view",
      "type": "function"
    },
    {
      "inputs": [],
      "name": "feePercentageDivider",
      "outputs": [
        {
          "internalType": "uint256",
          "name": "",
          "type": "uint256"
        }
      ],
      "stateMutability": "view",
      "type": "function"
    },
    {
      "inputs": [],
      "name": "getFederation",
      "outputs": [
        {
          "internalType": "address",
          "name": "",
          "type": "address"
        }
      ],
      "stateMutability": "view",
      "type": "function"
    },
    {
      "inputs": [],
      "name": "getFeePercentage",
      "outputs": [
        {
          "internalType": "uint256",
          "name": "",
          "type": "uint256"
        }
      ],
      "stateMutability": "view",
      "type": "function"
    },
    {
      "inputs": [
        {
          "internalType": "address",
          "name": "sideToken",
          "type": "address"
        }
      ],
      "name": "getOriginalTokenBySideToken",
      "outputs": [
        {
          "components": [
            {
              "internalType": "address",
              "name": "tokenAddress",
              "type": "address"
            },
            {
              "internalType": "uint256",
              "name": "originChainId",
              "type": "uint256"
            }
          ],
          "internalType": "struct IBridge.OriginalToken",
          "name": "originalToken",
          "type": "tuple"
        }
      ],
      "stateMutability": "view",
      "type": "function"
    },
    {
      "inputs": [
        {
          "internalType": "address",
          "name": "_to",
          "type": "address"
        },
        {
          "internalType": "uint256",
          "name": "_amount",
          "type": "uint256"
        },
        {
          "internalType": "bytes32",
          "name": "_blockHash",
          "type": "bytes32"
        },
        {
          "internalType": "bytes32",
          "name": "_transactionHash",
          "type": "bytes32"
        },
        {
          "internalType": "uint32",
          "name": "_logIndex",
          "type": "uint32"
        },
        {
          "internalType": "uint256",
          "name": "_originChainId",
          "type": "uint256"
        },
        {
          "internalType": "uint256",
          "name": "_destinationChainId",
          "type": "uint256"
        }
      ],
      "name": "getTransactionDataHash",
      "outputs": [
        {
          "internalType": "bytes32",
          "name": "",
          "type": "bytes32"
        }
      ],
      "stateMutability": "pure",
      "type": "function"
    },
    {
      "inputs": [
        {
          "internalType": "bytes32",
          "name": "transactionHash",
          "type": "bytes32"
        }
      ],
      "name": "hasBeenClaimed",
      "outputs": [
        {
          "internalType": "bool",
          "name": "",
          "type": "bool"
        }
      ],
      "stateMutability": "view",
      "type": "function"
    },
    {
      "inputs": [
        {
          "internalType": "bytes32",
          "name": "transactionHash",
          "type": "bytes32"
        }
      ],
      "name": "hasCrossed",
      "outputs": [
        {
          "internalType": "bool",
          "name": "",
          "type": "bool"
        }
      ],
      "stateMutability": "view",
      "type": "function"
    },
    {
      "inputs": [],
      "name": "initDomainSeparator",
      "outputs": [],
      "stateMutability": "nonpayable",
      "type": "function"
    },
    {
      "inputs": [],
      "name": "initialize",
      "outputs": [],
      "stateMutability": "nonpayable",
      "type": "function"
    },
    {
      "inputs": [
        {
          "internalType": "address",
          "name": "sender",
          "type": "address"
        }
      ],
      "name": "initialize",
      "outputs": [],
      "stateMutability": "nonpayable",
      "type": "function"
    },
    {
      "inputs": [
        {
          "internalType": "address",
          "name": "_manager",
          "type": "address"
        },
        {
          "internalType": "address",
          "name": "_federation",
          "type": "address"
        },
        {
          "internalType": "address",
          "name": "_allowTokens",
          "type": "address"
        },
        {
          "internalType": "address",
          "name": "_sideTokenFactory",
          "type": "address"
        }
      ],
      "name": "initialize",
      "outputs": [],
      "stateMutability": "nonpayable",
      "type": "function"
    },
    {
      "inputs": [
        {
          "components": [
            {
              "internalType": "address payable",
              "name": "to",
              "type": "address"
            },
            {
              "internalType": "uint256",
              "name": "amount",
              "type": "uint256"
            },
            {
              "internalType": "bytes32",
              "name": "blockHash",
              "type": "bytes32"
            },
            {
              "internalType": "bytes32",
              "name": "transactionHash",
              "type": "bytes32"
            },
            {
              "internalType": "uint32",
              "name": "logIndex",
              "type": "uint32"
            },
            {
              "internalType": "uint256",
              "name": "originChainId",
              "type": "uint256"
            }
          ],
          "internalType": "struct IBridge.ClaimData",
          "name": "_claimData",
          "type": "tuple"
        },
        {
          "internalType": "bytes32",
          "name": "transactionDataHashMultichain",
          "type": "bytes32"
        }
      ],
      "name": "isClaimed",
      "outputs": [
        {
          "internalType": "bool",
          "name": "",
          "type": "bool"
        }
      ],
      "stateMutability": "view",
      "type": "function"
    },
    {
      "inputs": [
        {
          "internalType": "bytes32",
          "name": "transactionDataHash",
          "type": "bytes32"
        },
        {
          "internalType": "bytes32",
          "name": "transactionDataHashMultichain",
          "type": "bytes32"
        }
      ],
      "name": "isClaimed",
      "outputs": [
        {
          "internalType": "bool",
          "name": "",
          "type": "bool"
        }
      ],
      "stateMutability": "view",
      "type": "function"
    },
    {
      "inputs": [],
      "name": "isOwner",
      "outputs": [
        {
          "internalType": "bool",
          "name": "",
          "type": "bool"
        }
      ],
      "stateMutability": "view",
      "type": "function"
    },
    {
      "inputs": [
        {
          "internalType": "address",
          "name": "account",
          "type": "address"
        }
      ],
      "name": "isPauser",
      "outputs": [
        {
          "internalType": "bool",
          "name": "",
          "type": "bool"
        }
      ],
      "stateMutability": "view",
      "type": "function"
    },
    {
      "inputs": [],
      "name": "isUpgrading",
      "outputs": [
        {
          "internalType": "bool",
          "name": "",
          "type": "bool"
        }
      ],
      "stateMutability": "view",
      "type": "function"
    },
    {
      "inputs": [
        {
          "internalType": "uint256",
          "name": "chainId",
          "type": "uint256"
        },
        {
          "internalType": "address",
          "name": "originalToken",
          "type": "address"
        }
      ],
      "name": "knownToken",
      "outputs": [
        {
          "internalType": "bool",
          "name": "",
          "type": "bool"
        }
      ],
      "stateMutability": "view",
      "type": "function"
    },
    {
      "inputs": [
        {
          "internalType": "uint256",
          "name": "",
          "type": "uint256"
        },
        {
          "internalType": "address",
          "name": "",
          "type": "address"
        }
      ],
      "name": "knownTokenByChain",
      "outputs": [
        {
          "internalType": "bool",
          "name": "",
          "type": "bool"
        }
      ],
      "stateMutability": "view",
      "type": "function"
    },
    {
      "inputs": [
        {
          "internalType": "address",
          "name": "",
          "type": "address"
        }
      ],
      "name": "nonces",
      "outputs": [
        {
          "internalType": "uint256",
          "name": "",
          "type": "uint256"
        }
      ],
      "stateMutability": "view",
      "type": "function"
    },
    {
      "inputs": [
        {
          "internalType": "bytes32",
          "name": "",
          "type": "bytes32"
        }
      ],
      "name": "originalTokenAddresses",
      "outputs": [
        {
          "internalType": "address",
          "name": "",
          "type": "address"
        }
      ],
      "stateMutability": "view",
      "type": "function"
    },
    {
      "inputs": [
        {
          "internalType": "address",
          "name": "",
          "type": "address"
        }
      ],
      "name": "originalTokenBySideToken",
      "outputs": [
        {
          "internalType": "address",
          "name": "tokenAddress",
          "type": "address"
        },
        {
          "internalType": "uint256",
          "name": "originChainId",
          "type": "uint256"
        }
      ],
      "stateMutability": "view",
      "type": "function"
    },
    {
      "inputs": [],
      "name": "owner",
      "outputs": [
        {
          "internalType": "address",
          "name": "",
          "type": "address"
        }
      ],
      "stateMutability": "view",
      "type": "function"
    },
    {
      "inputs": [],
      "name": "pause",
      "outputs": [],
      "stateMutability": "nonpayable",
      "type": "function"
    },
    {
      "inputs": [],
      "name": "paused",
      "outputs": [
        {
          "internalType": "bool",
          "name": "",
          "type": "bool"
        }
      ],
      "stateMutability": "view",
      "type": "function"
    },
    {
      "inputs": [
        {
          "internalType": "uint256",
          "name": "destinationChainId",
          "type": "uint256"
        },
        {
          "internalType": "address",
          "name": "tokenToUse",
          "type": "address"
        },
        {
          "internalType": "string",
          "name": "hathorTo",
          "type": "string"
        },
        {
          "internalType": "uint256",
          "name": "amount",
          "type": "uint256"
        }
      ],
      "name": "receiveTokensTo",
      "outputs": [],
      "stateMutability": "nonpayable",
      "type": "function"
    },
    {
      "inputs": [],
      "name": "renounceOwnership",
      "outputs": [],
      "stateMutability": "nonpayable",
      "type": "function"
    },
    {
      "inputs": [],
      "name": "renouncePauser",
      "outputs": [],
      "stateMutability": "nonpayable",
      "type": "function"
    },
    {
      "inputs": [
        {
          "internalType": "bytes32",
          "name": "",
          "type": "bytes32"
        }
      ],
      "name": "senderAddresses",
      "outputs": [
        {
          "internalType": "address",
          "name": "",
          "type": "address"
        }
      ],
      "stateMutability": "view",
      "type": "function"
    },
    {
      "inputs": [
        {
          "internalType": "uint256",
          "name": "amount",
          "type": "uint256"
        }
      ],
      "name": "setFeePercentage",
      "outputs": [],
      "stateMutability": "nonpayable",
      "type": "function"
    },
    {
      "inputs": [
        {
          "internalType": "address",
          "name": "sideToken",
          "type": "address"
        },
        {
          "components": [
            {
              "internalType": "address",
              "name": "tokenAddress",
              "type": "address"
            },
            {
              "internalType": "uint256",
              "name": "originChainId",
              "type": "uint256"
            }
          ],
          "internalType": "struct IBridge.OriginalToken",
          "name": "originalToken",
          "type": "tuple"
        }
      ],
      "name": "setOriginalTokenBySideTokenByChain",
      "outputs": [],
      "stateMutability": "nonpayable",
      "type": "function"
    },
    {
      "inputs": [
        {
          "internalType": "uint256",
          "name": "chainId",
          "type": "uint256"
        },
        {
          "internalType": "address",
          "name": "originalToken",
          "type": "address"
        },
        {
          "internalType": "address",
          "name": "sideToken",
          "type": "address"
        }
      ],
      "name": "setSideTokenByOriginalAddressByChain",
      "outputs": [],
      "stateMutability": "nonpayable",
      "type": "function"
    },
    {
      "inputs": [
        {
          "internalType": "bool",
          "name": "_isUpgrading",
          "type": "bool"
        }
      ],
      "name": "setUpgrading",
      "outputs": [],
      "stateMutability": "nonpayable",
      "type": "function"
    },
    {
      "inputs": [
        {
          "internalType": "address",
          "name": "_wrappedCurrency",
          "type": "address"
        }
      ],
      "name": "setWrappedCurrency",
      "outputs": [],
      "stateMutability": "nonpayable",
      "type": "function"
    },
    {
      "inputs": [
        {
          "internalType": "uint256",
          "name": "chainId",
          "type": "uint256"
        },
        {
          "internalType": "address",
          "name": "originalToken",
          "type": "address"
        }
      ],
      "name": "sideTokenByOriginalToken",
      "outputs": [
        {
          "internalType": "address",
          "name": "",
          "type": "address"
        }
      ],
      "stateMutability": "view",
      "type": "function"
    },
    {
      "inputs": [
        {
          "internalType": "uint256",
          "name": "",
          "type": "uint256"
        },
        {
          "internalType": "address",
          "name": "",
          "type": "address"
        }
      ],
      "name": "sideTokenByOriginalTokenByChain",
      "outputs": [
        {
          "internalType": "address",
          "name": "",
          "type": "address"
        }
      ],
      "stateMutability": "view",
      "type": "function"
    },
    {
      "inputs": [],
      "name": "sideTokenFactory",
      "outputs": [
        {
          "internalType": "contract ISideTokenFactory",
          "name": "",
          "type": "address"
        }
      ],
      "stateMutability": "view",
      "type": "function"
    },
    {
      "inputs": [
        {
          "internalType": "address",
          "name": "operator",
          "type": "address"
        },
        {
          "internalType": "address",
          "name": "from",
          "type": "address"
        },
        {
          "internalType": "address",
          "name": "to",
          "type": "address"
        },
        {
          "internalType": "uint256",
          "name": "amount",
          "type": "uint256"
        },
        {
          "internalType": "bytes",
          "name": "userData",
          "type": "bytes"
        },
        {
          "internalType": "bytes",
          "name": "",
          "type": "bytes"
        }
      ],
      "name": "tokensReceived",
      "outputs": [],
      "stateMutability": "nonpayable",
      "type": "function"
    },
    {
      "inputs": [
        {
          "internalType": "bytes32",
          "name": "",
          "type": "bytes32"
        }
      ],
      "name": "transactionsDataHashes",
      "outputs": [
        {
          "internalType": "bytes32",
          "name": "",
          "type": "bytes32"
        }
      ],
      "stateMutability": "view",
      "type": "function"
    },
    {
      "inputs": [
        {
          "internalType": "address",
          "name": "newOwner",
          "type": "address"
        }
      ],
      "name": "transferOwnership",
      "outputs": [],
      "stateMutability": "nonpayable",
      "type": "function"
    },
    {
      "inputs": [
        {
          "internalType": "string",
          "name": "uid",
          "type": "string"
        }
      ],
      "name": "uidToAddress",
      "outputs": [
        {
          "internalType": "address",
          "name": "",
          "type": "address"
        }
      ],
      "stateMutability": "pure",
      "type": "function"
    },
    {
      "inputs": [],
      "name": "unpause",
      "outputs": [],
      "stateMutability": "nonpayable",
      "type": "function"
    },
    {
      "inputs": [],
      "name": "version",
      "outputs": [
        {
          "internalType": "string",
          "name": "",
          "type": "string"
        }
      ],
      "stateMutability": "pure",
      "type": "function"
    },
    {
      "inputs": [],
      "name": "wrappedCurrency",
      "outputs": [
        {
          "internalType": "contract IWrapped",
          "name": "",
          "type": "address"
        }
      ],
      "stateMutability": "view",
      "type": "function"
    },
    {
      "stateMutability": "payable",
      "type": "receive"
    }
  ],
  "transactionHash": "0x01ca34567026797026739b919f31893d971bcd514434e568b48cedc51e7ddb9f",
  "args": [],
  "numDeployments": 1,
  "solcInputHash": "a5c8ce08bfdc4fbe6dfdbd76057d483f",
  "bytecode": "0x608060405234801561001057600080fd5b50615317806100206000396000f3fe6080604052600436106103e75760003560e01c80638129fc1c11610208578063b86f60d211610118578063da677037116100ab578063eb16136f1161007a578063eb16136f14610d8d578063f2fde38b14610dad578063f698da2514610dcd578063f8c8765e14610de3578063fa0caa1614610e0357600080fd5b8063da67703714610d0a578063e07801d014610d39578063e6fc774414610d59578063ea21709114610d6f57600080fd5b8063cbc73280116100e7578063cbc7328014610c85578063cc3c0f0614610ca5578063d12e825d14610cd5578063d3401a2214610cea57600080fd5b8063b86f60d214610bcb578063b984a40414610beb578063c4d66de814610c2f578063ca07140c14610c4f57600080fd5b80638f32d59b1161019b578063a89f298a1161016a578063a89f298a14610b2a578063ae06c1b714610b4a578063b048c4fb14610b6a578063b0e1268e14610b8a578063b794726214610baa57600080fd5b80638f32d59b14610aa4578063916dc59d14610aca578063a53d6e6e14610aea578063a83cf9f214610b0a57600080fd5b8063850ad459116101d7578063850ad45914610a2c57806388710e2e14610a4c5780638ca0108214610a6c5780638da5cb5b14610a8157600080fd5b80638129fc1c146109b257806382a0b8cb146109c757806382dc1ec4146109f75780638456cb5914610a1757600080fd5b80633cf3058b1161030357806354fd4d50116102965780636ef8d66d116102655780636ef8d66d146108c6578063715018a6146108db5780637a0ab28f146108f05780637a98187b146109265780637ecebe001461098557600080fd5b806354fd4d50146108265780635c975abb1461085a578063615bfd6e146108725780636b0509b11461089257600080fd5b806347f8bbd4116102d257806347f8bbd4146107855780634c739509146107a55780634d5f1fa1146107c55780634f487e5a1461080657600080fd5b80633cf3058b146106fa5780633f4ba83a1461073057806342cdb2c61461074557806346fbf68e1461076557600080fd5b80631b462fc41161037b57806337e761091161034a57806337e76109146106265780633a1cbbcb146106635780633c3f63f4146106995780633c7e0cb7146106da57600080fd5b80631b462fc41461056357806322f89ba41461059b5780632f3cca4e146105e65780633500c1dc1461060657600080fd5b80630ed928af116103b75780630ed928af146104ee5780630ef1335c1461050e57806311efbf611461052e578063122aa5d41461054357600080fd5b806223de291461045b578063026976191461047b57806307c8f7b0146104bb5780630a1d1833146104db57600080fd5b36610456576041546001600160a01b0316336001600160a01b0316146104545760405162461bcd60e51b815260206004820152601b60248201527f4272696467653a206e6f74207772617070656443757272656e6379000000000060448201526064015b60405180910390fd5b005b600080fd5b34801561046757600080fd5b506104546104763660046144f4565b610e23565b34801561048757600080fd5b506104a86104963660046145a4565b60426020526000908152604090205481565b6040519081526020015b60405180910390f35b3480156104c757600080fd5b506104546104d63660046145cb565b6111a5565b6104546104e936600461468a565b611234565b3480156104fa57600080fd5b506104a86105093660046146e8565b61132e565b34801561051a57600080fd5b506104a86105293660046146e8565b61134f565b34801561053a57600080fd5b506037546104a8565b34801561054f57600080fd5b5061045461055e36600461471d565b6113c6565b34801561056f57600080fd5b5061058361057e3660046147a8565b611804565b6040516001600160a01b0390911681526020016104b2565b3480156105a757600080fd5b506105d66105b63660046147e9565b604860209081526000928352604080842090915290825290205460ff1681565b60405190151581526020016104b2565b3480156105f257600080fd5b50610454610601366004614819565b61183d565b34801561061257600080fd5b50610454610621366004614819565b6118bd565b34801561063257600080fd5b506105d66106413660046145a4565b6000908152604260209081526040808320548352603e90915290205460ff1690565b34801561066f57600080fd5b5061058361067e366004614819565b603b602052600090815260409020546001600160a01b031681565b3480156106a557600080fd5b506105836106b43660046147e9565b60466020908152600092835260408084209091529082529020546001600160a01b031681565b3480156106e657600080fd5b506104546106f5366004614836565b61198f565b34801561070657600080fd5b506105836107153660046145a4565b6044602052600090815260409020546001600160a01b031681565b34801561073c57600080fd5b50610454611b04565b34801561075157600080fd5b50610454610760366004614819565b611bbc565b34801561077157600080fd5b506105d6610780366004614819565b611c9d565b34801561079157600080fd5b506104546107a03660046148aa565b611caa565b3480156107b157600080fd5b506104546107c0366004614926565b611d1b565b3480156107d157600080fd5b506105836107e0366004614968565b8051602081830181018051604a825292820191909301209152546001600160a01b031681565b34801561081257600080fd5b5061045461082136600461499c565b611d8b565b34801561083257600080fd5b506040805180820190915260028152611d8d60f21b60208201525b6040516104b29190614a2d565b34801561086657600080fd5b5060345460ff166105d6565b34801561087e57600080fd5b506105d661088d366004614a40565b611e66565b34801561089e57600080fd5b506104a87faf3ac34fea9cc1b1def33a9bdc482d988feb61b5015ae4a55e2a62bb3600d54c81565b3480156108d257600080fd5b50610454611ed3565b3480156108e757600080fd5b50610454611ede565b3480156108fc57600080fd5b5061058361090b366004614819565b603c602052600090815260409020546001600160a01b031681565b34801561093257600080fd5b50610966610941366004614819565b604760205260009081526040902080546001909101546001600160a01b039091169082565b604080516001600160a01b0390931683526020830191909152016104b2565b34801561099157600080fd5b506104a86109a0366004614819565b60456020526000908152604090205481565b3480156109be57600080fd5b50610454611f63565b3480156109d357600080fd5b506105d66109e2366004614819565b603d6020526000908152604090205460ff1681565b348015610a0357600080fd5b50610454610a12366004614819565b611fd4565b348015610a2357600080fd5b50610454612002565b348015610a3857600080fd5b50610454610a47366004614a6b565b61207f565b348015610a5857600080fd5b506104a8610a67366004614adc565b6120b9565b348015610a7857600080fd5b5061084d612234565b348015610a8d57600080fd5b5060345461010090046001600160a01b0316610583565b348015610ab057600080fd5b506105d660345461010090046001600160a01b0316331490565b348015610ad657600080fd5b50610454610ae5366004614819565b6122c2565b348015610af657600080fd5b50603f54610583906001600160a01b031681565b348015610b1657600080fd5b5061084d610b25366004614819565b61239b565b348015610b3657600080fd5b506104a8610b45366004614b4e565b6123b4565b348015610b5657600080fd5b50610454610b653660046145a4565b612426565b348015610b7657600080fd5b506105d6610b85366004614bb3565b6124eb565b348015610b9657600080fd5b50604154610583906001600160a01b031681565b348015610bb657600080fd5b506040546105d690600160a01b900460ff1681565b348015610bd757600080fd5b50604054610583906001600160a01b031681565b348015610bf757600080fd5b50610c0b610c06366004614819565b61251d565b6040805182516001600160a01b0316815260209283015192810192909252016104b2565b348015610c3b57600080fd5b50610454610c4a366004614819565b61259c565b348015610c5b57600080fd5b50610583610c6a3660046145a4565b6043602052600090815260409020546001600160a01b031681565b348015610c9157600080fd5b50610454610ca0366004614bd5565b61265e565b348015610cb157600080fd5b506105d6610cc03660046145a4565b603e6020526000908152604090205460ff1681565b348015610ce157600080fd5b506104546126a3565b348015610cf657600080fd5b50610583610d053660046147e9565b61274a565b348015610d1657600080fd5b506105d6610d253660046145a4565b600090815260426020526040902054151590565b348015610d4557600080fd5b506105d6610d543660046147e9565b61279d565b348015610d6557600080fd5b506104a861271081565b348015610d7b57600080fd5b506036546001600160a01b0316610583565b348015610d9957600080fd5b50610454610da8366004614819565b6127f2565b348015610db957600080fd5b50610454610dc8366004614819565b612874565b348015610dd957600080fd5b506104a860395481565b348015610def57600080fd5b50610454610dfe366004614c78565b6128b2565b348015610e0f57600080fd5b50610454610e1e366004614819565b612a07565b6001600160a01b038816301415610e395761119b565b6001600160a01b0386163014610e915760405162461bcd60e51b815260206004820152601b60248201527f4272696467653a204e6f7420746f207468697320616464726573730000000000604482015260640161044b565b60003360405163555ddc6560e11b81526001600160a01b03821660048201527fac7fbab5f54a3ca8194167523c6753bfeb96a445279294b6125b68cce21770546024820152909150600090731820a4b7618bde71dce8cdc73aab6c95905fad249063aabbb8ca9060440160206040518083038186803b158015610f1357600080fd5b505afa158015610f27573d6000803e3d6000fd5b505050506040513d601f19601f82011682018060405250810190610f4b9190614cd4565b6001600160a01b03161415610fa25760405162461bcd60e51b815260206004820152601860248201527f4272696467653a204e6f742045524337373720746f6b656e0000000000000000604482015260640161044b565b60208410156110125760405162461bcd60e51b815260206004820152603660248201527f4272696467653a207573657220646174612077697468206174206c65617374206044820152751d1a194819195cdd1a5b985d1a5bdb90da185a5b925960521b606482015260840161044b565b604084148061102957506001600160a01b0388163b155b6110865760405162461bcd60e51b815260206004820152602860248201527f4272696467653a2053706563696679207265636569766572206164647265737360448201526720696e206461746160c01b606482015260840161044b565b6000602085146110d7576110d286868080601f016020809104026020016040519081016040528093929190818152602001838380828437600092019190915250600c9250612ae0915050565b6110d9565b885b9050600061112987878080601f0160208091040260200160405190810160405280939291908181526020018383808284376000920191909152506111249250602091508a9050614d07565b612b4d565b90506000604051806040016040528060098152602001681d5b9919599a5b995960ba1b8152509050611196848c838c8c8c8080601f0160208091040260200160405190810160405280939291908181526020018383808284376000920191909152508a9250612bb3915050565b505050505b5050505050505050565b6111be60345461010090046001600160a01b0316331490565b6111da5760405162461bcd60e51b815260040161044b90614d1e565b6040805460ff60a01b1916600160a01b831515810291909117808355915160ff9190920416151581527f983e436223c000a441c2443b394ca5fb4669a513fe86dc1dd44494047b514ad9906020015b60405180910390a150565b60415433906001600160a01b031661128e5760405162461bcd60e51b815260206004820152601d60248201527f4272696467653a207772617070656443757272656e637920656d707479000000604482015260640161044b565b604160009054906101000a90046001600160a01b03166001600160a01b031663d0e30db0346040518263ffffffff1660e01b81526004016000604051808303818588803b1580156112de57600080fd5b505af11580156112f2573d6000803e3d6000fd5b5050505050611329604160009054906101000a90046001600160a01b03168284346040518060200160405280600081525088612bb3565b505050565b6000611349826113416020820182614819565b600080612f63565b92915050565b60608101356000908152604460205260408120546001600160a01b0316336001600160a01b0316146113bc5760405162461bcd60e51b8152602060048201526016602482015275213934b233b29d1034b73b30b634b21039b2b73232b960511b604482015260640161044b565b6113498233611341565b60345460ff16156113e95760405162461bcd60e51b815260040161044b90614d53565b6001603560008282546113fc9190614d7d565b90915550506035546036546001600160a01b0316336001600160a01b0316146114605760405162461bcd60e51b8152602060048201526016602482015275213934b233b29d102737ba102332b232b930ba34b7b760511b604482015260640161044b565b6114698361314e565b61147282613195565b61147c838b61279d565b8061149a5750600061148e848c61274a565b6001600160a01b031614155b6114de5760405162461bcd60e51b8152602060048201526015602482015274213934b233b29d102ab735b737bbb7103a37b5b2b760591b604482015260640161044b565b6001600160a01b0388166115265760405162461bcd60e51b815260206004820152600f60248201526e4272696467653a204e756c6c20546f60881b604482015260640161044b565b600087116115695760405162461bcd60e51b815260206004820152601060248201526f04272696467653a20416d6f756e7420360841b604482015260640161044b565b856115af5760405162461bcd60e51b8152602060048201526016602482015275084e4d2c8ceca74409cead8d84084d8dec6d690c2e6d60531b604482015260640161044b565b846115f25760405162461bcd60e51b8152602060048201526013602482015272084e4d2c8ceca74409cead8d840a8f090c2e6d606b1b604482015260640161044b565b6000858152604260205260409020541561164e5760405162461bcd60e51b815260206004820152601860248201527f4272696467653a20416c72656164792061636365707465640000000000000000604482015260640161044b565b600061165d89898989896131e4565b905060006116708a8a8a8a8a8a8a6123b4565b905061167c82826124eb565b156116c35760405162461bcd60e51b8152602060048201526017602482015276109c9a5919d94e88105b1c9958591e4818db185a5b5959604a1b604482015260640161044b565b8060426000898152602001908152602001600020819055508b6043600089815260200190815260200160002060006101000a8154816001600160a01b0302191690836001600160a01b031602179055508a6044600089815260200190815260200160002060006101000a8154816001600160a01b0302191690836001600160a01b03160217905550896001600160a01b03168c6001600160a01b0316887fddae5e892ad96ac0e35e9018a1a3e32ecd7f3dfe55ea34d9ab1e8faecd6ccb5a8e8d8d8c8c8c6040516117cd969594939291906001600160a01b039690961686526020860194909452604085019290925263ffffffff166060840152608083015260a082015260c00190565b60405180910390a4505060355481146117f85760405162461bcd60e51b815260040161044b90614d95565b50505050505050505050565b600080838360405160200161181a929190614dda565b60408051808303601f19018152919052805160209091012060601c949350505050565b600054610100900460ff1680611856575060005460ff16155b6118725760405162461bcd60e51b815260040161044b90614dea565b600054610100900460ff16158015611894576000805461ffff19166101011790555b61189d826127f2565b6034805460ff1916905580156118b9576000805461ff00191690555b5050565b6118d660345461010090046001600160a01b0316331490565b6118f25760405162461bcd60e51b815260040161044b90614d1e565b6001600160a01b0381166119415760405162461bcd60e51b81526020600482015260166024820152754272696467653a20777261707020697320656d70747960501b604482015260640161044b565b604180546001600160a01b0319166001600160a01b0383169081179091556040519081527f0966c958966f6fac9ff807af074f8117eb2e9ce2b76390db7a158e9bdeb2485c90602001611229565b6119a860345461010090046001600160a01b0316331490565b6119c45760405162461bcd60e51b815260040161044b90614d1e565b60005b8181101561132957611af28383838181106119e4576119e4614e32565b90506020028101906119f69190614e48565b35848484818110611a0957611a09614e32565b9050602002810190611a1b9190614e48565b611a2c906040810190602001614819565b858585818110611a3e57611a3e614e32565b9050602002810190611a509190614e48565b611a61906060810190604001614e68565b868686818110611a7357611a73614e32565b9050602002810190611a859190614e48565b611a93906060810190614e83565b888888818110611aa557611aa5614e32565b9050602002810190611ab79190614e48565b611ac5906080810190614e83565b8a8a8a818110611ad757611ad7614e32565b9050602002810190611ae99190614e48565b60a0013561324f565b80611afc81614ec9565b9150506119c7565b611b0d33611c9d565b611b295760405162461bcd60e51b815260040161044b90614ee4565b60345460ff16611b725760405162461bcd60e51b815260206004820152601460248201527314185d5cd8589b194e881b9bdd081c185d5cd95960621b604482015260640161044b565b6034805460ff191690557f5db9ee0a495bf2e6ff9c91a7834c1ba4fdd244a5e8aa4e537bd38aeae4b073aa335b6040516001600160a01b03909116815260200160405180910390a1565b611bd560345461010090046001600160a01b0316331490565b611bf15760405162461bcd60e51b815260040161044b90614d1e565b6001600160a01b038116611c515760405162461bcd60e51b815260206004820152602160248201527f4272696467653a2053696465546f6b656e466163746f727920697320656d70746044820152607960f81b606482015260840161044b565b604080546001600160a01b0319166001600160a01b038316908117825590519081527f619936bc6e3618d0b8dc69bcc70134fe9d88f9967f3a8b8304e318369252162590602001611229565b600061134960338361348f565b611cc360345461010090046001600160a01b0316331490565b611cdf5760405162461bcd60e51b815260040161044b90614d1e565b6001600160a01b039182166000908152604760209081526040909120825181546001600160a01b03191694169390931783550151600190910155565b611d3460345461010090046001600160a01b0316331490565b611d505760405162461bcd60e51b815260040161044b90614d1e565b60009283526046602090815260408085206001600160a01b0394851686529091529092208054919092166001600160a01b0319909116179055565b611da460345461010090046001600160a01b0316331490565b611dc05760405162461bcd60e51b815260040161044b90614d1e565b6001600160a01b03821660009081526049602090815260409091208251611de9928401906143fe565b5081604a82604051611dfb9190614f2c565b90815260405190819003602001812080546001600160a01b03939093166001600160a01b0319909316929092179091557fb7924ee2fddea404b34edd2016ffac13a55fccace32bd60b3ce963bff51e007a90611e5a9084908490614f3e565b60405180910390a15050565b600080611e9d611e796020860186614819565b602086013560408701356060880135611e9860a08a0160808b01614f62565b6131e4565b6000818152603e602052604090205490915060ff1680611ecb57506000838152603e602052604090205460ff165b949350505050565b611edc33613512565b565b611ef760345461010090046001600160a01b0316331490565b611f135760405162461bcd60e51b815260040161044b90614d1e565b60345460405160009161010090046001600160a01b0316907f8be0079c531659141344cd1fd0a4f28419497f9722a3daafe3b4186f6b6457e0908390a360348054610100600160a81b0319169055565b600054610100900460ff1680611f7c575060005460ff16155b611f985760405162461bcd60e51b815260040161044b90614dea565b600054610100900460ff16158015611fba576000805461ffff19166101011790555b60016035558015611fd1576000805461ff00191690555b50565b611fdd33611c9d565b611ff95760405162461bcd60e51b815260040161044b90614ee4565b611fd181613554565b61200b33611c9d565b6120275760405162461bcd60e51b815260040161044b90614ee4565b60345460ff161561204a5760405162461bcd60e51b815260040161044b90614d53565b6034805460ff191660011790557f62e78cea01bee320cd4e420270b5ea74000d11b0c9f74754ebdbfc544b05a258611b9f3390565b336120956001600160a01b038516823085613596565b6120b284828585604051806020016040528060008152508a612bb3565b5050505050565b6000428510156120fd5760405162461bcd60e51b815260206004820152600f60248201526e109c9a5919d94e8811561412549151608a1b604482015260640161044b565b6000612119612111368b90038b018b614f7d565b898989613607565b6040805160008082526020820180845284905260ff89169282019290925260608101879052608081018690529192509060019060a0016020604051602081039080840390855afa158015612171573d6000803e3d6000fd5b5050604051601f19015191506000905061218e60208c018c614819565b6001600160a01b0316141580156121c257506121ad60208b018b614819565b6001600160a01b0316816001600160a01b0316145b61220e5760405162461bcd60e51b815260206004820152601960248201527f4272696467653a20494e56414c49445f5349474e415455524500000000000000604482015260640161044b565b6122268a61221f6020820182614819565b8b8b612f63565b9a9950505050505050505050565b6038805461224190615006565b80601f016020809104026020016040519081016040528092919081815260200182805461226d90615006565b80156122ba5780601f1061228f576101008083540402835291602001916122ba565b820191906000526020600020905b81548152906001019060200180831161229d57829003601f168201915b505050505081565b6122db60345461010090046001600160a01b0316331490565b6122f75760405162461bcd60e51b815260040161044b90614d1e565b6001600160a01b03811661234d5760405162461bcd60e51b815260206004820152601c60248201527f4272696467653a20416c6c6f77546f6b656e7320697320656d70747900000000604482015260640161044b565b603f80546001600160a01b0319166001600160a01b0383169081179091556040519081527f5f2c1fe803fd576d8af05ea156011cc9cc8c025bda24c1e85772fc05a0b3f1e390602001611229565b6049602052600090815260409020805461224190615006565b6040805160208082019790975280820195909552606097881b6bffffffffffffffffffffffff191697850197909752607484019590955260e09190911b6001600160e01b0319166094830152609882015260b8808201939093528351808203909301835260d801909252805191012090565b61243f60345461010090046001600160a01b0316331490565b61245b5760405162461bcd60e51b815260040161044b90614d1e565b612468600a612710615051565b81106124b65760405162461bcd60e51b815260206004820152601760248201527f4272696467653a20626967676572207468616e20313025000000000000000000604482015260640161044b565b60378190556040518181527f97e97c577f03bda90e2c9739011ec065ed5fbfb36ae217d20bb0d9be95e160cd90602001611229565b6000828152603e602052604081205460ff168061251657506000828152603e602052604090205460ff165b9392505050565b604080518082018252600080825260209182018190526001600160a01b038481168252604783529083902083518085019094528054909116808452600190910154918301919091521561256f57919050565b60016020808301919091526001600160a01b039283166000908152603c9091526040902054909116815290565b600054610100900460ff16806125b5575060005460ff16155b6125d15760405162461bcd60e51b815260040161044b90614dea565b600054610100900460ff161580156125f3576000805461ffff19166101011790555b60348054610100600160a81b0319166101006001600160a01b0385811682029290921792839055604051920416906000907f8be0079c531659141344cd1fd0a4f28419497f9722a3daafe3b4186f6b6457e0908290a380156118b9576000805461ff00191690555050565b61267760345461010090046001600160a01b0316331490565b6126935760405162461bcd60e51b815260040161044b90614d1e565b61119b888888888888888861324f565b604080518082018252601081526f52534b20546f6b656e2042726964676560801b60208083019182528351808501855260018152603160f81b908201529151902082517f8b73c3c69bb8fe3d512ecc4cf759cc79239f7b179b0ffacaa9a75d522b39400f8152918201527fc89efdaa54c0f20c7adf612882df0950f5a951637e0307cdcb4c672f298b8bc69181019190915246606082015230608082015260a09020603955565b60008281526046602090815260408083206001600160a01b038086168552925282205416801561277b579050611349565b50506001600160a01b039081166000908152603b602052604090205416919050565b60008281526048602090815260408083206001600160a01b038516845290915281205460ff1680156127d0579050611349565b50506001600160a01b03166000908152603d602052604090205460ff16919050565b600054610100900460ff168061280b575060005460ff16155b6128275760405162461bcd60e51b815260040161044b90614dea565b600054610100900460ff16158015612849576000805461ffff19166101011790555b61285282611c9d565b61285f5761285f82613554565b80156118b9576000805461ff00191690555050565b61288d60345461010090046001600160a01b0316331490565b6128a95760405162461bcd60e51b815260040161044b90614d1e565b611fd18161370b565b600054610100900460ff16806128cb575060005460ff16155b6128e75760405162461bcd60e51b815260040161044b90614dea565b600054610100900460ff16158015612909576000805461ffff19166101011790555b6129128561259c565b61291b8561183d565b603f80546001600160a01b038581166001600160a01b031992831617909255604080548584169083161781556036805493881693909216929092179055516329965a1d60e01b815230600482018190527fb281fc8c12954d22544db45de3159a39272895b169a852b314f9cc762e44c53b60248301526044820152731820a4b7618bde71dce8cdc73aab6c95905fad24906329965a1d90606401600060405180830381600087803b1580156129cf57600080fd5b505af11580156129e3573d6000803e3d6000fd5b505050506129ef6126a3565b80156120b2576000805461ff00191690555050505050565b612a2060345461010090046001600160a01b0316331490565b612a3c5760405162461bcd60e51b815260040161044b90614d1e565b6001600160a01b038116612a925760405162461bcd60e51b815260206004820152601b60248201527f4272696467653a2046656465726174696f6e20697320656d7074790000000000604482015260640161044b565b603680546001600160a01b0319166001600160a01b0383169081179091556040519081527f4a41a4d11aaf0c0c9e4311ac1d68b2b0134556da594779a2a35b0ddf7cd1eafb90602001611229565b6000612aed826014614d7d565b83511015612b3d5760405162461bcd60e51b815260206004820152601f60248201527f4c69625574696c733a20746f416464726573735f6f75744f66426f756e647300604482015260640161044b565b500160200151600160601b900490565b6000612b5a826020614d7d565b83511015612baa5760405162461bcd60e51b815260206004820152601f60248201527f4c69625574696c733a20746f55696e743235365f6f75744f66426f756e647300604482015260640161044b565b50016020015190565b604054600160a01b900460ff1615612c015760405162461bcd60e51b81526020600482015260116024820152704272696467653a20557067726164696e6760781b604482015260640161044b565b60345460ff1615612c245760405162461bcd60e51b815260040161044b90614d53565b600160356000828254612c379190614d7d565b909155505060355446821415612cab5760405162461bcd60e51b815260206004820152603360248201527f4272696467653a2064657374696e6174696f6e20636861696e20696420657175604482015272185b0818dd5c9c995b9d0818da185a5b881a59606a1b606482015260840161044b565b612cb48261314e565b60008281526048602090815260408083206001600160a01b038b1684529091529020805460ff191660011790556000612d04612710612cfe603754886137d390919063ffffffff16565b90613852565b90506000612d128683613894565b90506000612d1f8a6138d6565b905086601260ff831614612d5057612d4d612d3b836012615065565b612d4690600a61516c565b89906137d3565b90505b603f54604051638c34bc5560e01b81526001600160a01b038d811660048301526024820184905290911690638c34bc5590604401600060405180830381600087803b158015612d9e57600080fd5b505af1158015612db2573d6000803e3d6000fd5b505050506000612dc18c61251d565b80519091506001600160a01b031615612ebd576000612ddf8d6139ba565b90506000612ded8683613a92565b9050612df98782613ad4565b9650612e058682613894565b60405163fe9d930360e01b81529096506001600160a01b038f169063fe9d930390612e369089908e9060040161517b565b600060405180830381600087803b158015612e5057600080fd5b505af1158015612e64573d6000803e3d6000fd5b5050505050508681600001516001600160a01b03167ff79d8745c9a7b4a879eece08f2ec5bdd6f85ec822d09df9e03b171b12192d5938c8e46898e604051612eb0959493929190615194565b60405180910390a3612f08565b868c6001600160a01b03167ff79d8745c9a7b4a879eece08f2ec5bdd6f85ec822d09df9e03b171b12192d5938c8e46898e604051612eff959493929190615194565b60405180910390a35b8415612f3457603454612f349061010090046001600160a01b03166001600160a01b038e169087613b33565b50505050506035548114612f5a5760405162461bcd60e51b815260040161044b90614d95565b50505050505050565b6000600160356000828254612f789190614d7d565b909155505060355460608601356000908152604360205260409020546001600160a01b031680612fe35760405162461bcd60e51b8152602060048201526016602482015275109c9a5919d94e88151e081b9bdd0818dc9bdcdcd95960521b604482015260640161044b565b600061301f612ff560208a018a614819565b60208a013560408b013560608c013561301460a08e0160808f01614f62565b8d60a00135466123b4565b6060890135600090815260426020526040902054909150811461308e5760405162461bcd60e51b815260206004820152602160248201527f4272696467653a2057726f6e67207472616e73616374696f6e446174614861736044820152600d60fb1b606482015260840161044b565b6130988882611e66565b156130df5760405162461bcd60e51b8152602060048201526017602482015276109c9a5919d94e88105b1c9958591e4818db185a5b5959604a1b604482015260640161044b565b6000818152603e60209081526040909120805460ff191660011790556131139060a08a01359084908a908c01358a8a613b63565b93506131228883898989613bb4565b505060355481146131455760405162461bcd60e51b815260040161044b90614d95565b50949350505050565b60008111611fd15760405162461bcd60e51b815260206004820152601460248201527304272696467653a20436861696e496420697320360641b604482015260640161044b565b468114611fd15760405162461bcd60e51b815260206004820152601960248201527f4272696467653a204e6f7420626c6f636b2e636861696e696400000000000000604482015260640161044b565b6040805160208101859052908101839052606086811b6bffffffffffffffffffffffff1916908201526074810185905260e082901b6001600160e01b031916609482015260009060980160405160208183030381529060405280519060200120905095945050505050565b6001600160a01b03871661329a5760405162461bcd60e51b8152602060048201526012602482015271213934b233b29d10273ab636103a37b5b2b760711b604482015260640161044b565b6132a38161314e565b60006132af828961274a565b90506001600160a01b038116156133015760405162461bcd60e51b81526020600482015260166024820152754272696467653a20416c72656164792065786973747360501b604482015260640161044b565b600061330c88613c8f565b6040805490516326d9e96360e01b81529192506001600160a01b0316906326d9e9639061334590889088908c908c90889060040161520b565b602060405180830381600087803b15801561335f57600080fd5b505af1158015613373573d6000803e3d6000fd5b505050506040513d601f19601f820116820180604052508101906133979190614cd4565b91506133a4838a84611d1b565b60408051808201909152602081018490526001600160a01b038a1681526133cb8382611caa565b603f546040516378bf2b5360e01b81526001600160a01b038581166004830152602482018e9052909116906378bf2b5390604401600060405180830381600087803b15801561341957600080fd5b505af115801561342d573d6000803e3d6000fd5b50505050896001600160a01b0316836001600160a01b03167f88dcf8b72e53287db29df3fee9a0f2cb07d1f986cee153aa7d7554405d5db0178a8a868960405161347a9493929190615245565b60405180910390a35050505050505050505050565b60006001600160a01b0382166134f25760405162461bcd60e51b815260206004820152602260248201527f526f6c65733a206163636f756e7420697320746865207a65726f206164647265604482015261737360f01b606482015260840161044b565b506001600160a01b03166000908152602091909152604090205460ff1690565b61351d603382613cfb565b6040516001600160a01b038216907fcd265ebaf09df2871cc7bd4133404a235ba12eff2041bb89d9c714a2621c7c7e90600090a250565b61355f603382613d73565b6040516001600160a01b038216907f6719d08c1888103bea251a4ed56406bd0c3e69723c8a1686e017e7bbe159b6f890600090a250565b6040516001600160a01b03808516602483015283166044820152606481018290526136019085906323b872dd60e01b906084015b60408051601f198184030181529190526020810180516001600160e01b03166001600160e01b031990931692909217909152613def565b50505050565b6039548451602080870151606088015160a08901516001600160a01b0385166000908152604590945260408420805494966137029690957faf3ac34fea9cc1b1def33a9bdc482d988feb61b5015ae4a55e2a62bb3600d54c959194919391928c918c918b61367483614ec9565b909155506040805160208101999099526001600160a01b03978816908901526060880195909552608087019390935260a086019190915290921660c084015260e08301919091526101008201526101208101859052610140016040516020818303038152906040528051906020012060405161190160f01b8152600281019290925260228201526042902090565b95945050505050565b6001600160a01b03811661376c5760405162461bcd60e51b815260206004820152602260248201527f4f776e61626c653a206e6577206f776e6572206973207a65726f206164647265604482015261737360f01b606482015260840161044b565b6034546040516001600160a01b0380841692610100900416907f8be0079c531659141344cd1fd0a4f28419497f9722a3daafe3b4186f6b6457e090600090a3603480546001600160a01b0390921661010002610100600160a81b0319909216919091179055565b6000826137e257506000611349565b60006137ee838561526c565b9050826137fb8583615051565b146125165760405162461bcd60e51b815260206004820152602160248201527f536166654d6174683a206d756c7469706c69636174696f6e206f766572666c6f6044820152607760f81b606482015260840161044b565b600061251683836040518060400160405280601a81526020017f536166654d6174683a206469766973696f6e206279207a65726f000000000000815250613f6f565b600061251683836040518060400160405280601e81526020017f536166654d6174683a207375627472616374696f6e206f766572666c6f770000815250613f9d565b60408051600481526024810182526020810180516001600160e01b031663313ce56760e01b1790529051600091829182916001600160a01b0386169161391c9190614f2c565b600060405180830381855afa9150503d8060008114613957576040519150601f19603f3d011682016040523d82523d6000602084013e61395c565b606091505b5091509150816139a65760405162461bcd60e51b81526020600482015260156024820152744c69625574696c733a204e6f20646563696d616c7360581b604482015260640161044b565b80806020019051810190611ecb919061528b565b60408051600481526024810182526020810180516001600160e01b031663556f0dc760e01b1790529051600091829182916001600160a01b03861691613a009190614f2c565b600060405180830381855afa9150503d8060008114613a3b576040519150601f19603f3d011682016040523d82523d6000602084013e613a40565b606091505b5091509150816139a65760405162461bcd60e51b815260206004820152601860248201527f4c69625574696c733a204e6f206772616e756c61726974790000000000000000604482015260640161044b565b600061251683836040518060400160405280601881526020017f536166654d6174683a206d6f64756c6f206279207a65726f0000000000000000815250613fce565b600080613ae18385614d7d565b9050838110156125165760405162461bcd60e51b815260206004820152601b60248201527f536166654d6174683a206164646974696f6e206f766572666c6f770000000000604482015260640161044b565b6040516001600160a01b03831660248201526044810182905261132990849063a9059cbb60e01b906064016135ca565b6000613b6e8761314e565b613b78878761279d565b15613b9157613b8a8686868686613ffa565b9050613baa565b613ba7613b9e888861274a565b868686866141aa565b90505b9695505050505050565b613bc16020860186614819565b6060860135600081815260446020908152604091829020546001600160a01b039485169489811694937fa7a84dcc6757cdf9b9122d3bbc42d58358c28dc4b09cc24349599a63c56c62fd9392909116918b0135908b0135613c2860a08d0160808e01614f62565b604080516001600160a01b039586168152602081019490945283019190915263ffffffff166060820152818916608082015290871660a08281019190915260c082018790528a013560e0820152466101008201526101200160405180910390a45050505050565b600060128260ff161115613ce55760405162461bcd60e51b815260206004820152601c60248201527f4c69625574696c733a20446563696d616c73206e6f74203c3d20313800000000604482015260640161044b565b613cf0826012615065565b61134990600a61516c565b613d05828261348f565b613d515760405162461bcd60e51b815260206004820181905260248201527f526f6c65733a206163636f756e7420646f65736e2774206861766520726f6c65604482015260640161044b565b6001600160a01b0316600090815260209190915260409020805460ff19169055565b613d7d828261348f565b15613dca5760405162461bcd60e51b815260206004820152601f60248201527f526f6c65733a206163636f756e7420616c72656164792068617320726f6c6500604482015260640161044b565b6001600160a01b0316600090815260209190915260409020805460ff19166001179055565b6001600160a01b0382163b613e465760405162461bcd60e51b815260206004820152601f60248201527f5361666545524332303a2063616c6c20746f206e6f6e2d636f6e747261637400604482015260640161044b565b600080836001600160a01b031683604051613e619190614f2c565b6000604051808303816000865af19150503d8060008114613e9e576040519150601f19603f3d011682016040523d82523d6000602084013e613ea3565b606091505b509150915081613ef55760405162461bcd60e51b815260206004820181905260248201527f5361666545524332303a206c6f772d6c6576656c2063616c6c206661696c6564604482015260640161044b565b8051156136015780806020019051810190613f1091906152a4565b6136015760405162461bcd60e51b815260206004820152602a60248201527f5361666545524332303a204552433230206f7065726174696f6e20646964206e6044820152691bdd081cdd58d8d9595960b21b606482015260840161044b565b60008183613f905760405162461bcd60e51b815260040161044b9190614a2d565b5060006137028486615051565b60008184841115613fc15760405162461bcd60e51b815260040161044b9190614a2d565b5060006137028486614d07565b60008183613fef5760405162461bcd60e51b815260040161044b9190614a2d565b50611ecb83856152c1565b600080614006876138d6565b60ff169050600061402d61401b836012614d07565b61402690600a6152d5565b8790613852565b9050808411156140765760405162461bcd60e51b8152602060048201526014602482015273084e4d2c8ceca7440cccaca40e8dede40d0d2ced60631b604482015260640161044b565b6140808185613894565b6041549093506001600160a01b038981169116141561417157604154604051632e1a7d4d60e01b8152600481018390526001600160a01b0390911690632e1a7d4d90602401600060405180830381600087803b1580156140df57600080fd5b505af11580156140f3573d6000803e3d6000fd5b50506040516001600160a01b038a16925085156108fc02915085906000818181858888f1935050505015801561412d573d6000803e3d6000fd5b50831561416c576040516001600160a01b0386169085156108fc029086906000818181858888f1935050505015801561416a573d6000803e3d6000fd5b505b61419f565b6141856001600160a01b0389168885613b33565b831561419f5761419f6001600160a01b0389168686613b33565b505095945050505050565b60006001600160a01b0386166142025760405162461bcd60e51b815260206004820152601a60248201527f4272696467653a207369646520746f6b656e206973206e756c6c000000000000604482015260640161044b565b6000866001600160a01b031663556f0dc76040518163ffffffff1660e01b815260040160206040518083038186803b15801561423d57600080fd5b505afa158015614251573d6000803e3d6000fd5b505050506040513d601f19601f82011682018060405250810190614275919061528b565b9050600061428386836137d3565b9050808411156142cc5760405162461bcd60e51b8152602060048201526014602482015273084e4d2c8ceca7440cccaca40e8dede40d0d2ced60631b604482015260640161044b565b6142d68185613894565b604051630dcdc7dd60e41b81526001600160a01b038981166004830152602482018390526080604483015260006084830181905260a0606484015260a48301529194509089169063dcdc7dd09060c401600060405180830381600087803b15801561434057600080fd5b505af1158015614354573d6000803e3d6000fd5b50505050600084111561419f57604051630dcdc7dd60e41b81526001600160a01b03868116600483015260248201869052608060448301526000608483015260a06064830152600b60a48301526a72656c617965722066656560a81b60c483015289169063dcdc7dd09060e401600060405180830381600087803b1580156143db57600080fd5b505af11580156143ef573d6000803e3d6000fd5b50505050505095945050505050565b82805461440a90615006565b90600052602060002090601f01602090048101928261442c5760008555614472565b82601f1061444557805160ff1916838001178555614472565b82800160010185558215614472579182015b82811115614472578251825591602001919060010190614457565b5061447e929150614482565b5090565b5b8082111561447e5760008155600101614483565b6001600160a01b0381168114611fd157600080fd5b60008083601f8401126144be57600080fd5b5081356001600160401b038111156144d557600080fd5b6020830191508360208285010111156144ed57600080fd5b9250929050565b60008060008060008060008060c0898b03121561451057600080fd5b883561451b81614497565b9750602089013561452b81614497565b9650604089013561453b81614497565b95506060890135945060808901356001600160401b038082111561455e57600080fd5b61456a8c838d016144ac565b909650945060a08b013591508082111561458357600080fd5b506145908b828c016144ac565b999c989b5096995094979396929594505050565b6000602082840312156145b657600080fd5b5035919050565b8015158114611fd157600080fd5b6000602082840312156145dd57600080fd5b8135612516816145bd565b634e487b7160e01b600052604160045260246000fd5b600082601f83011261460f57600080fd5b81356001600160401b0380821115614629576146296145e8565b604051601f8301601f19908116603f01168101908282118183101715614651576146516145e8565b8160405283815286602085880101111561466a57600080fd5b836020870160208301376000602085830101528094505050505092915050565b6000806040838503121561469d57600080fd5b8235915060208301356001600160401b038111156146ba57600080fd5b6146c6858286016145fe565b9150509250929050565b600060c082840312156146e257600080fd5b50919050565b600060c082840312156146fa57600080fd5b61251683836146d0565b803563ffffffff8116811461471857600080fd5b919050565b60008060008060008060008060006101208a8c03121561473c57600080fd5b893561474781614497565b985060208a013561475781614497565b975060408a013561476781614497565b965060608a0135955060808a0135945060a08a0135935061478a60c08b01614704565b925060e08a013591506101008a013590509295985092959850929598565b600080602083850312156147bb57600080fd5b82356001600160401b038111156147d157600080fd5b6147dd858286016144ac565b90969095509350505050565b600080604083850312156147fc57600080fd5b82359150602083013561480e81614497565b809150509250929050565b60006020828403121561482b57600080fd5b813561251681614497565b6000806020838503121561484957600080fd5b82356001600160401b038082111561486057600080fd5b818501915085601f83011261487457600080fd5b81358181111561488357600080fd5b8660208260051b850101111561489857600080fd5b60209290920196919550909350505050565b60008082840360608112156148be57600080fd5b83356148c981614497565b92506040601f19820112156148dd57600080fd5b50604051604081018181106001600160401b0382111715614900576149006145e8565b604052602084013561491181614497565b81526040939093013560208401525092909150565b60008060006060848603121561493b57600080fd5b83359250602084013561494d81614497565b9150604084013561495d81614497565b809150509250925092565b60006020828403121561497a57600080fd5b81356001600160401b0381111561499057600080fd5b611ecb848285016145fe565b600080604083850312156149af57600080fd5b82356149ba81614497565b915060208301356001600160401b038111156146ba57600080fd5b60005b838110156149f05781810151838201526020016149d8565b838111156136015750506000910152565b60008151808452614a198160208601602086016149d5565b601f01601f19169290920160200192915050565b6020815260006125166020830184614a01565b60008060e08385031215614a5357600080fd5b614a5d84846146d0565b9460c0939093013593505050565b60008060008060808587031215614a8157600080fd5b843593506020850135614a9381614497565b925060408501356001600160401b03811115614aae57600080fd5b614aba878288016145fe565b949793965093946060013593505050565b803560ff8116811461471857600080fd5b6000806000806000806000610180888a031215614af857600080fd5b614b0289896146d0565b965060c0880135614b1281614497565b955060e088013594506101008801359350614b306101208901614acb565b92506101408801359150610160880135905092959891949750929550565b600080600080600080600060e0888a031215614b6957600080fd5b8735614b7481614497565b9650602088013595506040880135945060608801359350614b9760808901614704565b925060a0880135915060c0880135905092959891949750929550565b60008060408385031215614bc657600080fd5b50508035926020909101359150565b60008060008060008060008060c0898b031215614bf157600080fd5b883597506020890135614c0381614497565b9650614c1160408a01614acb565b955060608901356001600160401b0380821115614c2d57600080fd5b614c398c838d016144ac565b909750955060808b0135915080821115614c5257600080fd5b50614c5f8b828c016144ac565b999c989b50969995989497949560a00135949350505050565b60008060008060808587031215614c8e57600080fd5b8435614c9981614497565b93506020850135614ca981614497565b92506040850135614cb981614497565b91506060850135614cc981614497565b939692955090935050565b600060208284031215614ce657600080fd5b815161251681614497565b634e487b7160e01b600052601160045260246000fd5b600082821015614d1957614d19614cf1565b500390565b6020808252818101527f4f776e61626c653a2063616c6c6572206973206e6f7420746865206f776e6572604082015260600190565b60208082526010908201526f14185d5cd8589b194e881c185d5cd95960821b604082015260600190565b60008219821115614d9057614d90614cf1565b500190565b60208082526025908201527f5265656e7472616e637947756172643a206e6f207265656e7472616e7420616c6040820152641b1bddd95960da1b606082015260800190565b8183823760009101908152919050565b60208082526028908201527f436f6e747261637420696e7374616e636520697320616c726561647920696e696040820152671d1a585b1a5e995960c21b606082015260800190565b634e487b7160e01b600052603260045260246000fd5b6000823560be19833603018112614e5e57600080fd5b9190910192915050565b600060208284031215614e7a57600080fd5b61251682614acb565b6000808335601e19843603018112614e9a57600080fd5b8301803591506001600160401b03821115614eb457600080fd5b6020019150368190038213156144ed57600080fd5b6000600019821415614edd57614edd614cf1565b5060010190565b60208082526028908201527f506175736572526f6c653a2063616c6c657220646f65736e277420686176652060408201526774686520726f6c6560c01b606082015260800190565b60008251614e5e8184602087016149d5565b6001600160a01b0383168152604060208201819052600090611ecb90830184614a01565b600060208284031215614f7457600080fd5b61251682614704565b600060c08284031215614f8f57600080fd5b60405160c081018181106001600160401b0382111715614fb157614fb16145e8565b6040528235614fbf81614497565b80825250602083013560208201526040830135604082015260608301356060820152614fed60808401614704565b608082015260a083013560a08201528091505092915050565b600181811c9082168061501a57607f821691505b602082108114156146e257634e487b7160e01b600052602260045260246000fd5b634e487b7160e01b600052601260045260246000fd5b6000826150605761506061503b565b500490565b600060ff821660ff84168082101561507f5761507f614cf1565b90039392505050565b600181815b808511156150c35781600019048211156150a9576150a9614cf1565b808516156150b657918102915b93841c939080029061508d565b509250929050565b6000826150da57506001611349565b816150e757506000611349565b81600181146150fd576002811461510757615123565b6001915050611349565b60ff84111561511857615118614cf1565b50506001821b611349565b5060208310610133831016604e8410600b8410161715615146575081810a611349565b6151508383615088565b806000190482111561516457615164614cf1565b029392505050565b600061251660ff8416836150cb565b828152604060208201526000611ecb6040830184614a01565b60a0815260006151a760a0830188614a01565b6001600160a01b0387166020840152604083018690526060830185905282810360808401526151d68185614a01565b98975050505050505050565b81835281816020850137506000828201602090810191909152601f909101601f19169091010190565b60608152600061521f6060830187896151e2565b82810360208401526152328186886151e2565b9150508260408301529695505050505050565b6060815260006152596060830186886151e2565b6020830194909452506040015292915050565b600081600019048311821515161561528657615286614cf1565b500290565b60006020828403121561529d57600080fd5b5051919050565b6000602082840312156152b657600080fd5b8151612516816145bd565b6000826152d0576152d061503b565b500690565b600061251683836150cb56fea2646970667358221220456bf828f7037285dd47e950af5308359b1588813ae7319cc7f8fd70d1c5748c64736f6c63430008090033",
  "devdoc": {
    "kind": "dev",
    "methods": {
      "__Pausable_init(address)": {
        "details": "Initializes the contract in unpaused state. Assigns the Pauser role to the deployer."
      },
      "initialize(address)": {
        "details": "Initializes the contract setting the deployer as the initial owner."
      },
      "isOwner()": {
        "details": "Returns true if the caller is the current owner."
      },
      "owner()": {
        "details": "Returns the address of the current owner."
      },
      "pause()": {
        "details": "Called by a pauser to pause, triggers stopped state."
      },
      "paused()": {
        "details": "Returns true if the contract is paused, and false otherwise."
      },
      "renounceOwnership()": {
        "details": "Leaves the contract without owner. It will not be possible to call `onlyOwner` functions anymore. Can only be called by the current owner. > Note: Renouncing ownership will leave the contract without an owner, thereby removing any functionality that is only available to the owner."
      },
      "tokensReceived(address,address,address,uint256,bytes,bytes)": {
        "params": {
          "userData": "it can be 2 options in the first one you can send the receiver and the chain id of the destination const userData = web3.eth.abi.encodeParameters(   [\"address\", \"uint256\"],   [anAccount.toLowerCase(), chains.ETHEREUM_MAIN_NET_CHAIN_ID] ); or you also can send only the destination chain id, and the receiver would be the same as the from parameter const userData = web3.eth.abi.encodeParameters([\"uint256\"], [chains.ETHEREUM_MAIN_NET_CHAIN_ID]);"
        }
      },
      "transferOwnership(address)": {
        "details": "Transfers ownership of the contract to a new account (`newOwner`). Can only be called by the current owner."
      },
      "unpause()": {
        "details": "Called by a pauser to unpause, returns to normal state."
      }
    },
    "version": 1
  },
  "userdoc": {
    "kind": "user",
    "methods": {
      "acceptTransfer(address,address,address,uint256,bytes32,bytes32,uint32,uint256,uint256)": {
        "notice": "Accepts the transaction from the other chain that was voted and sent by the Federation contract"
      },
      "claim((address,uint256,bytes32,bytes32,uint32,uint256))": {
        "notice": "Claims the crossed transaction using the hash, this sends the funds to the address indicated in"
      },
      "depositTo(uint256,string)": {
        "notice": "Use network currency and cross it."
      },
      "receiveTokensTo(uint256,address,string,uint256)": {
        "notice": "ERC-20 tokens approve and transferFrom pattern See https://eips.ethereum.org/EIPS/eip-20#transferfrom"
      },
      "tokensReceived(address,address,address,uint256,bytes,bytes)": {
        "notice": "ERC-777 tokensReceived hook allows to send tokens to a contract and notify it in a single transaction See https://eips.ethereum.org/EIPS/eip-777#motivation for details"
      }
    },
    "version": 1
  },
  "storageLayout": {
    "storage": [
      {
        "astId": 3686,
        "contract": "contracts/Bridge/Bridge.sol:Bridge",
        "label": "initialized",
        "offset": 0,
        "slot": "0",
        "type": "t_bool"
      },
      {
        "astId": 3689,
        "contract": "contracts/Bridge/Bridge.sol:Bridge",
        "label": "initializing",
        "offset": 1,
        "slot": "0",
        "type": "t_bool"
      },
      {
        "astId": 3729,
        "contract": "contracts/Bridge/Bridge.sol:Bridge",
        "label": "______gap",
        "offset": 0,
        "slot": "1",
        "type": "t_array(t_uint256)50_storage"
      },
      {
        "astId": 3755,
        "contract": "contracts/Bridge/Bridge.sol:Bridge",
        "label": "_pausers",
        "offset": 0,
        "slot": "51",
        "type": "t_struct(Role)2810_storage"
      },
      {
        "astId": 3877,
        "contract": "contracts/Bridge/Bridge.sol:Bridge",
        "label": "_paused",
        "offset": 0,
        "slot": "52",
        "type": "t_bool"
      },
      {
        "astId": 3975,
        "contract": "contracts/Bridge/Bridge.sol:Bridge",
        "label": "_owner",
        "offset": 1,
        "slot": "52",
        "type": "t_address"
      },
      {
        "astId": 4106,
        "contract": "contracts/Bridge/Bridge.sol:Bridge",
        "label": "_guardCounter",
        "offset": 0,
        "slot": "53",
        "type": "t_uint256"
      },
      {
        "astId": 62,
        "contract": "contracts/Bridge/Bridge.sol:Bridge",
        "label": "federation",
        "offset": 0,
        "slot": "54",
        "type": "t_address"
      },
      {
        "astId": 64,
        "contract": "contracts/Bridge/Bridge.sol:Bridge",
        "label": "feePercentage",
        "offset": 0,
        "slot": "55",
        "type": "t_uint256"
      },
      {
        "astId": 66,
        "contract": "contracts/Bridge/Bridge.sol:Bridge",
        "label": "deprecatedSymbolPrefix",
        "offset": 0,
        "slot": "56",
        "type": "t_string_storage"
      },
      {
        "astId": 68,
        "contract": "contracts/Bridge/Bridge.sol:Bridge",
        "label": "domainSeparator",
        "offset": 0,
        "slot": "57",
        "type": "t_bytes32"
      },
      {
        "astId": 70,
        "contract": "contracts/Bridge/Bridge.sol:Bridge",
        "label": "_deprecatedSpentToday",
        "offset": 0,
        "slot": "58",
        "type": "t_uint256"
      },
      {
        "astId": 74,
        "contract": "contracts/Bridge/Bridge.sol:Bridge",
        "label": "deprecatedMappedTokens",
        "offset": 0,
        "slot": "59",
        "type": "t_mapping(t_address,t_address)"
      },
      {
        "astId": 78,
        "contract": "contracts/Bridge/Bridge.sol:Bridge",
        "label": "deprecatedOriginalTokens",
        "offset": 0,
        "slot": "60",
        "type": "t_mapping(t_address,t_address)"
      },
      {
        "astId": 82,
        "contract": "contracts/Bridge/Bridge.sol:Bridge",
        "label": "deprecatedKnownTokens",
        "offset": 0,
        "slot": "61",
        "type": "t_mapping(t_address,t_bool)"
      },
      {
        "astId": 86,
        "contract": "contracts/Bridge/Bridge.sol:Bridge",
        "label": "claimed",
        "offset": 0,
        "slot": "62",
        "type": "t_mapping(t_bytes32,t_bool)"
      },
      {
        "astId": 89,
        "contract": "contracts/Bridge/Bridge.sol:Bridge",
        "label": "allowTokens",
        "offset": 0,
        "slot": "63",
        "type": "t_contract(IAllowTokens)2196"
      },
      {
        "astId": 92,
        "contract": "contracts/Bridge/Bridge.sol:Bridge",
        "label": "sideTokenFactory",
        "offset": 0,
        "slot": "64",
        "type": "t_contract(ISideTokenFactory)2493"
      },
      {
        "astId": 94,
        "contract": "contracts/Bridge/Bridge.sol:Bridge",
        "label": "isUpgrading",
        "offset": 20,
        "slot": "64",
        "type": "t_bool"
      },
      {
        "astId": 105,
        "contract": "contracts/Bridge/Bridge.sol:Bridge",
        "label": "wrappedCurrency",
        "offset": 0,
        "slot": "65",
        "type": "t_contract(IWrapped)2546"
      },
      {
        "astId": 109,
        "contract": "contracts/Bridge/Bridge.sol:Bridge",
        "label": "transactionsDataHashes",
        "offset": 0,
        "slot": "66",
        "type": "t_mapping(t_bytes32,t_bytes32)"
      },
      {
        "astId": 113,
        "contract": "contracts/Bridge/Bridge.sol:Bridge",
        "label": "originalTokenAddresses",
        "offset": 0,
        "slot": "67",
        "type": "t_mapping(t_bytes32,t_address)"
      },
      {
        "astId": 117,
        "contract": "contracts/Bridge/Bridge.sol:Bridge",
        "label": "senderAddresses",
        "offset": 0,
        "slot": "68",
        "type": "t_mapping(t_bytes32,t_address)"
      },
      {
        "astId": 124,
        "contract": "contracts/Bridge/Bridge.sol:Bridge",
        "label": "nonces",
        "offset": 0,
        "slot": "69",
        "type": "t_mapping(t_address,t_uint256)"
      },
      {
        "astId": 130,
        "contract": "contracts/Bridge/Bridge.sol:Bridge",
        "label": "sideTokenByOriginalTokenByChain",
        "offset": 0,
        "slot": "70",
        "type": "t_mapping(t_uint256,t_mapping(t_address,t_address))"
      },
      {
        "astId": 135,
        "contract": "contracts/Bridge/Bridge.sol:Bridge",
        "label": "originalTokenBySideToken",
        "offset": 0,
        "slot": "71",
        "type": "t_mapping(t_address,t_struct(OriginalToken)2217_storage)"
      },
      {
        "astId": 141,
        "contract": "contracts/Bridge/Bridge.sol:Bridge",
        "label": "knownTokenByChain",
        "offset": 0,
        "slot": "72",
        "type": "t_mapping(t_uint256,t_mapping(t_address,t_bool))"
      },
      {
        "astId": 145,
        "contract": "contracts/Bridge/Bridge.sol:Bridge",
        "label": "EvmToHathorTokenMap",
        "offset": 0,
        "slot": "73",
        "type": "t_mapping(t_address,t_string_storage)"
      },
      {
        "astId": 149,
        "contract": "contracts/Bridge/Bridge.sol:Bridge",
        "label": "HathorToEvmTokenMap",
        "offset": 0,
        "slot": "74",
        "type": "t_mapping(t_string_memory_ptr,t_address)"
      }
    ],
    "types": {
      "t_address": {
        "encoding": "inplace",
        "label": "address",
        "numberOfBytes": "20"
      },
      "t_array(t_uint256)50_storage": {
        "base": "t_uint256",
        "encoding": "inplace",
        "label": "uint256[50]",
        "numberOfBytes": "1600"
      },
      "t_bool": {
        "encoding": "inplace",
        "label": "bool",
        "numberOfBytes": "1"
      },
      "t_bytes32": {
        "encoding": "inplace",
        "label": "bytes32",
        "numberOfBytes": "32"
      },
      "t_contract(IAllowTokens)2196": {
        "encoding": "inplace",
        "label": "contract IAllowTokens",
        "numberOfBytes": "20"
      },
      "t_contract(ISideTokenFactory)2493": {
        "encoding": "inplace",
        "label": "contract ISideTokenFactory",
        "numberOfBytes": "20"
      },
      "t_contract(IWrapped)2546": {
        "encoding": "inplace",
        "label": "contract IWrapped",
        "numberOfBytes": "20"
      },
      "t_mapping(t_address,t_address)": {
        "encoding": "mapping",
        "key": "t_address",
        "label": "mapping(address => address)",
        "numberOfBytes": "32",
        "value": "t_address"
      },
      "t_mapping(t_address,t_bool)": {
        "encoding": "mapping",
        "key": "t_address",
        "label": "mapping(address => bool)",
        "numberOfBytes": "32",
        "value": "t_bool"
      },
      "t_mapping(t_address,t_string_storage)": {
        "encoding": "mapping",
        "key": "t_address",
        "label": "mapping(address => string)",
        "numberOfBytes": "32",
        "value": "t_string_storage"
      },
      "t_mapping(t_address,t_struct(OriginalToken)2217_storage)": {
        "encoding": "mapping",
        "key": "t_address",
        "label": "mapping(address => struct IBridge.OriginalToken)",
        "numberOfBytes": "32",
        "value": "t_struct(OriginalToken)2217_storage"
      },
      "t_mapping(t_address,t_uint256)": {
        "encoding": "mapping",
        "key": "t_address",
        "label": "mapping(address => uint256)",
        "numberOfBytes": "32",
        "value": "t_uint256"
      },
      "t_mapping(t_bytes32,t_address)": {
        "encoding": "mapping",
        "key": "t_bytes32",
        "label": "mapping(bytes32 => address)",
        "numberOfBytes": "32",
        "value": "t_address"
      },
      "t_mapping(t_bytes32,t_bool)": {
        "encoding": "mapping",
        "key": "t_bytes32",
        "label": "mapping(bytes32 => bool)",
        "numberOfBytes": "32",
        "value": "t_bool"
      },
      "t_mapping(t_bytes32,t_bytes32)": {
        "encoding": "mapping",
        "key": "t_bytes32",
        "label": "mapping(bytes32 => bytes32)",
        "numberOfBytes": "32",
        "value": "t_bytes32"
      },
      "t_mapping(t_string_memory_ptr,t_address)": {
        "encoding": "mapping",
        "key": "t_string_memory_ptr",
        "label": "mapping(string => address)",
        "numberOfBytes": "32",
        "value": "t_address"
      },
      "t_mapping(t_uint256,t_mapping(t_address,t_address))": {
        "encoding": "mapping",
        "key": "t_uint256",
        "label": "mapping(uint256 => mapping(address => address))",
        "numberOfBytes": "32",
        "value": "t_mapping(t_address,t_address)"
      },
      "t_mapping(t_uint256,t_mapping(t_address,t_bool))": {
        "encoding": "mapping",
        "key": "t_uint256",
        "label": "mapping(uint256 => mapping(address => bool))",
        "numberOfBytes": "32",
        "value": "t_mapping(t_address,t_bool)"
      },
      "t_string_memory_ptr": {
        "encoding": "bytes",
        "label": "string",
        "numberOfBytes": "32"
      },
      "t_string_storage": {
        "encoding": "bytes",
        "label": "string",
        "numberOfBytes": "32"
      },
      "t_struct(OriginalToken)2217_storage": {
        "encoding": "inplace",
        "label": "struct IBridge.OriginalToken",
        "members": [
          {
            "astId": 2214,
            "contract": "contracts/Bridge/Bridge.sol:Bridge",
            "label": "tokenAddress",
            "offset": 0,
            "slot": "0",
            "type": "t_address"
          },
          {
            "astId": 2216,
            "contract": "contracts/Bridge/Bridge.sol:Bridge",
            "label": "originChainId",
            "offset": 0,
            "slot": "1",
            "type": "t_uint256"
          }
        ],
        "numberOfBytes": "64"
      },
      "t_struct(Role)2810_storage": {
        "encoding": "inplace",
        "label": "struct Roles.Role",
        "members": [
          {
            "astId": 2809,
            "contract": "contracts/Bridge/Bridge.sol:Bridge",
            "label": "bearer",
            "offset": 0,
            "slot": "0",
            "type": "t_mapping(t_address,t_bool)"
          }
        ],
        "numberOfBytes": "32"
      },
      "t_uint256": {
        "encoding": "inplace",
        "label": "uint256",
        "numberOfBytes": "32"
      }
    }
  }
}