{
  "address": "0x9B29AE6DA3CA5074a52E8D8374Fa2480787c386C",
  "abi": [
    {
      "anonymous": false,
      "inputs": [
        {
          "indexed": true,
          "internalType": "bytes32",
          "name": "_transactionHash",
          "type": "bytes32"
        },
        {
          "indexed": true,
          "internalType": "address",
          "name": "_originalTokenAddress",
          "type": "address"
        },
        {
          "indexed": true,
          "internalType": "address",
          "name": "_to",
          "type": "address"
        },
        {
          "indexed": false,
          "internalType": "address",
          "name": "_from",
          "type": "address"
        },
        {
          "indexed": false,
          "internalType": "uint256",
          "name": "_amount",
          "type": "uint256"
        },
        {
          "indexed": false,
          "internalType": "bytes32",
          "name": "_blockHash",
          "type": "bytes32"
        },
        {
          "indexed": false,
          "internalType": "uint256",
          "name": "_logIndex",
          "type": "uint256"
        },
        {
          "indexed": false,
          "internalType": "uint256",
          "name": "_originChainId",
          "type": "uint256"
        },
        {
          "indexed": false,
          "internalType": "uint256",
          "name": "_destinationChainId",
          "type": "uint256"
        }
      ],
      "name": "AcceptedCrossTransfer",
      "type": "event"
    },
    {
      "anonymous": false,
      "inputs": [
        {
          "indexed": false,
          "internalType": "address",
          "name": "_newAllowTokens",
          "type": "address"
        }
      ],
      "name": "AllowTokensChanged",
      "type": "event"
    },
    {
      "anonymous": false,
      "inputs": [
        {
          "indexed": true,
          "internalType": "bytes32",
          "name": "_transactionHash",
          "type": "bytes32"
        },
        {
          "indexed": true,
          "internalType": "address",
          "name": "_originalTokenAddress",
          "type": "address"
        },
        {
          "indexed": true,
          "internalType": "address",
          "name": "_to",
          "type": "address"
        },
        {
          "indexed": false,
          "internalType": "address",
          "name": "_sender",
          "type": "address"
        },
        {
          "indexed": false,
          "internalType": "uint256",
          "name": "_amount",
          "type": "uint256"
        },
        {
          "indexed": false,
          "internalType": "bytes32",
          "name": "_blockHash",
          "type": "bytes32"
        },
        {
          "indexed": false,
          "internalType": "uint256",
          "name": "_logIndex",
          "type": "uint256"
        },
        {
          "indexed": false,
          "internalType": "address",
          "name": "_reciever",
          "type": "address"
        },
        {
          "indexed": false,
          "internalType": "address",
          "name": "_relayer",
          "type": "address"
        },
        {
          "indexed": false,
          "internalType": "uint256",
          "name": "_fee",
          "type": "uint256"
        },
        {
          "indexed": false,
          "internalType": "uint256",
          "name": "_destinationChainId",
          "type": "uint256"
        },
        {
          "indexed": false,
          "internalType": "uint256",
          "name": "_originChainId",
          "type": "uint256"
        }
      ],
      "name": "Claimed",
      "type": "event"
    },
    {
      "anonymous": false,
      "inputs": [
        {
          "indexed": true,
          "internalType": "address",
          "name": "_tokenAddress",
          "type": "address"
        },
        {
          "indexed": false,
          "internalType": "string",
          "name": "_to",
          "type": "string"
        },
        {
          "indexed": true,
          "internalType": "uint256",
          "name": "_destinationChainId",
          "type": "uint256"
        },
        {
          "indexed": false,
          "internalType": "address",
          "name": "_from",
          "type": "address"
        },
        {
          "indexed": false,
          "internalType": "uint256",
          "name": "_originChainId",
          "type": "uint256"
        },
        {
          "indexed": false,
          "internalType": "uint256",
          "name": "_amount",
          "type": "uint256"
        },
        {
          "indexed": false,
          "internalType": "bytes",
          "name": "_userData",
          "type": "bytes"
        }
      ],
      "name": "Cross",
      "type": "event"
    },
    {
      "anonymous": false,
      "inputs": [
        {
          "indexed": false,
          "internalType": "address",
          "name": "_newFederation",
          "type": "address"
        }
      ],
      "name": "FederationChanged",
      "type": "event"
    },
    {
      "anonymous": false,
      "inputs": [
        {
          "indexed": false,
          "internalType": "uint256",
          "name": "_amount",
          "type": "uint256"
        }
      ],
      "name": "FeePercentageChanged",
      "type": "event"
    },
    {
      "anonymous": false,
      "inputs": [
        {
          "indexed": true,
          "internalType": "address",
          "name": "_newSideTokenAddress",
          "type": "address"
        },
        {
          "indexed": true,
          "internalType": "address",
          "name": "_originalTokenAddress",
          "type": "address"
        },
        {
          "indexed": false,
          "internalType": "string",
          "name": "_newSymbol",
          "type": "string"
        },
        {
          "indexed": false,
          "internalType": "uint256",
          "name": "_granularity",
          "type": "uint256"
        },
        {
          "indexed": false,
          "internalType": "uint256",
          "name": "_chainId",
          "type": "uint256"
        }
      ],
      "name": "NewSideToken",
      "type": "event"
    },
    {
      "anonymous": false,
      "inputs": [
        {
          "indexed": true,
          "internalType": "address",
          "name": "previousOwner",
          "type": "address"
        },
        {
          "indexed": true,
          "internalType": "address",
          "name": "newOwner",
          "type": "address"
        }
      ],
      "name": "OwnershipTransferred",
      "type": "event"
    },
    {
      "anonymous": false,
      "inputs": [
        {
          "indexed": false,
          "internalType": "address",
          "name": "account",
          "type": "address"
        }
      ],
      "name": "Paused",
      "type": "event"
    },
    {
      "anonymous": false,
      "inputs": [
        {
          "indexed": true,
          "internalType": "address",
          "name": "account",
          "type": "address"
        }
      ],
      "name": "PauserAdded",
      "type": "event"
    },
    {
      "anonymous": false,
      "inputs": [
        {
          "indexed": true,
          "internalType": "address",
          "name": "account",
          "type": "address"
        }
      ],
      "name": "PauserRemoved",
      "type": "event"
    },
    {
      "anonymous": false,
      "inputs": [
        {
          "indexed": false,
          "internalType": "address",
          "name": "_newSideTokenFactory",
          "type": "address"
        }
      ],
      "name": "SideTokenFactoryChanged",
      "type": "event"
    },
    {
      "anonymous": false,
      "inputs": [
        {
          "indexed": false,
          "internalType": "address",
          "name": "account",
          "type": "address"
        }
      ],
      "name": "Unpaused",
      "type": "event"
    },
    {
      "anonymous": false,
      "inputs": [
        {
          "indexed": false,
          "internalType": "bool",
          "name": "_isUpgrading",
          "type": "bool"
        }
      ],
      "name": "Upgrading",
      "type": "event"
    },
    {
      "anonymous": false,
      "inputs": [
        {
          "indexed": false,
          "internalType": "address",
          "name": "_wrappedCurrency",
          "type": "address"
        }
      ],
      "name": "WrappedCurrencyChanged",
      "type": "event"
    },
    {
      "inputs": [],
      "name": "CLAIM_TYPEHASH",
      "outputs": [
        {
          "internalType": "bytes32",
          "name": "",
          "type": "bytes32"
        }
      ],
      "stateMutability": "view",
      "type": "function"
    },
    {
      "inputs": [
        {
          "internalType": "address",
          "name": "sender",
          "type": "address"
        }
      ],
      "name": "__Pausable_init",
      "outputs": [],
      "stateMutability": "nonpayable",
      "type": "function"
    },
    {
      "inputs": [
        {
          "internalType": "address",
          "name": "sender",
          "type": "address"
        }
      ],
      "name": "__PauserRol_init",
      "outputs": [],
      "stateMutability": "nonpayable",
      "type": "function"
    },
    {
      "inputs": [
        {
          "internalType": "address",
          "name": "_originalTokenAddress",
          "type": "address"
        },
        {
          "internalType": "address payable",
          "name": "_from",
          "type": "address"
        },
        {
          "internalType": "address payable",
          "name": "_to",
          "type": "address"
        },
        {
          "internalType": "uint256",
          "name": "_amount",
          "type": "uint256"
        },
        {
          "internalType": "bytes32",
          "name": "_blockHash",
          "type": "bytes32"
        },
        {
          "internalType": "bytes32",
          "name": "_transactionHash",
          "type": "bytes32"
        },
        {
          "internalType": "uint32",
          "name": "_logIndex",
          "type": "uint32"
        },
        {
          "internalType": "uint256",
          "name": "_originChainId",
          "type": "uint256"
        },
        {
          "internalType": "uint256",
          "name": "_destinationChainId",
          "type": "uint256"
        }
      ],
      "name": "acceptTransfer",
      "outputs": [],
      "stateMutability": "nonpayable",
      "type": "function"
    },
    {
      "inputs": [
        {
          "internalType": "address",
          "name": "account",
          "type": "address"
        }
      ],
      "name": "addPauser",
      "outputs": [],
      "stateMutability": "nonpayable",
      "type": "function"
    },
    {
      "inputs": [],
      "name": "allowTokens",
      "outputs": [
        {
          "internalType": "contract IAllowTokens",
          "name": "",
          "type": "address"
        }
      ],
      "stateMutability": "view",
      "type": "function"
    },
    {
      "inputs": [
        {
          "internalType": "address",
          "name": "newAllowTokens",
          "type": "address"
        }
      ],
      "name": "changeAllowTokens",
      "outputs": [],
      "stateMutability": "nonpayable",
      "type": "function"
    },
    {
      "inputs": [
        {
          "internalType": "address",
          "name": "newFederation",
          "type": "address"
        }
      ],
      "name": "changeFederation",
      "outputs": [],
      "stateMutability": "nonpayable",
      "type": "function"
    },
    {
      "inputs": [
        {
          "internalType": "address",
          "name": "newSideTokenFactory",
          "type": "address"
        }
      ],
      "name": "changeSideTokenFactory",
      "outputs": [],
      "stateMutability": "nonpayable",
      "type": "function"
    },
    {
      "inputs": [
        {
          "components": [
            {
              "internalType": "address payable",
              "name": "to",
              "type": "address"
            },
            {
              "internalType": "uint256",
              "name": "amount",
              "type": "uint256"
            },
            {
              "internalType": "bytes32",
              "name": "blockHash",
              "type": "bytes32"
            },
            {
              "internalType": "bytes32",
              "name": "transactionHash",
              "type": "bytes32"
            },
            {
              "internalType": "uint32",
              "name": "logIndex",
              "type": "uint32"
            },
            {
              "internalType": "uint256",
              "name": "originChainId",
              "type": "uint256"
            }
          ],
          "internalType": "struct IBridge.ClaimData",
          "name": "_claimData",
          "type": "tuple"
        }
      ],
      "name": "claim",
      "outputs": [
        {
          "internalType": "uint256",
          "name": "receivedAmount",
          "type": "uint256"
        }
      ],
      "stateMutability": "nonpayable",
      "type": "function"
    },
    {
      "inputs": [
        {
          "components": [
            {
              "internalType": "address payable",
              "name": "to",
              "type": "address"
            },
            {
              "internalType": "uint256",
              "name": "amount",
              "type": "uint256"
            },
            {
              "internalType": "bytes32",
              "name": "blockHash",
              "type": "bytes32"
            },
            {
              "internalType": "bytes32",
              "name": "transactionHash",
              "type": "bytes32"
            },
            {
              "internalType": "uint32",
              "name": "logIndex",
              "type": "uint32"
            },
            {
              "internalType": "uint256",
              "name": "originChainId",
              "type": "uint256"
            }
          ],
          "internalType": "struct IBridge.ClaimData",
          "name": "_claimData",
          "type": "tuple"
        }
      ],
      "name": "claimFallback",
      "outputs": [
        {
          "internalType": "uint256",
          "name": "receivedAmount",
          "type": "uint256"
        }
      ],
      "stateMutability": "nonpayable",
      "type": "function"
    },
    {
      "inputs": [
        {
          "components": [
            {
              "internalType": "address payable",
              "name": "to",
              "type": "address"
            },
            {
              "internalType": "uint256",
              "name": "amount",
              "type": "uint256"
            },
            {
              "internalType": "bytes32",
              "name": "blockHash",
              "type": "bytes32"
            },
            {
              "internalType": "bytes32",
              "name": "transactionHash",
              "type": "bytes32"
            },
            {
              "internalType": "uint32",
              "name": "logIndex",
              "type": "uint32"
            },
            {
              "internalType": "uint256",
              "name": "originChainId",
              "type": "uint256"
            }
          ],
          "internalType": "struct IBridge.ClaimData",
          "name": "_claimData",
          "type": "tuple"
        },
        {
          "internalType": "address payable",
          "name": "_relayer",
          "type": "address"
        },
        {
          "internalType": "uint256",
          "name": "_fee",
          "type": "uint256"
        },
        {
          "internalType": "uint256",
          "name": "_deadline",
          "type": "uint256"
        },
        {
          "internalType": "uint8",
          "name": "_v",
          "type": "uint8"
        },
        {
          "internalType": "bytes32",
          "name": "_r",
          "type": "bytes32"
        },
        {
          "internalType": "bytes32",
          "name": "_s",
          "type": "bytes32"
        }
      ],
      "name": "claimGasless",
      "outputs": [
        {
          "internalType": "uint256",
          "name": "receivedAmount",
          "type": "uint256"
        }
      ],
      "stateMutability": "nonpayable",
      "type": "function"
    },
    {
      "inputs": [
        {
          "internalType": "bytes32",
          "name": "",
          "type": "bytes32"
        }
      ],
      "name": "claimed",
      "outputs": [
        {
          "internalType": "bool",
          "name": "",
          "type": "bool"
        }
      ],
      "stateMutability": "view",
      "type": "function"
    },
    {
      "inputs": [
        {
          "components": [
            {
              "internalType": "uint256",
              "name": "_typeId",
              "type": "uint256"
            },
            {
              "internalType": "address",
              "name": "_originalTokenAddress",
              "type": "address"
            },
            {
              "internalType": "uint8",
              "name": "_originalTokenDecimals",
              "type": "uint8"
            },
            {
              "internalType": "string",
              "name": "_originalTokenSymbol",
              "type": "string"
            },
            {
              "internalType": "string",
              "name": "_originalTokenName",
              "type": "string"
            },
            {
              "internalType": "uint256",
              "name": "_originChainId",
              "type": "uint256"
            }
          ],
          "internalType": "struct IBridge.CreateSideTokenStruct[]",
          "name": "createSideTokenStruct",
          "type": "tuple[]"
        }
      ],
      "name": "createMultipleSideTokens",
      "outputs": [],
      "stateMutability": "nonpayable",
      "type": "function"
    },
    {
      "inputs": [
        {
          "internalType": "uint256",
          "name": "_typeId",
          "type": "uint256"
        },
        {
          "internalType": "address",
          "name": "_originalTokenAddress",
          "type": "address"
        },
        {
          "internalType": "uint8",
          "name": "_originalTokenDecimals",
          "type": "uint8"
        },
        {
          "internalType": "string",
          "name": "_tokenSymbol",
          "type": "string"
        },
        {
          "internalType": "string",
          "name": "_tokenName",
          "type": "string"
        },
        {
          "internalType": "uint256",
          "name": "_originChainId",
          "type": "uint256"
        }
      ],
      "name": "createSideToken",
      "outputs": [],
      "stateMutability": "nonpayable",
      "type": "function"
    },
    {
      "inputs": [
        {
          "internalType": "uint256",
          "name": "chainId",
          "type": "uint256"
        },
        {
          "internalType": "string",
          "name": "hathorTo",
          "type": "string"
        }
      ],
      "name": "depositTo",
      "outputs": [],
      "stateMutability": "payable",
      "type": "function"
    },
    {
      "inputs": [
        {
          "internalType": "address",
          "name": "",
          "type": "address"
        }
      ],
      "name": "deprecatedKnownTokens",
      "outputs": [
        {
          "internalType": "bool",
          "name": "",
          "type": "bool"
        }
      ],
      "stateMutability": "view",
      "type": "function"
    },
    {
      "inputs": [
        {
          "internalType": "address",
          "name": "",
          "type": "address"
        }
      ],
      "name": "deprecatedMappedTokens",
      "outputs": [
        {
          "internalType": "address",
          "name": "",
          "type": "address"
        }
      ],
      "stateMutability": "view",
      "type": "function"
    },
    {
      "inputs": [
        {
          "internalType": "address",
          "name": "",
          "type": "address"
        }
      ],
      "name": "deprecatedOriginalTokens",
      "outputs": [
        {
          "internalType": "address",
          "name": "",
          "type": "address"
        }
      ],
      "stateMutability": "view",
      "type": "function"
    },
    {
      "inputs": [],
      "name": "deprecatedSymbolPrefix",
      "outputs": [
        {
          "internalType": "string",
          "name": "",
          "type": "string"
        }
      ],
      "stateMutability": "view",
      "type": "function"
    },
    {
      "inputs": [],
      "name": "domainSeparator",
      "outputs": [
        {
          "internalType": "bytes32",
          "name": "",
          "type": "bytes32"
        }
      ],
      "stateMutability": "view",
      "type": "function"
    },
    {
      "inputs": [],
      "name": "feePercentageDivider",
      "outputs": [
        {
          "internalType": "uint256",
          "name": "",
          "type": "uint256"
        }
      ],
      "stateMutability": "view",
      "type": "function"
    },
    {
      "inputs": [],
      "name": "getFederation",
      "outputs": [
        {
          "internalType": "address",
          "name": "",
          "type": "address"
        }
      ],
      "stateMutability": "view",
      "type": "function"
    },
    {
      "inputs": [],
      "name": "getFeePercentage",
      "outputs": [
        {
          "internalType": "uint256",
          "name": "",
          "type": "uint256"
        }
      ],
      "stateMutability": "view",
      "type": "function"
    },
    {
      "inputs": [
        {
          "internalType": "address",
          "name": "sideToken",
          "type": "address"
        }
      ],
      "name": "getOriginalTokenBySideToken",
      "outputs": [
        {
          "components": [
            {
              "internalType": "address",
              "name": "tokenAddress",
              "type": "address"
            },
            {
              "internalType": "uint256",
              "name": "originChainId",
              "type": "uint256"
            }
          ],
          "internalType": "struct IBridge.OriginalToken",
          "name": "originalToken",
          "type": "tuple"
        }
      ],
      "stateMutability": "view",
      "type": "function"
    },
    {
      "inputs": [
        {
          "internalType": "address",
          "name": "_to",
          "type": "address"
        },
        {
          "internalType": "uint256",
          "name": "_amount",
          "type": "uint256"
        },
        {
          "internalType": "bytes32",
          "name": "_blockHash",
          "type": "bytes32"
        },
        {
          "internalType": "bytes32",
          "name": "_transactionHash",
          "type": "bytes32"
        },
        {
          "internalType": "uint32",
          "name": "_logIndex",
          "type": "uint32"
        },
        {
          "internalType": "uint256",
          "name": "_originChainId",
          "type": "uint256"
        },
        {
          "internalType": "uint256",
          "name": "_destinationChainId",
          "type": "uint256"
        }
      ],
      "name": "getTransactionDataHash",
      "outputs": [
        {
          "internalType": "bytes32",
          "name": "",
          "type": "bytes32"
        }
      ],
      "stateMutability": "pure",
      "type": "function"
    },
    {
      "inputs": [
        {
          "internalType": "bytes32",
          "name": "transactionHash",
          "type": "bytes32"
        }
      ],
      "name": "hasBeenClaimed",
      "outputs": [
        {
          "internalType": "bool",
          "name": "",
          "type": "bool"
        }
      ],
      "stateMutability": "view",
      "type": "function"
    },
    {
      "inputs": [
        {
          "internalType": "bytes32",
          "name": "transactionHash",
          "type": "bytes32"
        }
      ],
      "name": "hasCrossed",
      "outputs": [
        {
          "internalType": "bool",
          "name": "",
          "type": "bool"
        }
      ],
      "stateMutability": "view",
      "type": "function"
    },
    {
      "inputs": [],
      "name": "initDomainSeparator",
      "outputs": [],
      "stateMutability": "nonpayable",
      "type": "function"
    },
    {
      "inputs": [],
      "name": "initialize",
      "outputs": [],
      "stateMutability": "nonpayable",
      "type": "function"
    },
    {
      "inputs": [
        {
          "internalType": "address",
          "name": "sender",
          "type": "address"
        }
      ],
      "name": "initialize",
      "outputs": [],
      "stateMutability": "nonpayable",
      "type": "function"
    },
    {
      "inputs": [
        {
          "internalType": "address",
          "name": "_manager",
          "type": "address"
        },
        {
          "internalType": "address",
          "name": "_federation",
          "type": "address"
        },
        {
          "internalType": "address",
          "name": "_allowTokens",
          "type": "address"
        },
        {
          "internalType": "address",
          "name": "_sideTokenFactory",
          "type": "address"
        }
      ],
      "name": "initialize",
      "outputs": [],
      "stateMutability": "nonpayable",
      "type": "function"
    },
    {
      "inputs": [
        {
          "components": [
            {
              "internalType": "address payable",
              "name": "to",
              "type": "address"
            },
            {
              "internalType": "uint256",
              "name": "amount",
              "type": "uint256"
            },
            {
              "internalType": "bytes32",
              "name": "blockHash",
              "type": "bytes32"
            },
            {
              "internalType": "bytes32",
              "name": "transactionHash",
              "type": "bytes32"
            },
            {
              "internalType": "uint32",
              "name": "logIndex",
              "type": "uint32"
            },
            {
              "internalType": "uint256",
              "name": "originChainId",
              "type": "uint256"
            }
          ],
          "internalType": "struct IBridge.ClaimData",
          "name": "_claimData",
          "type": "tuple"
        },
        {
          "internalType": "bytes32",
          "name": "transactionDataHashMultichain",
          "type": "bytes32"
        }
      ],
      "name": "isClaimed",
      "outputs": [
        {
          "internalType": "bool",
          "name": "",
          "type": "bool"
        }
      ],
      "stateMutability": "view",
      "type": "function"
    },
    {
      "inputs": [
        {
          "internalType": "bytes32",
          "name": "transactionDataHash",
          "type": "bytes32"
        },
        {
          "internalType": "bytes32",
          "name": "transactionDataHashMultichain",
          "type": "bytes32"
        }
      ],
      "name": "isClaimed",
      "outputs": [
        {
          "internalType": "bool",
          "name": "",
          "type": "bool"
        }
      ],
      "stateMutability": "view",
      "type": "function"
    },
    {
      "inputs": [],
      "name": "isOwner",
      "outputs": [
        {
          "internalType": "bool",
          "name": "",
          "type": "bool"
        }
      ],
      "stateMutability": "view",
      "type": "function"
    },
    {
      "inputs": [
        {
          "internalType": "address",
          "name": "account",
          "type": "address"
        }
      ],
      "name": "isPauser",
      "outputs": [
        {
          "internalType": "bool",
          "name": "",
          "type": "bool"
        }
      ],
      "stateMutability": "view",
      "type": "function"
    },
    {
      "inputs": [],
      "name": "isUpgrading",
      "outputs": [
        {
          "internalType": "bool",
          "name": "",
          "type": "bool"
        }
      ],
      "stateMutability": "view",
      "type": "function"
    },
    {
      "inputs": [
        {
          "internalType": "uint256",
          "name": "chainId",
          "type": "uint256"
        },
        {
          "internalType": "address",
          "name": "originalToken",
          "type": "address"
        }
      ],
      "name": "knownToken",
      "outputs": [
        {
          "internalType": "bool",
          "name": "",
          "type": "bool"
        }
      ],
      "stateMutability": "view",
      "type": "function"
    },
    {
      "inputs": [
        {
          "internalType": "uint256",
          "name": "",
          "type": "uint256"
        },
        {
          "internalType": "address",
          "name": "",
          "type": "address"
        }
      ],
      "name": "knownTokenByChain",
      "outputs": [
        {
          "internalType": "bool",
          "name": "",
          "type": "bool"
        }
      ],
      "stateMutability": "view",
      "type": "function"
    },
    {
      "inputs": [
        {
          "internalType": "address",
          "name": "",
          "type": "address"
        }
      ],
      "name": "nonces",
      "outputs": [
        {
          "internalType": "uint256",
          "name": "",
          "type": "uint256"
        }
      ],
      "stateMutability": "view",
      "type": "function"
    },
    {
      "inputs": [
        {
          "internalType": "bytes32",
          "name": "",
          "type": "bytes32"
        }
      ],
      "name": "originalTokenAddresses",
      "outputs": [
        {
          "internalType": "address",
          "name": "",
          "type": "address"
        }
      ],
      "stateMutability": "view",
      "type": "function"
    },
    {
      "inputs": [
        {
          "internalType": "address",
          "name": "",
          "type": "address"
        }
      ],
      "name": "originalTokenBySideToken",
      "outputs": [
        {
          "internalType": "address",
          "name": "tokenAddress",
          "type": "address"
        },
        {
          "internalType": "uint256",
          "name": "originChainId",
          "type": "uint256"
        }
      ],
      "stateMutability": "view",
      "type": "function"
    },
    {
      "inputs": [],
      "name": "owner",
      "outputs": [
        {
          "internalType": "address",
          "name": "",
          "type": "address"
        }
      ],
      "stateMutability": "view",
      "type": "function"
    },
    {
      "inputs": [],
      "name": "pause",
      "outputs": [],
      "stateMutability": "nonpayable",
      "type": "function"
    },
    {
      "inputs": [],
      "name": "paused",
      "outputs": [
        {
          "internalType": "bool",
          "name": "",
          "type": "bool"
        }
      ],
      "stateMutability": "view",
      "type": "function"
    },
    {
      "inputs": [
        {
          "internalType": "uint256",
          "name": "destinationChainId",
          "type": "uint256"
        },
        {
          "internalType": "address",
          "name": "tokenToUse",
          "type": "address"
        },
        {
          "internalType": "string",
          "name": "hathorTo",
          "type": "string"
        },
        {
          "internalType": "uint256",
          "name": "amount",
          "type": "uint256"
        }
      ],
      "name": "receiveTokensTo",
      "outputs": [],
      "stateMutability": "nonpayable",
      "type": "function"
    },
    {
      "inputs": [],
      "name": "renounceOwnership",
      "outputs": [],
      "stateMutability": "nonpayable",
      "type": "function"
    },
    {
      "inputs": [],
      "name": "renouncePauser",
      "outputs": [],
      "stateMutability": "nonpayable",
      "type": "function"
    },
    {
      "inputs": [
        {
          "internalType": "bytes32",
          "name": "",
          "type": "bytes32"
        }
      ],
      "name": "senderAddresses",
      "outputs": [
        {
          "internalType": "address",
          "name": "",
          "type": "address"
        }
      ],
      "stateMutability": "view",
      "type": "function"
    },
    {
      "inputs": [
        {
          "internalType": "uint256",
          "name": "amount",
          "type": "uint256"
        }
      ],
      "name": "setFeePercentage",
      "outputs": [],
      "stateMutability": "nonpayable",
      "type": "function"
    },
    {
      "inputs": [
        {
          "internalType": "address",
          "name": "sideToken",
          "type": "address"
        },
        {
          "components": [
            {
              "internalType": "address",
              "name": "tokenAddress",
              "type": "address"
            },
            {
              "internalType": "uint256",
              "name": "originChainId",
              "type": "uint256"
            }
          ],
          "internalType": "struct IBridge.OriginalToken",
          "name": "originalToken",
          "type": "tuple"
        }
      ],
      "name": "setOriginalTokenBySideTokenByChain",
      "outputs": [],
      "stateMutability": "nonpayable",
      "type": "function"
    },
    {
      "inputs": [
        {
          "internalType": "uint256",
          "name": "chainId",
          "type": "uint256"
        },
        {
          "internalType": "address",
          "name": "originalToken",
          "type": "address"
        },
        {
          "internalType": "address",
          "name": "sideToken",
          "type": "address"
        }
      ],
      "name": "setSideTokenByOriginalAddressByChain",
      "outputs": [],
      "stateMutability": "nonpayable",
      "type": "function"
    },
    {
      "inputs": [
        {
          "internalType": "bool",
          "name": "_isUpgrading",
          "type": "bool"
        }
      ],
      "name": "setUpgrading",
      "outputs": [],
      "stateMutability": "nonpayable",
      "type": "function"
    },
    {
      "inputs": [
        {
          "internalType": "address",
          "name": "_wrappedCurrency",
          "type": "address"
        }
      ],
      "name": "setWrappedCurrency",
      "outputs": [],
      "stateMutability": "nonpayable",
      "type": "function"
    },
    {
      "inputs": [
        {
          "internalType": "uint256",
          "name": "chainId",
          "type": "uint256"
        },
        {
          "internalType": "address",
          "name": "originalToken",
          "type": "address"
        }
      ],
      "name": "sideTokenByOriginalToken",
      "outputs": [
        {
          "internalType": "address",
          "name": "",
          "type": "address"
        }
      ],
      "stateMutability": "view",
      "type": "function"
    },
    {
      "inputs": [
        {
          "internalType": "uint256",
          "name": "",
          "type": "uint256"
        },
        {
          "internalType": "address",
          "name": "",
          "type": "address"
        }
      ],
      "name": "sideTokenByOriginalTokenByChain",
      "outputs": [
        {
          "internalType": "address",
          "name": "",
          "type": "address"
        }
      ],
      "stateMutability": "view",
      "type": "function"
    },
    {
      "inputs": [],
      "name": "sideTokenFactory",
      "outputs": [
        {
          "internalType": "contract ISideTokenFactory",
          "name": "",
          "type": "address"
        }
      ],
      "stateMutability": "view",
      "type": "function"
    },
    {
      "inputs": [
        {
          "internalType": "address",
          "name": "operator",
          "type": "address"
        },
        {
          "internalType": "address",
          "name": "from",
          "type": "address"
        },
        {
          "internalType": "address",
          "name": "to",
          "type": "address"
        },
        {
          "internalType": "uint256",
          "name": "amount",
          "type": "uint256"
        },
        {
          "internalType": "bytes",
          "name": "userData",
          "type": "bytes"
        },
        {
          "internalType": "bytes",
          "name": "",
          "type": "bytes"
        }
      ],
      "name": "tokensReceived",
      "outputs": [],
      "stateMutability": "nonpayable",
      "type": "function"
    },
    {
      "inputs": [
        {
          "internalType": "bytes32",
          "name": "",
          "type": "bytes32"
        }
      ],
      "name": "transactionsDataHashes",
      "outputs": [
        {
          "internalType": "bytes32",
          "name": "",
          "type": "bytes32"
        }
      ],
      "stateMutability": "view",
      "type": "function"
    },
    {
      "inputs": [
        {
          "internalType": "address",
          "name": "newOwner",
          "type": "address"
        }
      ],
      "name": "transferOwnership",
      "outputs": [],
      "stateMutability": "nonpayable",
      "type": "function"
    },
    {
      "inputs": [],
      "name": "unpause",
      "outputs": [],
      "stateMutability": "nonpayable",
      "type": "function"
    },
    {
      "inputs": [],
      "name": "version",
      "outputs": [
        {
          "internalType": "string",
          "name": "",
          "type": "string"
        }
      ],
      "stateMutability": "pure",
      "type": "function"
    },
    {
      "inputs": [],
      "name": "wrappedCurrency",
      "outputs": [
        {
          "internalType": "contract IWrapped",
          "name": "",
          "type": "address"
        }
      ],
      "stateMutability": "view",
      "type": "function"
    },
    {
      "stateMutability": "payable",
      "type": "receive"
    }
  ],
  "transactionHash": "0x9dd0f2871a9ade3baa764374c38bfa8579a7796c376648348296cea15cdb113a",
  "args": [],
  "numDeployments": 1,
  "solcInputHash": "0ebb33b0cb28a897f046f4b7d6b70011",
  "bytecode": "0x608060405234801561001057600080fd5b50614fac806100206000396000f3fe6080604052600436106103bb5760003560e01c806382a0b8cb116101f2578063b984a4041161010d578063e07801d0116100a0578063f2fde38b1161006f578063f2fde38b14610ce0578063f698da2514610d00578063f8c8765e14610d16578063fa0caa1614610d3657600080fd5b8063e07801d014610c6c578063e6fc774414610c8c578063ea21709114610ca2578063eb16136f14610cc057600080fd5b8063cc3c0f06116100dc578063cc3c0f0614610bd8578063d12e825d14610c08578063d3401a2214610c1d578063da67703714610c3d57600080fd5b8063b984a40414610b1e578063c4d66de814610b62578063ca07140c14610b82578063cbc7328014610bb857600080fd5b8063916dc59d11610185578063b048c4fb11610154578063b048c4fb14610a9d578063b0e1268e14610abd578063b794726214610add578063b86f60d214610afe57600080fd5b8063916dc59d14610a1d578063a53d6e6e14610a3d578063a89f298a14610a5d578063ae06c1b714610a7d57600080fd5b806388710e2e116101c157806388710e2e1461099f5780638ca01082146109bf5780638da5cb5b146109d45780638f32d59b146109f757600080fd5b806382a0b8cb1461091a57806382dc1ec41461094a5780638456cb591461096a578063850ad4591461097f57600080fd5b80633cf3058b116102e2578063615bfd6e116102755780637a0ab28f116102445780637a0ab28f146108435780637a98187b146108795780637ecebe00146108d85780638129fc1c1461090557600080fd5b8063615bfd6e146107c55780636b0509b1146107e55780636ef8d66d14610819578063715018a61461082e57600080fd5b806347f8bbd4116102b157806347f8bbd4146107395780634c7395091461075957806354fd4d50146107795780635c975abb146107ad57600080fd5b80633cf3058b146106ae5780633f4ba83a146106e457806342cdb2c6146106f957806346fbf68e1461071957600080fd5b8063122aa5d41161035a57806337e761091161032957806337e76109146105c25780633a1cbbcb146105ff5780633c3f63f41461064d5780633c7e0cb71461068e57600080fd5b8063122aa5d41461051757806322f89ba4146105375780632f3cca4e146105825780633500c1dc146105a257600080fd5b80630a1d1833116103965780630a1d1833146104af5780630ed928af146104c25780630ef1335c146104e257806311efbf611461050257600080fd5b806223de291461042f578063026976191461044f57806307c8f7b01461048f57600080fd5b3661042a576041546001600160a01b0316336001600160a01b0316146104285760405162461bcd60e51b815260206004820152601b60248201527f4272696467653a206e6f74207772617070656443757272656e6379000000000060448201526064015b60405180910390fd5b005b600080fd5b34801561043b57600080fd5b5061042861044a366004614262565b610d56565b34801561045b57600080fd5b5061047c61046a366004614313565b60426020526000908152604090205481565b6040519081526020015b60405180910390f35b34801561049b57600080fd5b506104286104aa36600461433a565b6110d8565b6104286104bd3660046143fa565b611167565b3480156104ce57600080fd5b5061047c6104dd366004614459565b611261565b3480156104ee57600080fd5b5061047c6104fd366004614459565b611282565b34801561050e57600080fd5b5060375461047c565b34801561052357600080fd5b5061042861053236600461448e565b6112f9565b34801561054357600080fd5b50610572610552366004614519565b604860209081526000928352604080842090915290825290205460ff1681565b6040519015158152602001610486565b34801561058e57600080fd5b5061042861059d366004614549565b611737565b3480156105ae57600080fd5b506104286105bd366004614549565b6117b7565b3480156105ce57600080fd5b506105726105dd366004614313565b6000908152604260209081526040808320548352603e90915290205460ff1690565b34801561060b57600080fd5b5061063561061a366004614549565b603b602052600090815260409020546001600160a01b031681565b6040516001600160a01b039091168152602001610486565b34801561065957600080fd5b50610635610668366004614519565b60466020908152600092835260408084209091529082529020546001600160a01b031681565b34801561069a57600080fd5b506104286106a9366004614566565b611889565b3480156106ba57600080fd5b506106356106c9366004614313565b6044602052600090815260409020546001600160a01b031681565b3480156106f057600080fd5b506104286119fe565b34801561070557600080fd5b50610428610714366004614549565b611ab6565b34801561072557600080fd5b50610572610734366004614549565b611b97565b34801561074557600080fd5b506104286107543660046145db565b611ba4565b34801561076557600080fd5b50610428610774366004614658565b611c15565b34801561078557600080fd5b506040805180820190915260028152611d8d60f21b60208201525b60405161048691906146f2565b3480156107b957600080fd5b5060345460ff16610572565b3480156107d157600080fd5b506105726107e0366004614705565b611c85565b3480156107f157600080fd5b5061047c7faf3ac34fea9cc1b1def33a9bdc482d988feb61b5015ae4a55e2a62bb3600d54c81565b34801561082557600080fd5b50610428611cf2565b34801561083a57600080fd5b50610428611cfd565b34801561084f57600080fd5b5061063561085e366004614549565b603c602052600090815260409020546001600160a01b031681565b34801561088557600080fd5b506108b9610894366004614549565b604760205260009081526040902080546001909101546001600160a01b039091169082565b604080516001600160a01b039093168352602083019190915201610486565b3480156108e457600080fd5b5061047c6108f3366004614549565b60456020526000908152604090205481565b34801561091157600080fd5b50610428611d82565b34801561092657600080fd5b50610572610935366004614549565b603d6020526000908152604090205460ff1681565b34801561095657600080fd5b50610428610965366004614549565b611df3565b34801561097657600080fd5b50610428611e21565b34801561098b57600080fd5b5061042861099a366004614730565b611e9e565b3480156109ab57600080fd5b5061047c6109ba3660046147a2565b611ed8565b3480156109cb57600080fd5b506107a0612053565b3480156109e057600080fd5b5060345461010090046001600160a01b0316610635565b348015610a0357600080fd5b5061057260345461010090046001600160a01b0316331490565b348015610a2957600080fd5b50610428610a38366004614549565b6120e1565b348015610a4957600080fd5b50603f54610635906001600160a01b031681565b348015610a6957600080fd5b5061047c610a78366004614814565b6121ba565b348015610a8957600080fd5b50610428610a98366004614313565b61222c565b348015610aa957600080fd5b50610572610ab8366004614879565b6122f1565b348015610ac957600080fd5b50604154610635906001600160a01b031681565b348015610ae957600080fd5b5060405461057290600160a01b900460ff1681565b348015610b0a57600080fd5b50604054610635906001600160a01b031681565b348015610b2a57600080fd5b50610b3e610b39366004614549565b612323565b6040805182516001600160a01b031681526020928301519281019290925201610486565b348015610b6e57600080fd5b50610428610b7d366004614549565b6123a2565b348015610b8e57600080fd5b50610635610b9d366004614313565b6043602052600090815260409020546001600160a01b031681565b348015610bc457600080fd5b50610428610bd336600461489b565b612464565b348015610be457600080fd5b50610572610bf3366004614313565b603e6020526000908152604090205460ff1681565b348015610c1457600080fd5b506104286124a9565b348015610c2957600080fd5b50610635610c38366004614519565b612550565b348015610c4957600080fd5b50610572610c58366004614313565b600090815260426020526040902054151590565b348015610c7857600080fd5b50610572610c87366004614519565b6125a3565b348015610c9857600080fd5b5061047c61271081565b348015610cae57600080fd5b506036546001600160a01b0316610635565b348015610ccc57600080fd5b50610428610cdb366004614549565b6125f8565b348015610cec57600080fd5b50610428610cfb366004614549565b61267a565b348015610d0c57600080fd5b5061047c60395481565b348015610d2257600080fd5b50610428610d3136600461493f565b6126b8565b348015610d4257600080fd5b50610428610d51366004614549565b61280d565b6001600160a01b038816301415610d6c576110ce565b6001600160a01b0386163014610dc45760405162461bcd60e51b815260206004820152601b60248201527f4272696467653a204e6f7420746f207468697320616464726573730000000000604482015260640161041f565b60003360405163555ddc6560e11b81526001600160a01b03821660048201527fac7fbab5f54a3ca8194167523c6753bfeb96a445279294b6125b68cce21770546024820152909150600090731820a4b7618bde71dce8cdc73aab6c95905fad249063aabbb8ca9060440160206040518083038186803b158015610e4657600080fd5b505afa158015610e5a573d6000803e3d6000fd5b505050506040513d601f19601f82011682018060405250810190610e7e919061499b565b6001600160a01b03161415610ed55760405162461bcd60e51b815260206004820152601860248201527f4272696467653a204e6f742045524337373720746f6b656e0000000000000000604482015260640161041f565b6020841015610f455760405162461bcd60e51b815260206004820152603660248201527f4272696467653a207573657220646174612077697468206174206c65617374206044820152751d1a194819195cdd1a5b985d1a5bdb90da185a5b925960521b606482015260840161041f565b6040841480610f5c57506001600160a01b0388163b155b610fb95760405162461bcd60e51b815260206004820152602860248201527f4272696467653a2053706563696679207265636569766572206164647265737360448201526720696e206461746160c01b606482015260840161041f565b60006020851461100a5761100586868080601f016020809104026020016040519081016040528093929190818152602001838380828437600092019190915250600c92506128e6915050565b61100c565b885b9050600061105c87878080601f0160208091040260200160405190810160405280939291908181526020018383808284376000920191909152506110579250602091508a90506149ce565b612953565b90506000604051806040016040528060098152602001681d5b9919599a5b995960ba1b81525090506110c9848c838c8c8c8080601f0160208091040260200160405190810160405280939291908181526020018383808284376000920191909152508a92506129b9915050565b505050505b5050505050505050565b6110f160345461010090046001600160a01b0316331490565b61110d5760405162461bcd60e51b815260040161041f906149e5565b6040805460ff60a01b1916600160a01b831515810291909117808355915160ff9190920416151581527f983e436223c000a441c2443b394ca5fb4669a513fe86dc1dd44494047b514ad9906020015b60405180910390a150565b60415433906001600160a01b03166111c15760405162461bcd60e51b815260206004820152601d60248201527f4272696467653a207772617070656443757272656e637920656d707479000000604482015260640161041f565b604160009054906101000a90046001600160a01b03166001600160a01b031663d0e30db0346040518263ffffffff1660e01b81526004016000604051808303818588803b15801561121157600080fd5b505af1158015611225573d6000803e3d6000fd5b505050505061125c604160009054906101000a90046001600160a01b031682843460405180602001604052806000815250886129b9565b505050565b600061127c826112746020820182614549565b600080612d69565b92915050565b60608101356000908152604460205260408120546001600160a01b0316336001600160a01b0316146112ef5760405162461bcd60e51b8152602060048201526016602482015275213934b233b29d1034b73b30b634b21039b2b73232b960511b604482015260640161041f565b61127c8233611274565b60345460ff161561131c5760405162461bcd60e51b815260040161041f90614a1a565b60016035600082825461132f9190614a44565b90915550506035546036546001600160a01b0316336001600160a01b0316146113935760405162461bcd60e51b8152602060048201526016602482015275213934b233b29d102737ba102332b232b930ba34b7b760511b604482015260640161041f565b61139c83612f54565b6113a582612f9b565b6113af838b6125a3565b806113cd575060006113c1848c612550565b6001600160a01b031614155b6114115760405162461bcd60e51b8152602060048201526015602482015274213934b233b29d102ab735b737bbb7103a37b5b2b760591b604482015260640161041f565b6001600160a01b0388166114595760405162461bcd60e51b815260206004820152600f60248201526e4272696467653a204e756c6c20546f60881b604482015260640161041f565b6000871161149c5760405162461bcd60e51b815260206004820152601060248201526f04272696467653a20416d6f756e7420360841b604482015260640161041f565b856114e25760405162461bcd60e51b8152602060048201526016602482015275084e4d2c8ceca74409cead8d84084d8dec6d690c2e6d60531b604482015260640161041f565b846115255760405162461bcd60e51b8152602060048201526013602482015272084e4d2c8ceca74409cead8d840a8f090c2e6d606b1b604482015260640161041f565b600085815260426020526040902054156115815760405162461bcd60e51b815260206004820152601860248201527f4272696467653a20416c72656164792061636365707465640000000000000000604482015260640161041f565b60006115908989898989612fea565b905060006115a38a8a8a8a8a8a8a6121ba565b90506115af82826122f1565b156115f65760405162461bcd60e51b8152602060048201526017602482015276109c9a5919d94e88105b1c9958591e4818db185a5b5959604a1b604482015260640161041f565b8060426000898152602001908152602001600020819055508b6043600089815260200190815260200160002060006101000a8154816001600160a01b0302191690836001600160a01b031602179055508a6044600089815260200190815260200160002060006101000a8154816001600160a01b0302191690836001600160a01b03160217905550896001600160a01b03168c6001600160a01b0316887fddae5e892ad96ac0e35e9018a1a3e32ecd7f3dfe55ea34d9ab1e8faecd6ccb5a8e8d8d8c8c8c604051611700969594939291906001600160a01b039690961686526020860194909452604085019290925263ffffffff166060840152608083015260a082015260c00190565b60405180910390a45050603554811461172b5760405162461bcd60e51b815260040161041f90614a5c565b50505050505050505050565b600054610100900460ff1680611750575060005460ff16155b61176c5760405162461bcd60e51b815260040161041f90614aa1565b600054610100900460ff1615801561178e576000805461ffff19166101011790555b611797826125f8565b6034805460ff1916905580156117b3576000805461ff00191690555b5050565b6117d060345461010090046001600160a01b0316331490565b6117ec5760405162461bcd60e51b815260040161041f906149e5565b6001600160a01b03811661183b5760405162461bcd60e51b81526020600482015260166024820152754272696467653a20777261707020697320656d70747960501b604482015260640161041f565b604180546001600160a01b0319166001600160a01b0383169081179091556040519081527f0966c958966f6fac9ff807af074f8117eb2e9ce2b76390db7a158e9bdeb2485c9060200161115c565b6118a260345461010090046001600160a01b0316331490565b6118be5760405162461bcd60e51b815260040161041f906149e5565b60005b8181101561125c576119ec8383838181106118de576118de614ae9565b90506020028101906118f09190614aff565b3584848481811061190357611903614ae9565b90506020028101906119159190614aff565b611926906040810190602001614549565b85858581811061193857611938614ae9565b905060200281019061194a9190614aff565b61195b906060810190604001614b1f565b86868681811061196d5761196d614ae9565b905060200281019061197f9190614aff565b61198d906060810190614b3a565b88888881811061199f5761199f614ae9565b90506020028101906119b19190614aff565b6119bf906080810190614b3a565b8a8a8a8181106119d1576119d1614ae9565b90506020028101906119e39190614aff565b60a00135613055565b806119f681614b81565b9150506118c1565b611a0733611b97565b611a235760405162461bcd60e51b815260040161041f90614b9c565b60345460ff16611a6c5760405162461bcd60e51b815260206004820152601460248201527314185d5cd8589b194e881b9bdd081c185d5cd95960621b604482015260640161041f565b6034805460ff191690557f5db9ee0a495bf2e6ff9c91a7834c1ba4fdd244a5e8aa4e537bd38aeae4b073aa335b6040516001600160a01b03909116815260200160405180910390a1565b611acf60345461010090046001600160a01b0316331490565b611aeb5760405162461bcd60e51b815260040161041f906149e5565b6001600160a01b038116611b4b5760405162461bcd60e51b815260206004820152602160248201527f4272696467653a2053696465546f6b656e466163746f727920697320656d70746044820152607960f81b606482015260840161041f565b604080546001600160a01b0319166001600160a01b038316908117825590519081527f619936bc6e3618d0b8dc69bcc70134fe9d88f9967f3a8b8304e31836925216259060200161115c565b600061127c603383613295565b611bbd60345461010090046001600160a01b0316331490565b611bd95760405162461bcd60e51b815260040161041f906149e5565b6001600160a01b039182166000908152604760209081526040909120825181546001600160a01b03191694169390931783550151600190910155565b611c2e60345461010090046001600160a01b0316331490565b611c4a5760405162461bcd60e51b815260040161041f906149e5565b60009283526046602090815260408085206001600160a01b0394851686529091529092208054919092166001600160a01b0319909116179055565b600080611cbc611c986020860186614549565b602086013560408701356060880135611cb760a08a0160808b01614be4565b612fea565b6000818152603e602052604090205490915060ff1680611cea57506000838152603e602052604090205460ff165b949350505050565b611cfb33613318565b565b611d1660345461010090046001600160a01b0316331490565b611d325760405162461bcd60e51b815260040161041f906149e5565b60345460405160009161010090046001600160a01b0316907f8be0079c531659141344cd1fd0a4f28419497f9722a3daafe3b4186f6b6457e0908390a360348054610100600160a81b0319169055565b600054610100900460ff1680611d9b575060005460ff16155b611db75760405162461bcd60e51b815260040161041f90614aa1565b600054610100900460ff16158015611dd9576000805461ffff19166101011790555b60016035558015611df0576000805461ff00191690555b50565b611dfc33611b97565b611e185760405162461bcd60e51b815260040161041f90614b9c565b611df08161335a565b611e2a33611b97565b611e465760405162461bcd60e51b815260040161041f90614b9c565b60345460ff1615611e695760405162461bcd60e51b815260040161041f90614a1a565b6034805460ff191660011790557f62e78cea01bee320cd4e420270b5ea74000d11b0c9f74754ebdbfc544b05a258611a993390565b33611eb46001600160a01b03851682308561339c565b611ed184828585604051806020016040528060008152508a6129b9565b5050505050565b600042851015611f1c5760405162461bcd60e51b815260206004820152600f60248201526e109c9a5919d94e8811561412549151608a1b604482015260640161041f565b6000611f38611f30368b90038b018b614bff565b89898961340d565b6040805160008082526020820180845284905260ff89169282019290925260608101879052608081018690529192509060019060a0016020604051602081039080840390855afa158015611f90573d6000803e3d6000fd5b5050604051601f190151915060009050611fad60208c018c614549565b6001600160a01b031614158015611fe15750611fcc60208b018b614549565b6001600160a01b0316816001600160a01b0316145b61202d5760405162461bcd60e51b815260206004820152601960248201527f4272696467653a20494e56414c49445f5349474e415455524500000000000000604482015260640161041f565b6120458a61203e6020820182614549565b8b8b612d69565b9a9950505050505050505050565b6038805461206090614c89565b80601f016020809104026020016040519081016040528092919081815260200182805461208c90614c89565b80156120d95780601f106120ae576101008083540402835291602001916120d9565b820191906000526020600020905b8154815290600101906020018083116120bc57829003601f168201915b505050505081565b6120fa60345461010090046001600160a01b0316331490565b6121165760405162461bcd60e51b815260040161041f906149e5565b6001600160a01b03811661216c5760405162461bcd60e51b815260206004820152601c60248201527f4272696467653a20416c6c6f77546f6b656e7320697320656d70747900000000604482015260640161041f565b603f80546001600160a01b0319166001600160a01b0383169081179091556040519081527f5f2c1fe803fd576d8af05ea156011cc9cc8c025bda24c1e85772fc05a0b3f1e39060200161115c565b6040805160208082019790975280820195909552606097881b6bffffffffffffffffffffffff191697850197909752607484019590955260e09190911b6001600160e01b0319166094830152609882015260b8808201939093528351808203909301835260d801909252805191012090565b61224560345461010090046001600160a01b0316331490565b6122615760405162461bcd60e51b815260040161041f906149e5565b61226e600a612710614cd4565b81106122bc5760405162461bcd60e51b815260206004820152601760248201527f4272696467653a20626967676572207468616e20313025000000000000000000604482015260640161041f565b60378190556040518181527f97e97c577f03bda90e2c9739011ec065ed5fbfb36ae217d20bb0d9be95e160cd9060200161115c565b6000828152603e602052604081205460ff168061231c57506000828152603e602052604090205460ff165b9392505050565b604080518082018252600080825260209182018190526001600160a01b038481168252604783529083902083518085019094528054909116808452600190910154918301919091521561237557919050565b60016020808301919091526001600160a01b039283166000908152603c9091526040902054909116815290565b600054610100900460ff16806123bb575060005460ff16155b6123d75760405162461bcd60e51b815260040161041f90614aa1565b600054610100900460ff161580156123f9576000805461ffff19166101011790555b60348054610100600160a81b0319166101006001600160a01b0385811682029290921792839055604051920416906000907f8be0079c531659141344cd1fd0a4f28419497f9722a3daafe3b4186f6b6457e0908290a380156117b3576000805461ff00191690555050565b61247d60345461010090046001600160a01b0316331490565b6124995760405162461bcd60e51b815260040161041f906149e5565b6110ce8888888888888888613055565b604080518082018252601081526f52534b20546f6b656e2042726964676560801b60208083019182528351808501855260018152603160f81b908201529151902082517f8b73c3c69bb8fe3d512ecc4cf759cc79239f7b179b0ffacaa9a75d522b39400f8152918201527fc89efdaa54c0f20c7adf612882df0950f5a951637e0307cdcb4c672f298b8bc69181019190915246606082015230608082015260a09020603955565b60008281526046602090815260408083206001600160a01b038086168552925282205416801561258157905061127c565b50506001600160a01b039081166000908152603b602052604090205416919050565b60008281526048602090815260408083206001600160a01b038516845290915281205460ff1680156125d657905061127c565b50506001600160a01b03166000908152603d602052604090205460ff16919050565b600054610100900460ff1680612611575060005460ff16155b61262d5760405162461bcd60e51b815260040161041f90614aa1565b600054610100900460ff1615801561264f576000805461ffff19166101011790555b61265882611b97565b612665576126658261335a565b80156117b3576000805461ff00191690555050565b61269360345461010090046001600160a01b0316331490565b6126af5760405162461bcd60e51b815260040161041f906149e5565b611df081613511565b600054610100900460ff16806126d1575060005460ff16155b6126ed5760405162461bcd60e51b815260040161041f90614aa1565b600054610100900460ff1615801561270f576000805461ffff19166101011790555b612718856123a2565b61272185611737565b603f80546001600160a01b038581166001600160a01b031992831617909255604080548584169083161781556036805493881693909216929092179055516329965a1d60e01b815230600482018190527fb281fc8c12954d22544db45de3159a39272895b169a852b314f9cc762e44c53b60248301526044820152731820a4b7618bde71dce8cdc73aab6c95905fad24906329965a1d90606401600060405180830381600087803b1580156127d557600080fd5b505af11580156127e9573d6000803e3d6000fd5b505050506127f56124a9565b8015611ed1576000805461ff00191690555050505050565b61282660345461010090046001600160a01b0316331490565b6128425760405162461bcd60e51b815260040161041f906149e5565b6001600160a01b0381166128985760405162461bcd60e51b815260206004820152601b60248201527f4272696467653a2046656465726174696f6e20697320656d7074790000000000604482015260640161041f565b603680546001600160a01b0319166001600160a01b0383169081179091556040519081527f4a41a4d11aaf0c0c9e4311ac1d68b2b0134556da594779a2a35b0ddf7cd1eafb9060200161115c565b60006128f3826014614a44565b835110156129435760405162461bcd60e51b815260206004820152601f60248201527f4c69625574696c733a20746f416464726573735f6f75744f66426f756e647300604482015260640161041f565b500160200151600160601b900490565b6000612960826020614a44565b835110156129b05760405162461bcd60e51b815260206004820152601f60248201527f4c69625574696c733a20746f55696e743235365f6f75744f66426f756e647300604482015260640161041f565b50016020015190565b604054600160a01b900460ff1615612a075760405162461bcd60e51b81526020600482015260116024820152704272696467653a20557067726164696e6760781b604482015260640161041f565b60345460ff1615612a2a5760405162461bcd60e51b815260040161041f90614a1a565b600160356000828254612a3d9190614a44565b909155505060355446821415612ab15760405162461bcd60e51b815260206004820152603360248201527f4272696467653a2064657374696e6174696f6e20636861696e20696420657175604482015272185b0818dd5c9c995b9d0818da185a5b881a59606a1b606482015260840161041f565b612aba82612f54565b60008281526048602090815260408083206001600160a01b038b1684529091529020805460ff191660011790556000612b0a612710612b04603754886135d990919063ffffffff16565b90613658565b90506000612b18868361369a565b90506000612b258a6136dc565b905086601260ff831614612b5657612b53612b41836012614ce8565b612b4c90600a614def565b89906135d9565b90505b603f54604051638c34bc5560e01b81526001600160a01b038d811660048301526024820184905290911690638c34bc5590604401600060405180830381600087803b158015612ba457600080fd5b505af1158015612bb8573d6000803e3d6000fd5b505050506000612bc78c612323565b80519091506001600160a01b031615612cc3576000612be58d6137c0565b90506000612bf38683613898565b9050612bff87826138da565b9650612c0b868261369a565b60405163fe9d930360e01b81529096506001600160a01b038f169063fe9d930390612c3c9089908e90600401614dfe565b600060405180830381600087803b158015612c5657600080fd5b505af1158015612c6a573d6000803e3d6000fd5b5050505050508681600001516001600160a01b03167ff79d8745c9a7b4a879eece08f2ec5bdd6f85ec822d09df9e03b171b12192d5938c8e46898e604051612cb6959493929190614e17565b60405180910390a3612d0e565b868c6001600160a01b03167ff79d8745c9a7b4a879eece08f2ec5bdd6f85ec822d09df9e03b171b12192d5938c8e46898e604051612d05959493929190614e17565b60405180910390a35b8415612d3a57603454612d3a9061010090046001600160a01b03166001600160a01b038e169087613939565b50505050506035548114612d605760405162461bcd60e51b815260040161041f90614a5c565b50505050505050565b6000600160356000828254612d7e9190614a44565b909155505060355460608601356000908152604360205260409020546001600160a01b031680612de95760405162461bcd60e51b8152602060048201526016602482015275109c9a5919d94e88151e081b9bdd0818dc9bdcdcd95960521b604482015260640161041f565b6000612e25612dfb60208a018a614549565b60208a013560408b013560608c0135612e1a60a08e0160808f01614be4565b8d60a00135466121ba565b60608901356000908152604260205260409020549091508114612e945760405162461bcd60e51b815260206004820152602160248201527f4272696467653a2057726f6e67207472616e73616374696f6e446174614861736044820152600d60fb1b606482015260840161041f565b612e9e8882611c85565b15612ee55760405162461bcd60e51b8152602060048201526017602482015276109c9a5919d94e88105b1c9958591e4818db185a5b5959604a1b604482015260640161041f565b6000818152603e60209081526040909120805460ff19166001179055612f199060a08a01359084908a908c01358a8a613969565b9350612f2888838989896139ba565b50506035548114612f4b5760405162461bcd60e51b815260040161041f90614a5c565b50949350505050565b60008111611df05760405162461bcd60e51b815260206004820152601460248201527304272696467653a20436861696e496420697320360641b604482015260640161041f565b468114611df05760405162461bcd60e51b815260206004820152601960248201527f4272696467653a204e6f7420626c6f636b2e636861696e696400000000000000604482015260640161041f565b6040805160208101859052908101839052606086811b6bffffffffffffffffffffffff1916908201526074810185905260e082901b6001600160e01b031916609482015260009060980160405160208183030381529060405280519060200120905095945050505050565b6001600160a01b0387166130a05760405162461bcd60e51b8152602060048201526012602482015271213934b233b29d10273ab636103a37b5b2b760711b604482015260640161041f565b6130a981612f54565b60006130b58289612550565b90506001600160a01b038116156131075760405162461bcd60e51b81526020600482015260166024820152754272696467653a20416c72656164792065786973747360501b604482015260640161041f565b600061311288613a95565b6040805490516326d9e96360e01b81529192506001600160a01b0316906326d9e9639061314b90889088908c908c908890600401614e8e565b602060405180830381600087803b15801561316557600080fd5b505af1158015613179573d6000803e3d6000fd5b505050506040513d601f19601f8201168201806040525081019061319d919061499b565b91506131aa838a84611c15565b60408051808201909152602081018490526001600160a01b038a1681526131d18382611ba4565b603f546040516378bf2b5360e01b81526001600160a01b038581166004830152602482018e9052909116906378bf2b5390604401600060405180830381600087803b15801561321f57600080fd5b505af1158015613233573d6000803e3d6000fd5b50505050896001600160a01b0316836001600160a01b03167f88dcf8b72e53287db29df3fee9a0f2cb07d1f986cee153aa7d7554405d5db0178a8a86896040516132809493929190614ec8565b60405180910390a35050505050505050505050565b60006001600160a01b0382166132f85760405162461bcd60e51b815260206004820152602260248201527f526f6c65733a206163636f756e7420697320746865207a65726f206164647265604482015261737360f01b606482015260840161041f565b506001600160a01b03166000908152602091909152604090205460ff1690565b613323603382613b01565b6040516001600160a01b038216907fcd265ebaf09df2871cc7bd4133404a235ba12eff2041bb89d9c714a2621c7c7e90600090a250565b613365603382613b79565b6040516001600160a01b038216907f6719d08c1888103bea251a4ed56406bd0c3e69723c8a1686e017e7bbe159b6f890600090a250565b6040516001600160a01b03808516602483015283166044820152606481018290526134079085906323b872dd60e01b906084015b60408051601f198184030181529190526020810180516001600160e01b03166001600160e01b031990931692909217909152613bf5565b50505050565b6039548451602080870151606088015160a08901516001600160a01b0385166000908152604590945260408420805494966135089690957faf3ac34fea9cc1b1def33a9bdc482d988feb61b5015ae4a55e2a62bb3600d54c959194919391928c918c918b61347a83614b81565b909155506040805160208101999099526001600160a01b03978816908901526060880195909552608087019390935260a086019190915290921660c084015260e08301919091526101008201526101208101859052610140016040516020818303038152906040528051906020012060405161190160f01b8152600281019290925260228201526042902090565b95945050505050565b6001600160a01b0381166135725760405162461bcd60e51b815260206004820152602260248201527f4f776e61626c653a206e6577206f776e6572206973207a65726f206164647265604482015261737360f01b606482015260840161041f565b6034546040516001600160a01b0380841692610100900416907f8be0079c531659141344cd1fd0a4f28419497f9722a3daafe3b4186f6b6457e090600090a3603480546001600160a01b0390921661010002610100600160a81b0319909216919091179055565b6000826135e85750600061127c565b60006135f48385614eef565b9050826136018583614cd4565b1461231c5760405162461bcd60e51b815260206004820152602160248201527f536166654d6174683a206d756c7469706c69636174696f6e206f766572666c6f6044820152607760f81b606482015260840161041f565b600061231c83836040518060400160405280601a81526020017f536166654d6174683a206469766973696f6e206279207a65726f000000000000815250613d75565b600061231c83836040518060400160405280601e81526020017f536166654d6174683a207375627472616374696f6e206f766572666c6f770000815250613da3565b60408051600481526024810182526020810180516001600160e01b031663313ce56760e01b1790529051600091829182916001600160a01b038616916137229190614f0e565b600060405180830381855afa9150503d806000811461375d576040519150601f19603f3d011682016040523d82523d6000602084013e613762565b606091505b5091509150816137ac5760405162461bcd60e51b81526020600482015260156024820152744c69625574696c733a204e6f20646563696d616c7360581b604482015260640161041f565b80806020019051810190611cea9190614f20565b60408051600481526024810182526020810180516001600160e01b031663556f0dc760e01b1790529051600091829182916001600160a01b038616916138069190614f0e565b600060405180830381855afa9150503d8060008114613841576040519150601f19603f3d011682016040523d82523d6000602084013e613846565b606091505b5091509150816137ac5760405162461bcd60e51b815260206004820152601860248201527f4c69625574696c733a204e6f206772616e756c61726974790000000000000000604482015260640161041f565b600061231c83836040518060400160405280601881526020017f536166654d6174683a206d6f64756c6f206279207a65726f0000000000000000815250613dd4565b6000806138e78385614a44565b90508381101561231c5760405162461bcd60e51b815260206004820152601b60248201527f536166654d6174683a206164646974696f6e206f766572666c6f770000000000604482015260640161041f565b6040516001600160a01b03831660248201526044810182905261125c90849063a9059cbb60e01b906064016133d0565b600061397487612f54565b61397e87876125a3565b15613997576139908686868686613e00565b90506139b0565b6139ad6139a48888612550565b86868686613fb0565b90505b9695505050505050565b6139c76020860186614549565b6060860135600081815260446020908152604091829020546001600160a01b039485169489811694937fa7a84dcc6757cdf9b9122d3bbc42d58358c28dc4b09cc24349599a63c56c62fd9392909116918b0135908b0135613a2e60a08d0160808e01614be4565b604080516001600160a01b039586168152602081019490945283019190915263ffffffff166060820152818916608082015290871660a08281019190915260c082018790528a013560e0820152466101008201526101200160405180910390a45050505050565b600060128260ff161115613aeb5760405162461bcd60e51b815260206004820152601c60248201527f4c69625574696c733a20446563696d616c73206e6f74203c3d20313800000000604482015260640161041f565b613af6826012614ce8565b61127c90600a614def565b613b0b8282613295565b613b575760405162461bcd60e51b815260206004820181905260248201527f526f6c65733a206163636f756e7420646f65736e2774206861766520726f6c65604482015260640161041f565b6001600160a01b0316600090815260209190915260409020805460ff19169055565b613b838282613295565b15613bd05760405162461bcd60e51b815260206004820152601f60248201527f526f6c65733a206163636f756e7420616c72656164792068617320726f6c6500604482015260640161041f565b6001600160a01b0316600090815260209190915260409020805460ff19166001179055565b6001600160a01b0382163b613c4c5760405162461bcd60e51b815260206004820152601f60248201527f5361666545524332303a2063616c6c20746f206e6f6e2d636f6e747261637400604482015260640161041f565b600080836001600160a01b031683604051613c679190614f0e565b6000604051808303816000865af19150503d8060008114613ca4576040519150601f19603f3d011682016040523d82523d6000602084013e613ca9565b606091505b509150915081613cfb5760405162461bcd60e51b815260206004820181905260248201527f5361666545524332303a206c6f772d6c6576656c2063616c6c206661696c6564604482015260640161041f565b8051156134075780806020019051810190613d169190614f39565b6134075760405162461bcd60e51b815260206004820152602a60248201527f5361666545524332303a204552433230206f7065726174696f6e20646964206e6044820152691bdd081cdd58d8d9595960b21b606482015260840161041f565b60008183613d965760405162461bcd60e51b815260040161041f91906146f2565b5060006135088486614cd4565b60008184841115613dc75760405162461bcd60e51b815260040161041f91906146f2565b50600061350884866149ce565b60008183613df55760405162461bcd60e51b815260040161041f91906146f2565b50611cea8385614f56565b600080613e0c876136dc565b60ff1690506000613e33613e218360126149ce565b613e2c90600a614f6a565b8790613658565b905080841115613e7c5760405162461bcd60e51b8152602060048201526014602482015273084e4d2c8ceca7440cccaca40e8dede40d0d2ced60631b604482015260640161041f565b613e86818561369a565b6041549093506001600160a01b0389811691161415613f7757604154604051632e1a7d4d60e01b8152600481018390526001600160a01b0390911690632e1a7d4d90602401600060405180830381600087803b158015613ee557600080fd5b505af1158015613ef9573d6000803e3d6000fd5b50506040516001600160a01b038a16925085156108fc02915085906000818181858888f19350505050158015613f33573d6000803e3d6000fd5b508315613f72576040516001600160a01b0386169085156108fc029086906000818181858888f19350505050158015613f70573d6000803e3d6000fd5b505b613fa5565b613f8b6001600160a01b0389168885613939565b8315613fa557613fa56001600160a01b0389168686613939565b505095945050505050565b60006001600160a01b0386166140085760405162461bcd60e51b815260206004820152601a60248201527f4272696467653a207369646520746f6b656e206973206e756c6c000000000000604482015260640161041f565b6000866001600160a01b031663556f0dc76040518163ffffffff1660e01b815260040160206040518083038186803b15801561404357600080fd5b505afa158015614057573d6000803e3d6000fd5b505050506040513d601f19601f8201168201806040525081019061407b9190614f20565b9050600061408986836135d9565b9050808411156140d25760405162461bcd60e51b8152602060048201526014602482015273084e4d2c8ceca7440cccaca40e8dede40d0d2ced60631b604482015260640161041f565b6140dc818561369a565b604051630dcdc7dd60e41b81526001600160a01b038981166004830152602482018390526080604483015260006084830181905260a0606484015260a48301529194509089169063dcdc7dd09060c401600060405180830381600087803b15801561414657600080fd5b505af115801561415a573d6000803e3d6000fd5b505050506000841115613fa557604051630dcdc7dd60e41b81526001600160a01b03868116600483015260248201869052608060448301526000608483015260a06064830152600b60a48301526a72656c617965722066656560a81b60c483015289169063dcdc7dd09060e401600060405180830381600087803b1580156141e157600080fd5b505af11580156141f5573d6000803e3d6000fd5b50505050505095945050505050565b6001600160a01b0381168114611df057600080fd5b60008083601f84011261422b57600080fd5b50813567ffffffffffffffff81111561424357600080fd5b60208301915083602082850101111561425b57600080fd5b9250929050565b60008060008060008060008060c0898b03121561427e57600080fd5b883561428981614204565b9750602089013561429981614204565b965060408901356142a981614204565b955060608901359450608089013567ffffffffffffffff808211156142cd57600080fd5b6142d98c838d01614219565b909650945060a08b01359150808211156142f257600080fd5b506142ff8b828c01614219565b999c989b5096995094979396929594505050565b60006020828403121561432557600080fd5b5035919050565b8015158114611df057600080fd5b60006020828403121561434c57600080fd5b813561231c8161432c565b634e487b7160e01b600052604160045260246000fd5b600082601f83011261437e57600080fd5b813567ffffffffffffffff8082111561439957614399614357565b604051601f8301601f19908116603f011681019082821181831017156143c1576143c1614357565b816040528381528660208588010111156143da57600080fd5b836020870160208301376000602085830101528094505050505092915050565b6000806040838503121561440d57600080fd5b82359150602083013567ffffffffffffffff81111561442b57600080fd5b6144378582860161436d565b9150509250929050565b600060c0828403121561445357600080fd5b50919050565b600060c0828403121561446b57600080fd5b61231c8383614441565b803563ffffffff8116811461448957600080fd5b919050565b60008060008060008060008060006101208a8c0312156144ad57600080fd5b89356144b881614204565b985060208a01356144c881614204565b975060408a01356144d881614204565b965060608a0135955060808a0135945060a08a013593506144fb60c08b01614475565b925060e08a013591506101008a013590509295985092959850929598565b6000806040838503121561452c57600080fd5b82359150602083013561453e81614204565b809150509250929050565b60006020828403121561455b57600080fd5b813561231c81614204565b6000806020838503121561457957600080fd5b823567ffffffffffffffff8082111561459157600080fd5b818501915085601f8301126145a557600080fd5b8135818111156145b457600080fd5b8660208260051b85010111156145c957600080fd5b60209290920196919550909350505050565b60008082840360608112156145ef57600080fd5b83356145fa81614204565b92506040601f198201121561460e57600080fd5b506040516040810181811067ffffffffffffffff8211171561463257614632614357565b604052602084013561464381614204565b81526040939093013560208401525092909150565b60008060006060848603121561466d57600080fd5b83359250602084013561467f81614204565b9150604084013561468f81614204565b809150509250925092565b60005b838110156146b557818101518382015260200161469d565b838111156134075750506000910152565b600081518084526146de81602086016020860161469a565b601f01601f19169290920160200192915050565b60208152600061231c60208301846146c6565b60008060e0838503121561471857600080fd5b6147228484614441565b9460c0939093013593505050565b6000806000806080858703121561474657600080fd5b84359350602085013561475881614204565b9250604085013567ffffffffffffffff81111561477457600080fd5b6147808782880161436d565b949793965093946060013593505050565b803560ff8116811461448957600080fd5b6000806000806000806000610180888a0312156147be57600080fd5b6147c88989614441565b965060c08801356147d881614204565b955060e0880135945061010088013593506147f66101208901614791565b92506101408801359150610160880135905092959891949750929550565b600080600080600080600060e0888a03121561482f57600080fd5b873561483a81614204565b965060208801359550604088013594506060880135935061485d60808901614475565b925060a0880135915060c0880135905092959891949750929550565b6000806040838503121561488c57600080fd5b50508035926020909101359150565b60008060008060008060008060c0898b0312156148b757600080fd5b8835975060208901356148c981614204565b96506148d760408a01614791565b9550606089013567ffffffffffffffff808211156148f457600080fd5b6149008c838d01614219565b909750955060808b013591508082111561491957600080fd5b506149268b828c01614219565b999c989b50969995989497949560a00135949350505050565b6000806000806080858703121561495557600080fd5b843561496081614204565b9350602085013561497081614204565b9250604085013561498081614204565b9150606085013561499081614204565b939692955090935050565b6000602082840312156149ad57600080fd5b815161231c81614204565b634e487b7160e01b600052601160045260246000fd5b6000828210156149e0576149e06149b8565b500390565b6020808252818101527f4f776e61626c653a2063616c6c6572206973206e6f7420746865206f776e6572604082015260600190565b60208082526010908201526f14185d5cd8589b194e881c185d5cd95960821b604082015260600190565b60008219821115614a5757614a576149b8565b500190565b60208082526025908201527f5265656e7472616e637947756172643a206e6f207265656e7472616e7420616c6040820152641b1bddd95960da1b606082015260800190565b60208082526028908201527f436f6e747261637420696e7374616e636520697320616c726561647920696e696040820152671d1a585b1a5e995960c21b606082015260800190565b634e487b7160e01b600052603260045260246000fd5b6000823560be19833603018112614b1557600080fd5b9190910192915050565b600060208284031215614b3157600080fd5b61231c82614791565b6000808335601e19843603018112614b5157600080fd5b83018035915067ffffffffffffffff821115614b6c57600080fd5b60200191503681900382131561425b57600080fd5b6000600019821415614b9557614b956149b8565b5060010190565b60208082526028908201527f506175736572526f6c653a2063616c6c657220646f65736e277420686176652060408201526774686520726f6c6560c01b606082015260800190565b600060208284031215614bf657600080fd5b61231c82614475565b600060c08284031215614c1157600080fd5b60405160c0810181811067ffffffffffffffff82111715614c3457614c34614357565b6040528235614c4281614204565b80825250602083013560208201526040830135604082015260608301356060820152614c7060808401614475565b608082015260a083013560a08201528091505092915050565b600181811c90821680614c9d57607f821691505b6020821081141561445357634e487b7160e01b600052602260045260246000fd5b634e487b7160e01b600052601260045260246000fd5b600082614ce357614ce3614cbe565b500490565b600060ff821660ff841680821015614d0257614d026149b8565b90039392505050565b600181815b80851115614d46578160001904821115614d2c57614d2c6149b8565b80851615614d3957918102915b93841c9390800290614d10565b509250929050565b600082614d5d5750600161127c565b81614d6a5750600061127c565b8160018114614d805760028114614d8a57614da6565b600191505061127c565b60ff841115614d9b57614d9b6149b8565b50506001821b61127c565b5060208310610133831016604e8410600b8410161715614dc9575081810a61127c565b614dd38383614d0b565b8060001904821115614de757614de76149b8565b029392505050565b600061231c60ff841683614d4e565b828152604060208201526000611cea60408301846146c6565b60a081526000614e2a60a08301886146c6565b6001600160a01b038716602084015260408301869052606083018590528281036080840152614e5981856146c6565b98975050505050505050565b81835281816020850137506000828201602090810191909152601f909101601f19169091010190565b606081526000614ea2606083018789614e65565b8281036020840152614eb5818688614e65565b9150508260408301529695505050505050565b606081526000614edc606083018688614e65565b6020830194909452506040015292915050565b6000816000190483118215151615614f0957614f096149b8565b500290565b60008251614b1581846020870161469a565b600060208284031215614f3257600080fd5b5051919050565b600060208284031215614f4b57600080fd5b815161231c8161432c565b600082614f6557614f65614cbe565b500690565b600061231c8383614d4e56fea26469706673582212204b4f4218cd6c26127f806828db3a11ac3f8dcb49d087f21d5435f6a38cd4fca164736f6c63430008090033",
  "devdoc": {
    "kind": "dev",
    "methods": {
      "__Pausable_init(address)": {
        "details": "Initializes the contract in unpaused state. Assigns the Pauser role to the deployer."
      },
      "initialize(address)": {
        "details": "Initializes the contract setting the deployer as the initial owner."
      },
      "isOwner()": {
        "details": "Returns true if the caller is the current owner."
      },
      "owner()": {
        "details": "Returns the address of the current owner."
      },
      "pause()": {
        "details": "Called by a pauser to pause, triggers stopped state."
      },
      "paused()": {
        "details": "Returns true if the contract is paused, and false otherwise."
      },
      "renounceOwnership()": {
        "details": "Leaves the contract without owner. It will not be possible to call `onlyOwner` functions anymore. Can only be called by the current owner. > Note: Renouncing ownership will leave the contract without an owner, thereby removing any functionality that is only available to the owner."
      },
      "tokensReceived(address,address,address,uint256,bytes,bytes)": {
        "params": {
          "userData": "it can be 2 options in the first one you can send the receiver and the chain id of the destination const userData = web3.eth.abi.encodeParameters(   [\"address\", \"uint256\"],   [anAccount.toLowerCase(), chains.ETHEREUM_MAIN_NET_CHAIN_ID] ); or you also can send only the destination chain id, and the receiver would be the same as the from parameter const userData = web3.eth.abi.encodeParameters([\"uint256\"], [chains.ETHEREUM_MAIN_NET_CHAIN_ID]);"
        }
      },
      "transferOwnership(address)": {
        "details": "Transfers ownership of the contract to a new account (`newOwner`). Can only be called by the current owner."
      },
      "unpause()": {
        "details": "Called by a pauser to unpause, returns to normal state."
      }
    },
    "version": 1
  },
  "userdoc": {
    "kind": "user",
    "methods": {
      "acceptTransfer(address,address,address,uint256,bytes32,bytes32,uint32,uint256,uint256)": {
        "notice": "Accepts the transaction from the other chain that was voted and sent by the Federation contract"
      },
      "claim((address,uint256,bytes32,bytes32,uint32,uint256))": {
        "notice": "Claims the crossed transaction using the hash, this sends the funds to the address indicated in"
      },
      "depositTo(uint256,string)": {
        "notice": "Use network currency and cross it."
      },
      "receiveTokensTo(uint256,address,string,uint256)": {
        "notice": "ERC-20 tokens approve and transferFrom pattern See https://eips.ethereum.org/EIPS/eip-20#transferfrom"
      },
      "tokensReceived(address,address,address,uint256,bytes,bytes)": {
        "notice": "ERC-777 tokensReceived hook allows to send tokens to a contract and notify it in a single transaction See https://eips.ethereum.org/EIPS/eip-777#motivation for details"
      }
    },
    "version": 1
  },
  "storageLayout": {
    "storage": [
      {
        "astId": 4753,
        "contract": "contracts/Bridge/Bridge.sol:Bridge",
        "label": "initialized",
        "offset": 0,
        "slot": "0",
        "type": "t_bool"
      },
      {
        "astId": 4756,
        "contract": "contracts/Bridge/Bridge.sol:Bridge",
        "label": "initializing",
        "offset": 1,
        "slot": "0",
        "type": "t_bool"
      },
      {
        "astId": 4796,
        "contract": "contracts/Bridge/Bridge.sol:Bridge",
        "label": "______gap",
        "offset": 0,
        "slot": "1",
        "type": "t_array(t_uint256)50_storage"
      },
      {
        "astId": 4822,
        "contract": "contracts/Bridge/Bridge.sol:Bridge",
        "label": "_pausers",
        "offset": 0,
        "slot": "51",
        "type": "t_struct(Role)3877_storage"
      },
      {
        "astId": 4944,
        "contract": "contracts/Bridge/Bridge.sol:Bridge",
        "label": "_paused",
        "offset": 0,
        "slot": "52",
        "type": "t_bool"
      },
      {
        "astId": 5042,
        "contract": "contracts/Bridge/Bridge.sol:Bridge",
        "label": "_owner",
        "offset": 1,
        "slot": "52",
        "type": "t_address"
      },
      {
        "astId": 5173,
        "contract": "contracts/Bridge/Bridge.sol:Bridge",
        "label": "_guardCounter",
        "offset": 0,
        "slot": "53",
        "type": "t_uint256"
      },
      {
        "astId": 62,
        "contract": "contracts/Bridge/Bridge.sol:Bridge",
        "label": "federation",
        "offset": 0,
        "slot": "54",
        "type": "t_address"
      },
      {
        "astId": 64,
        "contract": "contracts/Bridge/Bridge.sol:Bridge",
        "label": "feePercentage",
        "offset": 0,
        "slot": "55",
        "type": "t_uint256"
      },
      {
        "astId": 66,
        "contract": "contracts/Bridge/Bridge.sol:Bridge",
        "label": "deprecatedSymbolPrefix",
        "offset": 0,
        "slot": "56",
        "type": "t_string_storage"
      },
      {
        "astId": 68,
        "contract": "contracts/Bridge/Bridge.sol:Bridge",
        "label": "domainSeparator",
        "offset": 0,
        "slot": "57",
        "type": "t_bytes32"
      },
      {
        "astId": 70,
        "contract": "contracts/Bridge/Bridge.sol:Bridge",
        "label": "_deprecatedSpentToday",
        "offset": 0,
        "slot": "58",
        "type": "t_uint256"
      },
      {
        "astId": 74,
        "contract": "contracts/Bridge/Bridge.sol:Bridge",
        "label": "deprecatedMappedTokens",
        "offset": 0,
        "slot": "59",
        "type": "t_mapping(t_address,t_address)"
      },
      {
        "astId": 78,
        "contract": "contracts/Bridge/Bridge.sol:Bridge",
        "label": "deprecatedOriginalTokens",
        "offset": 0,
        "slot": "60",
        "type": "t_mapping(t_address,t_address)"
      },
      {
        "astId": 82,
        "contract": "contracts/Bridge/Bridge.sol:Bridge",
        "label": "deprecatedKnownTokens",
        "offset": 0,
        "slot": "61",
        "type": "t_mapping(t_address,t_bool)"
      },
      {
        "astId": 86,
        "contract": "contracts/Bridge/Bridge.sol:Bridge",
        "label": "claimed",
        "offset": 0,
        "slot": "62",
        "type": "t_mapping(t_bytes32,t_bool)"
      },
      {
        "astId": 89,
        "contract": "contracts/Bridge/Bridge.sol:Bridge",
        "label": "allowTokens",
        "offset": 0,
        "slot": "63",
        "type": "t_contract(IAllowTokens)2994"
      },
      {
        "astId": 92,
        "contract": "contracts/Bridge/Bridge.sol:Bridge",
        "label": "sideTokenFactory",
        "offset": 0,
        "slot": "64",
        "type": "t_contract(ISideTokenFactory)3452"
      },
      {
        "astId": 94,
        "contract": "contracts/Bridge/Bridge.sol:Bridge",
        "label": "isUpgrading",
        "offset": 20,
        "slot": "64",
        "type": "t_bool"
      },
      {
        "astId": 105,
        "contract": "contracts/Bridge/Bridge.sol:Bridge",
        "label": "wrappedCurrency",
        "offset": 0,
        "slot": "65",
        "type": "t_contract(IWrapped)3505"
      },
      {
        "astId": 109,
        "contract": "contracts/Bridge/Bridge.sol:Bridge",
        "label": "transactionsDataHashes",
        "offset": 0,
        "slot": "66",
        "type": "t_mapping(t_bytes32,t_bytes32)"
      },
      {
        "astId": 113,
        "contract": "contracts/Bridge/Bridge.sol:Bridge",
        "label": "originalTokenAddresses",
        "offset": 0,
        "slot": "67",
        "type": "t_mapping(t_bytes32,t_address)"
      },
      {
        "astId": 117,
        "contract": "contracts/Bridge/Bridge.sol:Bridge",
        "label": "senderAddresses",
        "offset": 0,
        "slot": "68",
        "type": "t_mapping(t_bytes32,t_address)"
      },
      {
        "astId": 124,
        "contract": "contracts/Bridge/Bridge.sol:Bridge",
        "label": "nonces",
        "offset": 0,
        "slot": "69",
        "type": "t_mapping(t_address,t_uint256)"
      },
      {
        "astId": 130,
        "contract": "contracts/Bridge/Bridge.sol:Bridge",
        "label": "sideTokenByOriginalTokenByChain",
        "offset": 0,
        "slot": "70",
        "type": "t_mapping(t_uint256,t_mapping(t_address,t_address))"
      },
      {
        "astId": 135,
        "contract": "contracts/Bridge/Bridge.sol:Bridge",
        "label": "originalTokenBySideToken",
        "offset": 0,
        "slot": "71",
        "type": "t_mapping(t_address,t_struct(OriginalToken)3015_storage)"
      },
      {
        "astId": 141,
        "contract": "contracts/Bridge/Bridge.sol:Bridge",
        "label": "knownTokenByChain",
        "offset": 0,
        "slot": "72",
        "type": "t_mapping(t_uint256,t_mapping(t_address,t_bool))"
      }
    ],
    "types": {
      "t_address": {
        "encoding": "inplace",
        "label": "address",
        "numberOfBytes": "20"
      },
      "t_array(t_uint256)50_storage": {
        "base": "t_uint256",
        "encoding": "inplace",
        "label": "uint256[50]",
        "numberOfBytes": "1600"
      },
      "t_bool": {
        "encoding": "inplace",
        "label": "bool",
        "numberOfBytes": "1"
      },
      "t_bytes32": {
        "encoding": "inplace",
        "label": "bytes32",
        "numberOfBytes": "32"
      },
      "t_contract(IAllowTokens)2994": {
        "encoding": "inplace",
        "label": "contract IAllowTokens",
        "numberOfBytes": "20"
      },
      "t_contract(ISideTokenFactory)3452": {
        "encoding": "inplace",
        "label": "contract ISideTokenFactory",
        "numberOfBytes": "20"
      },
      "t_contract(IWrapped)3505": {
        "encoding": "inplace",
        "label": "contract IWrapped",
        "numberOfBytes": "20"
      },
      "t_mapping(t_address,t_address)": {
        "encoding": "mapping",
        "key": "t_address",
        "label": "mapping(address => address)",
        "numberOfBytes": "32",
        "value": "t_address"
      },
      "t_mapping(t_address,t_bool)": {
        "encoding": "mapping",
        "key": "t_address",
        "label": "mapping(address => bool)",
        "numberOfBytes": "32",
        "value": "t_bool"
      },
      "t_mapping(t_address,t_struct(OriginalToken)3015_storage)": {
        "encoding": "mapping",
        "key": "t_address",
        "label": "mapping(address => struct IBridge.OriginalToken)",
        "numberOfBytes": "32",
        "value": "t_struct(OriginalToken)3015_storage"
      },
      "t_mapping(t_address,t_uint256)": {
        "encoding": "mapping",
        "key": "t_address",
        "label": "mapping(address => uint256)",
        "numberOfBytes": "32",
        "value": "t_uint256"
      },
      "t_mapping(t_bytes32,t_address)": {
        "encoding": "mapping",
        "key": "t_bytes32",
        "label": "mapping(bytes32 => address)",
        "numberOfBytes": "32",
        "value": "t_address"
      },
      "t_mapping(t_bytes32,t_bool)": {
        "encoding": "mapping",
        "key": "t_bytes32",
        "label": "mapping(bytes32 => bool)",
        "numberOfBytes": "32",
        "value": "t_bool"
      },
      "t_mapping(t_bytes32,t_bytes32)": {
        "encoding": "mapping",
        "key": "t_bytes32",
        "label": "mapping(bytes32 => bytes32)",
        "numberOfBytes": "32",
        "value": "t_bytes32"
      },
      "t_mapping(t_uint256,t_mapping(t_address,t_address))": {
        "encoding": "mapping",
        "key": "t_uint256",
        "label": "mapping(uint256 => mapping(address => address))",
        "numberOfBytes": "32",
        "value": "t_mapping(t_address,t_address)"
      },
      "t_mapping(t_uint256,t_mapping(t_address,t_bool))": {
        "encoding": "mapping",
        "key": "t_uint256",
        "label": "mapping(uint256 => mapping(address => bool))",
        "numberOfBytes": "32",
        "value": "t_mapping(t_address,t_bool)"
      },
      "t_string_storage": {
        "encoding": "bytes",
        "label": "string",
        "numberOfBytes": "32"
      },
      "t_struct(OriginalToken)3015_storage": {
        "encoding": "inplace",
        "label": "struct IBridge.OriginalToken",
        "members": [
          {
            "astId": 3012,
            "contract": "contracts/Bridge/Bridge.sol:Bridge",
            "label": "tokenAddress",
            "offset": 0,
            "slot": "0",
            "type": "t_address"
          },
          {
            "astId": 3014,
            "contract": "contracts/Bridge/Bridge.sol:Bridge",
            "label": "originChainId",
            "offset": 0,
            "slot": "1",
            "type": "t_uint256"
          }
        ],
        "numberOfBytes": "64"
      },
      "t_struct(Role)3877_storage": {
        "encoding": "inplace",
        "label": "struct Roles.Role",
        "members": [
          {
            "astId": 3876,
            "contract": "contracts/Bridge/Bridge.sol:Bridge",
            "label": "bearer",
            "offset": 0,
            "slot": "0",
            "type": "t_mapping(t_address,t_bool)"
          }
        ],
        "numberOfBytes": "32"
      },
      "t_uint256": {
        "encoding": "inplace",
        "label": "uint256",
        "numberOfBytes": "32"
      }
    }
  }
}