{
  "address": "0xE7243f2AAd38A7BBA0F6f288dd15Ce253372aabd",
  "abi": [
    {
      "anonymous": false,
      "inputs": [
        {
          "indexed": true,
          "internalType": "bytes32",
          "name": "_transactionHash",
          "type": "bytes32"
        },
        {
          "indexed": true,
          "internalType": "address",
          "name": "_originalTokenAddress",
          "type": "address"
        },
        {
          "indexed": true,
          "internalType": "address",
          "name": "_to",
          "type": "address"
        },
        {
          "indexed": false,
          "internalType": "address",
          "name": "_from",
          "type": "address"
        },
        {
          "indexed": false,
          "internalType": "uint256",
          "name": "_amount",
          "type": "uint256"
        },
        {
          "indexed": false,
          "internalType": "bytes32",
          "name": "_blockHash",
          "type": "bytes32"
        },
        {
          "indexed": false,
          "internalType": "uint256",
          "name": "_logIndex",
          "type": "uint256"
        },
        {
          "indexed": false,
          "internalType": "uint256",
          "name": "_originChainId",
          "type": "uint256"
        },
        {
          "indexed": false,
          "internalType": "uint256",
          "name": "_destinationChainId",
          "type": "uint256"
        }
      ],
      "name": "AcceptedCrossTransfer",
      "type": "event"
    },
    {
      "anonymous": false,
      "inputs": [
        {
          "indexed": false,
          "internalType": "address",
          "name": "_newAllowTokens",
          "type": "address"
        }
      ],
      "name": "AllowTokensChanged",
      "type": "event"
    },
    {
      "anonymous": false,
      "inputs": [
        {
          "indexed": true,
          "internalType": "bytes32",
          "name": "_transactionHash",
          "type": "bytes32"
        },
        {
          "indexed": true,
          "internalType": "address",
          "name": "_originalTokenAddress",
          "type": "address"
        },
        {
          "indexed": true,
          "internalType": "address",
          "name": "_to",
          "type": "address"
        },
        {
          "indexed": false,
          "internalType": "address",
          "name": "_sender",
          "type": "address"
        },
        {
          "indexed": false,
          "internalType": "uint256",
          "name": "_amount",
          "type": "uint256"
        },
        {
          "indexed": false,
          "internalType": "bytes32",
          "name": "_blockHash",
          "type": "bytes32"
        },
        {
          "indexed": false,
          "internalType": "uint256",
          "name": "_logIndex",
          "type": "uint256"
        },
        {
          "indexed": false,
          "internalType": "address",
          "name": "_reciever",
          "type": "address"
        },
        {
          "indexed": false,
          "internalType": "address",
          "name": "_relayer",
          "type": "address"
        },
        {
          "indexed": false,
          "internalType": "uint256",
          "name": "_fee",
          "type": "uint256"
        },
        {
          "indexed": false,
          "internalType": "uint256",
          "name": "_destinationChainId",
          "type": "uint256"
        },
        {
          "indexed": false,
          "internalType": "uint256",
          "name": "_originChainId",
          "type": "uint256"
        }
      ],
      "name": "Claimed",
      "type": "event"
    },
    {
      "anonymous": false,
      "inputs": [
        {
          "indexed": true,
          "internalType": "address",
          "name": "_tokenAddress",
          "type": "address"
        },
        {
          "indexed": false,
          "internalType": "string",
          "name": "_to",
          "type": "string"
        },
        {
          "indexed": true,
          "internalType": "uint256",
          "name": "_destinationChainId",
          "type": "uint256"
        },
        {
          "indexed": false,
          "internalType": "address",
          "name": "_from",
          "type": "address"
        },
        {
          "indexed": false,
          "internalType": "uint256",
          "name": "_originChainId",
          "type": "uint256"
        },
        {
          "indexed": false,
          "internalType": "uint256",
          "name": "_amount",
          "type": "uint256"
        },
        {
          "indexed": false,
          "internalType": "bytes",
          "name": "_userData",
          "type": "bytes"
        }
      ],
      "name": "Cross",
      "type": "event"
    },
    {
      "anonymous": false,
      "inputs": [
        {
          "indexed": false,
          "internalType": "address",
          "name": "_newFederation",
          "type": "address"
        }
      ],
      "name": "FederationChanged",
      "type": "event"
    },
    {
      "anonymous": false,
      "inputs": [
        {
          "indexed": false,
          "internalType": "uint256",
          "name": "_amount",
          "type": "uint256"
        }
      ],
      "name": "FeePercentageChanged",
      "type": "event"
    },
    {
      "anonymous": false,
      "inputs": [
        {
          "indexed": false,
          "internalType": "address",
          "name": "token",
          "type": "address"
        },
        {
          "indexed": false,
          "internalType": "string",
          "name": "uid",
          "type": "string"
        }
      ],
      "name": "HathorTokenMapped",
      "type": "event"
    },
    {
      "anonymous": false,
      "inputs": [
        {
          "indexed": true,
          "internalType": "address",
          "name": "_newSideTokenAddress",
          "type": "address"
        },
        {
          "indexed": true,
          "internalType": "address",
          "name": "_originalTokenAddress",
          "type": "address"
        },
        {
          "indexed": false,
          "internalType": "string",
          "name": "_newSymbol",
          "type": "string"
        },
        {
          "indexed": false,
          "internalType": "uint256",
          "name": "_granularity",
          "type": "uint256"
        },
        {
          "indexed": false,
          "internalType": "uint256",
          "name": "_chainId",
          "type": "uint256"
        }
      ],
      "name": "NewSideToken",
      "type": "event"
    },
    {
      "anonymous": false,
      "inputs": [
        {
          "indexed": true,
          "internalType": "address",
          "name": "previousOwner",
          "type": "address"
        },
        {
          "indexed": true,
          "internalType": "address",
          "name": "newOwner",
          "type": "address"
        }
      ],
      "name": "OwnershipTransferred",
      "type": "event"
    },
    {
      "anonymous": false,
      "inputs": [
        {
          "indexed": false,
          "internalType": "address",
          "name": "account",
          "type": "address"
        }
      ],
      "name": "Paused",
      "type": "event"
    },
    {
      "anonymous": false,
      "inputs": [
        {
          "indexed": true,
          "internalType": "address",
          "name": "account",
          "type": "address"
        }
      ],
      "name": "PauserAdded",
      "type": "event"
    },
    {
      "anonymous": false,
      "inputs": [
        {
          "indexed": true,
          "internalType": "address",
          "name": "account",
          "type": "address"
        }
      ],
      "name": "PauserRemoved",
      "type": "event"
    },
    {
      "anonymous": false,
      "inputs": [
        {
          "indexed": false,
          "internalType": "address",
          "name": "_newSideTokenFactory",
          "type": "address"
        }
      ],
      "name": "SideTokenFactoryChanged",
      "type": "event"
    },
    {
      "anonymous": false,
      "inputs": [
        {
          "indexed": false,
          "internalType": "uint256",
          "name": "chainId",
          "type": "uint256"
        },
        {
          "indexed": false,
          "internalType": "address",
          "name": "originalToken",
          "type": "address"
        },
        {
          "indexed": false,
          "internalType": "address",
          "name": "sideToken",
          "type": "address"
        }
      ],
      "name": "SideTokenMapped",
      "type": "event"
    },
    {
      "anonymous": false,
      "inputs": [
        {
          "indexed": false,
          "internalType": "address",
          "name": "account",
          "type": "address"
        }
      ],
      "name": "Unpaused",
      "type": "event"
    },
    {
      "anonymous": false,
      "inputs": [
        {
          "indexed": false,
          "internalType": "bool",
          "name": "_isUpgrading",
          "type": "bool"
        }
      ],
      "name": "Upgrading",
      "type": "event"
    },
    {
      "anonymous": false,
      "inputs": [
        {
          "indexed": false,
          "internalType": "address",
          "name": "_wrappedCurrency",
          "type": "address"
        }
      ],
      "name": "WrappedCurrencyChanged",
      "type": "event"
    },
    {
      "inputs": [],
      "name": "CLAIM_TYPEHASH",
      "outputs": [
        {
          "internalType": "bytes32",
          "name": "",
          "type": "bytes32"
        }
      ],
      "stateMutability": "view",
      "type": "function"
    },
    {
      "inputs": [
        {
          "internalType": "address",
          "name": "",
          "type": "address"
        }
      ],
      "name": "EvmToHathorTokenMap",
      "outputs": [
        {
          "internalType": "string",
          "name": "",
          "type": "string"
        }
      ],
      "stateMutability": "view",
      "type": "function"
    },
    {
      "inputs": [
        {
          "internalType": "string",
          "name": "",
          "type": "string"
        }
      ],
      "name": "HathorToEvmTokenMap",
      "outputs": [
        {
          "internalType": "address",
          "name": "tokenAddress",
          "type": "address"
        },
        {
          "internalType": "uint256",
          "name": "originChainId",
          "type": "uint256"
        }
      ],
      "stateMutability": "view",
      "type": "function"
    },
    {
      "inputs": [
        {
          "internalType": "address",
          "name": "sender",
          "type": "address"
        }
      ],
      "name": "__Pausable_init",
      "outputs": [],
      "stateMutability": "nonpayable",
      "type": "function"
    },
    {
      "inputs": [
        {
          "internalType": "address",
          "name": "sender",
          "type": "address"
        }
      ],
      "name": "__PauserRol_init",
      "outputs": [],
      "stateMutability": "nonpayable",
      "type": "function"
    },
    {
      "inputs": [
        {
          "internalType": "address",
          "name": "_originalTokenAddress",
          "type": "address"
        },
        {
          "internalType": "address payable",
          "name": "_from",
          "type": "address"
        },
        {
          "internalType": "address payable",
          "name": "_to",
          "type": "address"
        },
        {
          "internalType": "uint256",
          "name": "_amount",
          "type": "uint256"
        },
        {
          "internalType": "bytes32",
          "name": "_blockHash",
          "type": "bytes32"
        },
        {
          "internalType": "bytes32",
          "name": "_transactionHash",
          "type": "bytes32"
        },
        {
          "internalType": "uint32",
          "name": "_logIndex",
          "type": "uint32"
        },
        {
          "internalType": "uint256",
          "name": "_originChainId",
          "type": "uint256"
        },
        {
          "internalType": "uint256",
          "name": "_destinationChainId",
          "type": "uint256"
        }
      ],
      "name": "acceptTransfer",
      "outputs": [],
      "stateMutability": "nonpayable",
      "type": "function"
    },
    {
      "inputs": [
        {
          "internalType": "uint256",
          "name": "originalChainId",
          "type": "uint256"
        },
        {
          "internalType": "address",
          "name": "token",
          "type": "address"
        },
        {
          "internalType": "string",
          "name": "uid",
          "type": "string"
        }
      ],
      "name": "addHathorToken",
      "outputs": [],
      "stateMutability": "nonpayable",
      "type": "function"
    },
    {
      "inputs": [
        {
          "internalType": "address",
          "name": "account",
          "type": "address"
        }
      ],
      "name": "addPauser",
      "outputs": [],
      "stateMutability": "nonpayable",
      "type": "function"
    },
    {
      "inputs": [],
      "name": "allowTokens",
      "outputs": [
        {
          "internalType": "contract IAllowTokens",
          "name": "",
          "type": "address"
        }
      ],
      "stateMutability": "view",
      "type": "function"
    },
    {
      "inputs": [
        {
          "internalType": "address",
          "name": "newAllowTokens",
          "type": "address"
        }
      ],
      "name": "changeAllowTokens",
      "outputs": [],
      "stateMutability": "nonpayable",
      "type": "function"
    },
    {
      "inputs": [
        {
          "internalType": "address",
          "name": "newFederation",
          "type": "address"
        }
      ],
      "name": "changeFederation",
      "outputs": [],
      "stateMutability": "nonpayable",
      "type": "function"
    },
    {
      "inputs": [
        {
          "internalType": "address",
          "name": "newSideTokenFactory",
          "type": "address"
        }
      ],
      "name": "changeSideTokenFactory",
      "outputs": [],
      "stateMutability": "nonpayable",
      "type": "function"
    },
    {
      "inputs": [
        {
          "components": [
            {
              "internalType": "address payable",
              "name": "to",
              "type": "address"
            },
            {
              "internalType": "uint256",
              "name": "amount",
              "type": "uint256"
            },
            {
              "internalType": "bytes32",
              "name": "blockHash",
              "type": "bytes32"
            },
            {
              "internalType": "bytes32",
              "name": "transactionHash",
              "type": "bytes32"
            },
            {
              "internalType": "uint32",
              "name": "logIndex",
              "type": "uint32"
            },
            {
              "internalType": "uint256",
              "name": "originChainId",
              "type": "uint256"
            }
          ],
          "internalType": "struct IBridge.ClaimData",
          "name": "_claimData",
          "type": "tuple"
        }
      ],
      "name": "claim",
      "outputs": [
        {
          "internalType": "uint256",
          "name": "receivedAmount",
          "type": "uint256"
        }
      ],
      "stateMutability": "nonpayable",
      "type": "function"
    },
    {
      "inputs": [
        {
          "components": [
            {
              "internalType": "address payable",
              "name": "to",
              "type": "address"
            },
            {
              "internalType": "uint256",
              "name": "amount",
              "type": "uint256"
            },
            {
              "internalType": "bytes32",
              "name": "blockHash",
              "type": "bytes32"
            },
            {
              "internalType": "bytes32",
              "name": "transactionHash",
              "type": "bytes32"
            },
            {
              "internalType": "uint32",
              "name": "logIndex",
              "type": "uint32"
            },
            {
              "internalType": "uint256",
              "name": "originChainId",
              "type": "uint256"
            }
          ],
          "internalType": "struct IBridge.ClaimData",
          "name": "_claimData",
          "type": "tuple"
        }
      ],
      "name": "claimFallback",
      "outputs": [
        {
          "internalType": "uint256",
          "name": "receivedAmount",
          "type": "uint256"
        }
      ],
      "stateMutability": "nonpayable",
      "type": "function"
    },
    {
      "inputs": [
        {
          "components": [
            {
              "internalType": "address payable",
              "name": "to",
              "type": "address"
            },
            {
              "internalType": "uint256",
              "name": "amount",
              "type": "uint256"
            },
            {
              "internalType": "bytes32",
              "name": "blockHash",
              "type": "bytes32"
            },
            {
              "internalType": "bytes32",
              "name": "transactionHash",
              "type": "bytes32"
            },
            {
              "internalType": "uint32",
              "name": "logIndex",
              "type": "uint32"
            },
            {
              "internalType": "uint256",
              "name": "originChainId",
              "type": "uint256"
            }
          ],
          "internalType": "struct IBridge.ClaimData",
          "name": "_claimData",
          "type": "tuple"
        },
        {
          "internalType": "address payable",
          "name": "_relayer",
          "type": "address"
        },
        {
          "internalType": "uint256",
          "name": "_fee",
          "type": "uint256"
        },
        {
          "internalType": "uint256",
          "name": "_deadline",
          "type": "uint256"
        },
        {
          "internalType": "uint8",
          "name": "_v",
          "type": "uint8"
        },
        {
          "internalType": "bytes32",
          "name": "_r",
          "type": "bytes32"
        },
        {
          "internalType": "bytes32",
          "name": "_s",
          "type": "bytes32"
        }
      ],
      "name": "claimGasless",
      "outputs": [
        {
          "internalType": "uint256",
          "name": "receivedAmount",
          "type": "uint256"
        }
      ],
      "stateMutability": "nonpayable",
      "type": "function"
    },
    {
      "inputs": [
        {
          "internalType": "bytes32",
          "name": "",
          "type": "bytes32"
        }
      ],
      "name": "claimed",
      "outputs": [
        {
          "internalType": "bool",
          "name": "",
          "type": "bool"
        }
      ],
      "stateMutability": "view",
      "type": "function"
    },
    {
      "inputs": [
        {
          "components": [
            {
              "internalType": "uint256",
              "name": "_typeId",
              "type": "uint256"
            },
            {
              "internalType": "address",
              "name": "_originalTokenAddress",
              "type": "address"
            },
            {
              "internalType": "uint8",
              "name": "_originalTokenDecimals",
              "type": "uint8"
            },
            {
              "internalType": "string",
              "name": "_originalTokenSymbol",
              "type": "string"
            },
            {
              "internalType": "string",
              "name": "_originalTokenName",
              "type": "string"
            },
            {
              "internalType": "uint256",
              "name": "_originChainId",
              "type": "uint256"
            }
          ],
          "internalType": "struct IBridge.CreateSideTokenStruct[]",
          "name": "createSideTokenStruct",
          "type": "tuple[]"
        }
      ],
      "name": "createMultipleSideTokens",
      "outputs": [],
      "stateMutability": "nonpayable",
      "type": "function"
    },
    {
      "inputs": [
        {
          "internalType": "uint256",
          "name": "_typeId",
          "type": "uint256"
        },
        {
          "internalType": "address",
          "name": "_originalTokenAddress",
          "type": "address"
        },
        {
          "internalType": "uint8",
          "name": "_originalTokenDecimals",
          "type": "uint8"
        },
        {
          "internalType": "string",
          "name": "_tokenSymbol",
          "type": "string"
        },
        {
          "internalType": "string",
          "name": "_tokenName",
          "type": "string"
        },
        {
          "internalType": "uint256",
          "name": "_originChainId",
          "type": "uint256"
        }
      ],
      "name": "createSideToken",
      "outputs": [],
      "stateMutability": "nonpayable",
      "type": "function"
    },
    {
      "inputs": [
        {
          "internalType": "uint256",
          "name": "chainId",
          "type": "uint256"
        },
        {
          "internalType": "string",
          "name": "hathorTo",
          "type": "string"
        }
      ],
      "name": "depositTo",
      "outputs": [],
      "stateMutability": "payable",
      "type": "function"
    },
    {
      "inputs": [
        {
          "internalType": "address",
          "name": "",
          "type": "address"
        }
      ],
      "name": "deprecatedKnownTokens",
      "outputs": [
        {
          "internalType": "bool",
          "name": "",
          "type": "bool"
        }
      ],
      "stateMutability": "view",
      "type": "function"
    },
    {
      "inputs": [
        {
          "internalType": "address",
          "name": "",
          "type": "address"
        }
      ],
      "name": "deprecatedMappedTokens",
      "outputs": [
        {
          "internalType": "address",
          "name": "",
          "type": "address"
        }
      ],
      "stateMutability": "view",
      "type": "function"
    },
    {
      "inputs": [
        {
          "internalType": "address",
          "name": "",
          "type": "address"
        }
      ],
      "name": "deprecatedOriginalTokens",
      "outputs": [
        {
          "internalType": "address",
          "name": "",
          "type": "address"
        }
      ],
      "stateMutability": "view",
      "type": "function"
    },
    {
      "inputs": [],
      "name": "deprecatedSymbolPrefix",
      "outputs": [
        {
          "internalType": "string",
          "name": "",
          "type": "string"
        }
      ],
      "stateMutability": "view",
      "type": "function"
    },
    {
      "inputs": [],
      "name": "domainSeparator",
      "outputs": [
        {
          "internalType": "bytes32",
          "name": "",
          "type": "bytes32"
        }
      ],
      "stateMutability": "view",
      "type": "function"
    },
    {
      "inputs": [],
      "name": "feePercentageDivider",
      "outputs": [
        {
          "internalType": "uint256",
          "name": "",
          "type": "uint256"
        }
      ],
      "stateMutability": "view",
      "type": "function"
    },
    {
      "inputs": [],
      "name": "getFederation",
      "outputs": [
        {
          "internalType": "address",
          "name": "",
          "type": "address"
        }
      ],
      "stateMutability": "view",
      "type": "function"
    },
    {
      "inputs": [],
      "name": "getFeePercentage",
      "outputs": [
        {
          "internalType": "uint256",
          "name": "",
          "type": "uint256"
        }
      ],
      "stateMutability": "view",
      "type": "function"
    },
    {
      "inputs": [
        {
          "internalType": "address",
          "name": "sideToken",
          "type": "address"
        }
      ],
      "name": "getOriginalTokenBySideToken",
      "outputs": [
        {
          "components": [
            {
              "internalType": "address",
              "name": "tokenAddress",
              "type": "address"
            },
            {
              "internalType": "uint256",
              "name": "originChainId",
              "type": "uint256"
            }
          ],
          "internalType": "struct IBridge.OriginalToken",
          "name": "originalToken",
          "type": "tuple"
        }
      ],
      "stateMutability": "view",
      "type": "function"
    },
    {
      "inputs": [
        {
          "internalType": "address",
          "name": "_to",
          "type": "address"
        },
        {
          "internalType": "uint256",
          "name": "_amount",
          "type": "uint256"
        },
        {
          "internalType": "bytes32",
          "name": "_blockHash",
          "type": "bytes32"
        },
        {
          "internalType": "bytes32",
          "name": "_transactionHash",
          "type": "bytes32"
        },
        {
          "internalType": "uint32",
          "name": "_logIndex",
          "type": "uint32"
        },
        {
          "internalType": "uint256",
          "name": "_originChainId",
          "type": "uint256"
        },
        {
          "internalType": "uint256",
          "name": "_destinationChainId",
          "type": "uint256"
        }
      ],
      "name": "getTransactionDataHash",
      "outputs": [
        {
          "internalType": "bytes32",
          "name": "",
          "type": "bytes32"
        }
      ],
      "stateMutability": "pure",
      "type": "function"
    },
    {
      "inputs": [
        {
          "internalType": "bytes32",
          "name": "transactionHash",
          "type": "bytes32"
        }
      ],
      "name": "hasBeenClaimed",
      "outputs": [
        {
          "internalType": "bool",
          "name": "",
          "type": "bool"
        }
      ],
      "stateMutability": "view",
      "type": "function"
    },
    {
      "inputs": [
        {
          "internalType": "bytes32",
          "name": "transactionHash",
          "type": "bytes32"
        }
      ],
      "name": "hasCrossed",
      "outputs": [
        {
          "internalType": "bool",
          "name": "",
          "type": "bool"
        }
      ],
      "stateMutability": "view",
      "type": "function"
    },
    {
      "inputs": [],
      "name": "initDomainSeparator",
      "outputs": [],
      "stateMutability": "nonpayable",
      "type": "function"
    },
    {
      "inputs": [],
      "name": "initialize",
      "outputs": [],
      "stateMutability": "nonpayable",
      "type": "function"
    },
    {
      "inputs": [
        {
          "internalType": "address",
          "name": "sender",
          "type": "address"
        }
      ],
      "name": "initialize",
      "outputs": [],
      "stateMutability": "nonpayable",
      "type": "function"
    },
    {
      "inputs": [
        {
          "internalType": "address",
          "name": "_manager",
          "type": "address"
        },
        {
          "internalType": "address",
          "name": "_federation",
          "type": "address"
        },
        {
          "internalType": "address",
          "name": "_allowTokens",
          "type": "address"
        },
        {
          "internalType": "address",
          "name": "_sideTokenFactory",
          "type": "address"
        }
      ],
      "name": "initialize",
      "outputs": [],
      "stateMutability": "nonpayable",
      "type": "function"
    },
    {
      "inputs": [],
      "name": "initiated",
      "outputs": [
        {
          "internalType": "bool",
          "name": "",
          "type": "bool"
        }
      ],
      "stateMutability": "view",
      "type": "function"
    },
    {
      "inputs": [
        {
          "components": [
            {
              "internalType": "address payable",
              "name": "to",
              "type": "address"
            },
            {
              "internalType": "uint256",
              "name": "amount",
              "type": "uint256"
            },
            {
              "internalType": "bytes32",
              "name": "blockHash",
              "type": "bytes32"
            },
            {
              "internalType": "bytes32",
              "name": "transactionHash",
              "type": "bytes32"
            },
            {
              "internalType": "uint32",
              "name": "logIndex",
              "type": "uint32"
            },
            {
              "internalType": "uint256",
              "name": "originChainId",
              "type": "uint256"
            }
          ],
          "internalType": "struct IBridge.ClaimData",
          "name": "_claimData",
          "type": "tuple"
        },
        {
          "internalType": "bytes32",
          "name": "transactionDataHashMultichain",
          "type": "bytes32"
        }
      ],
      "name": "isClaimed",
      "outputs": [
        {
          "internalType": "bool",
          "name": "",
          "type": "bool"
        }
      ],
      "stateMutability": "view",
      "type": "function"
    },
    {
      "inputs": [
        {
          "internalType": "bytes32",
          "name": "transactionDataHash",
          "type": "bytes32"
        },
        {
          "internalType": "bytes32",
          "name": "transactionDataHashMultichain",
          "type": "bytes32"
        }
      ],
      "name": "isClaimed",
      "outputs": [
        {
          "internalType": "bool",
          "name": "",
          "type": "bool"
        }
      ],
      "stateMutability": "view",
      "type": "function"
    },
    {
      "inputs": [],
      "name": "isOwner",
      "outputs": [
        {
          "internalType": "bool",
          "name": "",
          "type": "bool"
        }
      ],
      "stateMutability": "view",
      "type": "function"
    },
    {
      "inputs": [
        {
          "internalType": "address",
          "name": "account",
          "type": "address"
        }
      ],
      "name": "isPauser",
      "outputs": [
        {
          "internalType": "bool",
          "name": "",
          "type": "bool"
        }
      ],
      "stateMutability": "view",
      "type": "function"
    },
    {
      "inputs": [],
      "name": "isUpgrading",
      "outputs": [
        {
          "internalType": "bool",
          "name": "",
          "type": "bool"
        }
      ],
      "stateMutability": "view",
      "type": "function"
    },
    {
      "inputs": [
        {
          "internalType": "uint256",
          "name": "chainId",
          "type": "uint256"
        },
        {
          "internalType": "address",
          "name": "originalToken",
          "type": "address"
        }
      ],
      "name": "knownToken",
      "outputs": [
        {
          "internalType": "bool",
          "name": "",
          "type": "bool"
        }
      ],
      "stateMutability": "view",
      "type": "function"
    },
    {
      "inputs": [
        {
          "internalType": "uint256",
          "name": "",
          "type": "uint256"
        },
        {
          "internalType": "address",
          "name": "",
          "type": "address"
        }
      ],
      "name": "knownTokenByChain",
      "outputs": [
        {
          "internalType": "bool",
          "name": "",
          "type": "bool"
        }
      ],
      "stateMutability": "view",
      "type": "function"
    },
    {
      "inputs": [
        {
          "internalType": "address",
          "name": "",
          "type": "address"
        }
      ],
      "name": "nonces",
      "outputs": [
        {
          "internalType": "uint256",
          "name": "",
          "type": "uint256"
        }
      ],
      "stateMutability": "view",
      "type": "function"
    },
    {
      "inputs": [
        {
          "internalType": "bytes32",
          "name": "",
          "type": "bytes32"
        }
      ],
      "name": "originalTokenAddresses",
      "outputs": [
        {
          "internalType": "address",
          "name": "",
          "type": "address"
        }
      ],
      "stateMutability": "view",
      "type": "function"
    },
    {
      "inputs": [
        {
          "internalType": "address",
          "name": "",
          "type": "address"
        }
      ],
      "name": "originalTokenBySideToken",
      "outputs": [
        {
          "internalType": "address",
          "name": "tokenAddress",
          "type": "address"
        },
        {
          "internalType": "uint256",
          "name": "originChainId",
          "type": "uint256"
        }
      ],
      "stateMutability": "view",
      "type": "function"
    },
    {
      "inputs": [],
      "name": "owner",
      "outputs": [
        {
          "internalType": "address",
          "name": "",
          "type": "address"
        }
      ],
      "stateMutability": "view",
      "type": "function"
    },
    {
      "inputs": [],
      "name": "pause",
      "outputs": [],
      "stateMutability": "nonpayable",
      "type": "function"
    },
    {
      "inputs": [],
      "name": "paused",
      "outputs": [
        {
          "internalType": "bool",
          "name": "",
          "type": "bool"
        }
      ],
      "stateMutability": "view",
      "type": "function"
    },
    {
      "inputs": [
        {
          "internalType": "uint256",
          "name": "destinationChainId",
          "type": "uint256"
        },
        {
          "internalType": "address",
          "name": "tokenToUse",
          "type": "address"
        },
        {
          "internalType": "string",
          "name": "hathorTo",
          "type": "string"
        },
        {
          "internalType": "uint256",
          "name": "amount",
          "type": "uint256"
        }
      ],
      "name": "receiveTokensTo",
      "outputs": [],
      "stateMutability": "nonpayable",
      "type": "function"
    },
    {
      "inputs": [],
      "name": "renounceOwnership",
      "outputs": [],
      "stateMutability": "nonpayable",
      "type": "function"
    },
    {
      "inputs": [],
      "name": "renouncePauser",
      "outputs": [],
      "stateMutability": "nonpayable",
      "type": "function"
    },
    {
      "inputs": [
        {
          "internalType": "bytes32",
          "name": "",
          "type": "bytes32"
        }
      ],
      "name": "senderAddresses",
      "outputs": [
        {
          "internalType": "address",
          "name": "",
          "type": "address"
        }
      ],
      "stateMutability": "view",
      "type": "function"
    },
    {
      "inputs": [
        {
          "internalType": "uint256",
          "name": "amount",
          "type": "uint256"
        }
      ],
      "name": "setFeePercentage",
      "outputs": [],
      "stateMutability": "nonpayable",
      "type": "function"
    },
    {
      "inputs": [
        {
          "internalType": "address",
          "name": "sideToken",
          "type": "address"
        },
        {
          "components": [
            {
              "internalType": "address",
              "name": "tokenAddress",
              "type": "address"
            },
            {
              "internalType": "uint256",
              "name": "originChainId",
              "type": "uint256"
            }
          ],
          "internalType": "struct IBridge.OriginalToken",
          "name": "originalToken",
          "type": "tuple"
        }
      ],
      "name": "setOriginalTokenBySideTokenByChain",
      "outputs": [],
      "stateMutability": "nonpayable",
      "type": "function"
    },
    {
      "inputs": [
        {
          "internalType": "uint256",
          "name": "chainId",
          "type": "uint256"
        },
        {
          "internalType": "address",
          "name": "originalToken",
          "type": "address"
        },
        {
          "internalType": "address",
          "name": "sideToken",
          "type": "address"
        }
      ],
      "name": "setSideTokenByOriginalAddressByChain",
      "outputs": [],
      "stateMutability": "nonpayable",
      "type": "function"
    },
    {
      "inputs": [
        {
          "internalType": "bool",
          "name": "_isUpgrading",
          "type": "bool"
        }
      ],
      "name": "setUpgrading",
      "outputs": [],
      "stateMutability": "nonpayable",
      "type": "function"
    },
    {
      "inputs": [
        {
          "internalType": "address",
          "name": "_wrappedCurrency",
          "type": "address"
        }
      ],
      "name": "setWrappedCurrency",
      "outputs": [],
      "stateMutability": "nonpayable",
      "type": "function"
    },
    {
      "inputs": [
        {
          "internalType": "uint256",
          "name": "chainId",
          "type": "uint256"
        },
        {
          "internalType": "address",
          "name": "originalToken",
          "type": "address"
        }
      ],
      "name": "sideTokenByOriginalToken",
      "outputs": [
        {
          "internalType": "address",
          "name": "",
          "type": "address"
        }
      ],
      "stateMutability": "view",
      "type": "function"
    },
    {
      "inputs": [
        {
          "internalType": "uint256",
          "name": "",
          "type": "uint256"
        },
        {
          "internalType": "address",
          "name": "",
          "type": "address"
        }
      ],
      "name": "sideTokenByOriginalTokenByChain",
      "outputs": [
        {
          "internalType": "address",
          "name": "",
          "type": "address"
        }
      ],
      "stateMutability": "view",
      "type": "function"
    },
    {
      "inputs": [],
      "name": "sideTokenFactory",
      "outputs": [
        {
          "internalType": "contract ISideTokenFactory",
          "name": "",
          "type": "address"
        }
      ],
      "stateMutability": "view",
      "type": "function"
    },
    {
      "inputs": [
        {
          "internalType": "address",
          "name": "operator",
          "type": "address"
        },
        {
          "internalType": "address",
          "name": "from",
          "type": "address"
        },
        {
          "internalType": "address",
          "name": "to",
          "type": "address"
        },
        {
          "internalType": "uint256",
          "name": "amount",
          "type": "uint256"
        },
        {
          "internalType": "bytes",
          "name": "userData",
          "type": "bytes"
        },
        {
          "internalType": "bytes",
          "name": "operatorData",
          "type": "bytes"
        }
      ],
      "name": "tokensReceived",
      "outputs": [],
      "stateMutability": "nonpayable",
      "type": "function"
    },
    {
      "inputs": [
        {
          "internalType": "bytes32",
          "name": "",
          "type": "bytes32"
        }
      ],
      "name": "transactionsDataHashes",
      "outputs": [
        {
          "internalType": "bytes32",
          "name": "",
          "type": "bytes32"
        }
      ],
      "stateMutability": "view",
      "type": "function"
    },
    {
      "inputs": [
        {
          "internalType": "address",
          "name": "newOwner",
          "type": "address"
        }
      ],
      "name": "transferOwnership",
      "outputs": [],
      "stateMutability": "nonpayable",
      "type": "function"
    },
    {
      "inputs": [
        {
          "internalType": "string",
          "name": "uid",
          "type": "string"
        }
      ],
      "name": "uidToAddress",
      "outputs": [
        {
          "internalType": "address",
          "name": "",
          "type": "address"
        }
      ],
      "stateMutability": "pure",
      "type": "function"
    },
    {
      "inputs": [],
      "name": "unpause",
      "outputs": [],
      "stateMutability": "nonpayable",
      "type": "function"
    },
    {
      "inputs": [],
      "name": "version",
      "outputs": [
        {
          "internalType": "string",
          "name": "",
          "type": "string"
        }
      ],
      "stateMutability": "pure",
      "type": "function"
    },
    {
      "inputs": [],
      "name": "wrappedCurrency",
      "outputs": [
        {
          "internalType": "contract IWrapped",
          "name": "",
          "type": "address"
        }
      ],
      "stateMutability": "view",
      "type": "function"
    },
    {
      "stateMutability": "payable",
      "type": "receive"
    }
  ],
  "transactionHash": "0xcfb6138057ac98208c3ea1c8098b8a4ade017d5fcec14540745e9c28e434646c",
  "args": [],
  "numDeployments": 1,
  "solcInputHash": "a6e4eb39a6a9a517bc5eb9be43d8c276",
  "bytecode": "0x608060405234801561001057600080fd5b5061572080620000216000396000f3fe6080604052600436106103f25760003560e01c806382dc1ec411610208578063b86f60d211610118578063da677037116100ab578063eb16136f1161007a578063eb16136f14610dbc578063f2fde38b14610ddc578063f698da2514610dfc578063f8c8765e14610e12578063fa0caa1614610e3257600080fd5b8063da67703714610d39578063e07801d014610d68578063e6fc774414610d88578063ea21709114610d9e57600080fd5b8063cbc73280116100e7578063cbc7328014610cb4578063cc3c0f0614610cd4578063d12e825d14610d04578063d3401a2214610d1957600080fd5b8063b86f60d214610bfa578063b984a40414610c1a578063c4d66de814610c5e578063ca07140c14610c7e57600080fd5b80639f1185361161019b578063ae06c1b71161016a578063ae06c1b714610b59578063aee71e7b14610b79578063b048c4fb14610b99578063b0e1268e14610bb9578063b794726214610bd957600080fd5b80639f11853614610adf578063a53d6e6e14610af9578063a83cf9f214610b19578063a89f298a14610b3957600080fd5b80638ca01082116101d75780638ca0108214610a615780638da5cb5b14610a765780638f32d59b14610a99578063916dc59d14610abf57600080fd5b806382dc1ec4146109ec5780638456cb5914610a0c578063850ad45914610a2157806388710e2e14610a4157600080fd5b80633f4ba83a11610303578063615bfd6e116102965780637a0ab28f116102655780637a0ab28f146109045780637a98187b1461093a5780637ecebe001461097a5780638129fc1c146109a757806382a0b8cb146109bc57600080fd5b8063615bfd6e146108865780636b0509b1146108a65780636ef8d66d146108da578063715018a6146108ef57600080fd5b80634c739509116102d25780634c739509146107b05780634d5f1fa1146107d057806354fd4d501461083a5780635c975abb1461086e57600080fd5b80633f4ba83a1461073b57806342cdb2c61461075057806346fbf68e1461077057806347f8bbd41461079057600080fd5b80631b462fc41161038657806337e761091161035557806337e76109146106315780633a1cbbcb1461066e5780633c3f63f4146106a45780633c7e0cb7146106e55780633cf3058b1461070557600080fd5b80631b462fc41461056e57806322f89ba4146105a65780632f3cca4e146105f15780633500c1dc1461061157600080fd5b80630ed928af116103c25780630ed928af146104f95780630ef1335c1461051957806311efbf6114610539578063122aa5d41461054e57600080fd5b806223de2914610466578063026976191461048657806307c8f7b0146104c65780630a1d1833146104e657600080fd5b36610461576041546001600160a01b0316336001600160a01b03161461045f5760405162461bcd60e51b815260206004820152601b60248201527f4272696467653a206e6f74207772617070656443757272656e6379000000000060448201526064015b60405180910390fd5b005b600080fd5b34801561047257600080fd5b5061045f610481366004614886565b610e52565b34801561049257600080fd5b506104b36104a1366004614936565b60426020526000908152604090205481565b6040519081526020015b60405180910390f35b3480156104d257600080fd5b5061045f6104e136600461495d565b6111d4565b61045f6104f4366004614a1c565b611263565b34801561050557600080fd5b506104b3610514366004614a7a565b61135d565b34801561052557600080fd5b506104b3610534366004614a7a565b61137e565b34801561054557600080fd5b506037546104b3565b34801561055a57600080fd5b5061045f610569366004614aaf565b6113f5565b34801561057a57600080fd5b5061058e610589366004614b3a565b611833565b6040516001600160a01b0390911681526020016104bd565b3480156105b257600080fd5b506105e16105c1366004614b7b565b604860209081526000928352604080842090915290825290205460ff1681565b60405190151581526020016104bd565b3480156105fd57600080fd5b5061045f61060c366004614bab565b61186c565b34801561061d57600080fd5b5061045f61062c366004614bab565b6118ec565b34801561063d57600080fd5b506105e161064c366004614936565b6000908152604260209081526040808320548352603e90915290205460ff1690565b34801561067a57600080fd5b5061058e610689366004614bab565b603b602052600090815260409020546001600160a01b031681565b3480156106b057600080fd5b5061058e6106bf366004614b7b565b60466020908152600092835260408084209091529082529020546001600160a01b031681565b3480156106f157600080fd5b5061045f610700366004614bc8565b6119be565b34801561071157600080fd5b5061058e610720366004614936565b6044602052600090815260409020546001600160a01b031681565b34801561074757600080fd5b5061045f611b33565b34801561075c57600080fd5b5061045f61076b366004614bab565b611beb565b34801561077c57600080fd5b506105e161078b366004614bab565b611d33565b34801561079c57600080fd5b5061045f6107ab366004614c3c565b611d40565b3480156107bc57600080fd5b5061045f6107cb366004614cb8565b611e44565b3480156107dc57600080fd5b5061081b6107eb366004614cfa565b8051602081830181018051604a82529282019190930120915280546001909101546001600160a01b039091169082565b604080516001600160a01b0390931683526020830191909152016104bd565b34801561084657600080fd5b506040805180820190915260028152611d8d60f21b60208201525b6040516104bd9190614d86565b34801561087a57600080fd5b5060345460ff166105e1565b34801561089257600080fd5b506105e16108a1366004614d99565b611f46565b3480156108b257600080fd5b506104b37faf3ac34fea9cc1b1def33a9bdc482d988feb61b5015ae4a55e2a62bb3600d54c81565b3480156108e657600080fd5b5061045f611fb3565b3480156108fb57600080fd5b5061045f611fbe565b34801561091057600080fd5b5061058e61091f366004614bab565b603c602052600090815260409020546001600160a01b031681565b34801561094657600080fd5b5061081b610955366004614bab565b604760205260009081526040902080546001909101546001600160a01b039091169082565b34801561098657600080fd5b506104b3610995366004614bab565b60456020526000908152604090205481565b3480156109b357600080fd5b5061045f612043565b3480156109c857600080fd5b506105e16109d7366004614bab565b603d6020526000908152604090205460ff1681565b3480156109f857600080fd5b5061045f610a07366004614bab565b6120b4565b348015610a1857600080fd5b5061045f6120e2565b348015610a2d57600080fd5b5061045f610a3c366004614dc4565b61215f565b348015610a4d57600080fd5b506104b3610a5c366004614e35565b612199565b348015610a6d57600080fd5b50610861612314565b348015610a8257600080fd5b5060345461010090046001600160a01b031661058e565b348015610aa557600080fd5b506105e160345461010090046001600160a01b0316331490565b348015610acb57600080fd5b5061045f610ada366004614bab565b6123a2565b348015610aeb57600080fd5b50604b546105e19060ff1681565b348015610b0557600080fd5b50603f5461058e906001600160a01b031681565b348015610b2557600080fd5b50610861610b34366004614bab565b6124de565b348015610b4557600080fd5b506104b3610b54366004614ea7565b6124f7565b348015610b6557600080fd5b5061045f610b74366004614936565b612569565b348015610b8557600080fd5b5061045f610b94366004614f0c565b61262e565b348015610ba557600080fd5b506105e1610bb4366004614f64565b612724565b348015610bc557600080fd5b5060415461058e906001600160a01b031681565b348015610be557600080fd5b506040546105e190600160a01b900460ff1681565b348015610c0657600080fd5b5060405461058e906001600160a01b031681565b348015610c2657600080fd5b50610c3a610c35366004614bab565b612756565b6040805182516001600160a01b0316815260209283015192810192909252016104bd565b348015610c6a57600080fd5b5061045f610c79366004614bab565b61282b565b348015610c8a57600080fd5b5061058e610c99366004614936565b6043602052600090815260409020546001600160a01b031681565b348015610cc057600080fd5b5061045f610ccf366004614f86565b6128ed565b348015610ce057600080fd5b506105e1610cef366004614936565b603e6020526000908152604090205460ff1681565b348015610d1057600080fd5b5061045f612932565b348015610d2557600080fd5b5061058e610d34366004614b7b565b612a2f565b348015610d4557600080fd5b506105e1610d54366004614936565b600090815260426020526040902054151590565b348015610d7457600080fd5b506105e1610d83366004614b7b565b612ad6565b348015610d9457600080fd5b506104b361271081565b348015610daa57600080fd5b506036546001600160a01b031661058e565b348015610dc857600080fd5b5061045f610dd7366004614bab565b612b2b565b348015610de857600080fd5b5061045f610df7366004614bab565b612bad565b348015610e0857600080fd5b506104b360395481565b348015610e1e57600080fd5b5061045f610e2d366004615029565b612beb565b348015610e3e57600080fd5b5061045f610e4d366004614bab565b612d40565b6001600160a01b038816301415610e68576111ca565b6001600160a01b0386163014610ec05760405162461bcd60e51b815260206004820152601b60248201527f4272696467653a204e6f7420746f2074686973206164647265737300000000006044820152606401610456565b60003360405163555ddc6560e11b81526001600160a01b03821660048201527fac7fbab5f54a3ca8194167523c6753bfeb96a445279294b6125b68cce21770546024820152909150600090731820a4b7618bde71dce8cdc73aab6c95905fad249063aabbb8ca9060440160206040518083038186803b158015610f4257600080fd5b505afa158015610f56573d6000803e3d6000fd5b505050506040513d601f19601f82011682018060405250810190610f7a9190615085565b6001600160a01b03161415610fd15760405162461bcd60e51b815260206004820152601860248201527f4272696467653a204e6f742045524337373720746f6b656e00000000000000006044820152606401610456565b60208410156110415760405162461bcd60e51b815260206004820152603660248201527f4272696467653a207573657220646174612077697468206174206c65617374206044820152751d1a194819195cdd1a5b985d1a5bdb90da185a5b925960521b6064820152608401610456565b604084148061105857506001600160a01b0388163b155b6110b55760405162461bcd60e51b815260206004820152602860248201527f4272696467653a2053706563696679207265636569766572206164647265737360448201526720696e206461746160c01b6064820152608401610456565b6000602085146111065761110186868080601f016020809104026020016040519081016040528093929190818152602001838380828437600092019190915250600c9250612e7a915050565b611108565b885b9050600061115887878080601f0160208091040260200160405190810160405280939291908181526020018383808284376000920191909152506111539250602091508a90506150b8565b612ee7565b90506000604051806040016040528060098152602001681d5b9919599a5b995960ba1b81525090506111c5848c838c8c8c8080601f0160208091040260200160405190810160405280939291908181526020018383808284376000920191909152508a9250612f4d915050565b505050505b5050505050505050565b6111ed60345461010090046001600160a01b0316331490565b6112095760405162461bcd60e51b8152600401610456906150cf565b6040805460ff60a01b1916600160a01b831515810291909117808355915160ff9190920416151581527f983e436223c000a441c2443b394ca5fb4669a513fe86dc1dd44494047b514ad9906020015b60405180910390a150565b60415433906001600160a01b03166112bd5760405162461bcd60e51b815260206004820152601d60248201527f4272696467653a207772617070656443757272656e637920656d7074790000006044820152606401610456565b604160009054906101000a90046001600160a01b03166001600160a01b031663d0e30db0346040518263ffffffff1660e01b81526004016000604051808303818588803b15801561130d57600080fd5b505af1158015611321573d6000803e3d6000fd5b5050505050611358604160009054906101000a90046001600160a01b03168284346040518060200160405280600081525088612f4d565b505050565b6000611378826113706020820182614bab565b6000806132fd565b92915050565b60608101356000908152604460205260408120546001600160a01b0316336001600160a01b0316146113eb5760405162461bcd60e51b8152602060048201526016602482015275213934b233b29d1034b73b30b634b21039b2b73232b960511b6044820152606401610456565b6113788233611370565b60345460ff16156114185760405162461bcd60e51b815260040161045690615104565b60016035600082825461142b919061512e565b90915550506035546036546001600160a01b0316336001600160a01b03161461148f5760405162461bcd60e51b8152602060048201526016602482015275213934b233b29d102737ba102332b232b930ba34b7b760511b6044820152606401610456565b611498836134e8565b6114a18261352f565b6114ab838b612ad6565b806114c9575060006114bd848c612a2f565b6001600160a01b031614155b61150d5760405162461bcd60e51b8152602060048201526015602482015274213934b233b29d102ab735b737bbb7103a37b5b2b760591b6044820152606401610456565b6001600160a01b0388166115555760405162461bcd60e51b815260206004820152600f60248201526e4272696467653a204e756c6c20546f60881b6044820152606401610456565b600087116115985760405162461bcd60e51b815260206004820152601060248201526f04272696467653a20416d6f756e7420360841b6044820152606401610456565b856115de5760405162461bcd60e51b8152602060048201526016602482015275084e4d2c8ceca74409cead8d84084d8dec6d690c2e6d60531b6044820152606401610456565b846116215760405162461bcd60e51b8152602060048201526013602482015272084e4d2c8ceca74409cead8d840a8f090c2e6d606b1b6044820152606401610456565b6000858152604260205260409020541561167d5760405162461bcd60e51b815260206004820152601860248201527f4272696467653a20416c726561647920616363657074656400000000000000006044820152606401610456565b600061168c898989898961357e565b9050600061169f8a8a8a8a8a8a8a6124f7565b90506116ab8282612724565b156116f25760405162461bcd60e51b8152602060048201526017602482015276109c9a5919d94e88105b1c9958591e4818db185a5b5959604a1b6044820152606401610456565b8060426000898152602001908152602001600020819055508b6043600089815260200190815260200160002060006101000a8154816001600160a01b0302191690836001600160a01b031602179055508a6044600089815260200190815260200160002060006101000a8154816001600160a01b0302191690836001600160a01b03160217905550896001600160a01b03168c6001600160a01b0316887fddae5e892ad96ac0e35e9018a1a3e32ecd7f3dfe55ea34d9ab1e8faecd6ccb5a8e8d8d8c8c8c6040516117fc969594939291906001600160a01b039690961686526020860194909452604085019290925263ffffffff166060840152608083015260a082015260c00190565b60405180910390a4505060355481146118275760405162461bcd60e51b815260040161045690615146565b50505050505050505050565b600080838360405160200161184992919061518b565b60408051808303601f19018152919052805160209091012060601c949350505050565b600054610100900460ff1680611885575060005460ff16155b6118a15760405162461bcd60e51b81526004016104569061519b565b600054610100900460ff161580156118c3576000805461ffff19166101011790555b6118cc82612b2b565b6034805460ff1916905580156118e8576000805461ff00191690555b5050565b61190560345461010090046001600160a01b0316331490565b6119215760405162461bcd60e51b8152600401610456906150cf565b6001600160a01b0381166119705760405162461bcd60e51b81526020600482015260166024820152754272696467653a20777261707020697320656d70747960501b6044820152606401610456565b604180546001600160a01b0319166001600160a01b0383169081179091556040519081527f0966c958966f6fac9ff807af074f8117eb2e9ce2b76390db7a158e9bdeb2485c90602001611258565b6119d760345461010090046001600160a01b0316331490565b6119f35760405162461bcd60e51b8152600401610456906150cf565b60005b8181101561135857611b21838383818110611a1357611a136151e3565b9050602002810190611a2591906151f9565b35848484818110611a3857611a386151e3565b9050602002810190611a4a91906151f9565b611a5b906040810190602001614bab565b858585818110611a6d57611a6d6151e3565b9050602002810190611a7f91906151f9565b611a90906060810190604001615219565b868686818110611aa257611aa26151e3565b9050602002810190611ab491906151f9565b611ac2906060810190615234565b888888818110611ad457611ad46151e3565b9050602002810190611ae691906151f9565b611af4906080810190615234565b8a8a8a818110611b0657611b066151e3565b9050602002810190611b1891906151f9565b60a001356135e9565b80611b2b8161527a565b9150506119f6565b611b3c33611d33565b611b585760405162461bcd60e51b815260040161045690615295565b60345460ff16611ba15760405162461bcd60e51b815260206004820152601460248201527314185d5cd8589b194e881b9bdd081c185d5cd95960621b6044820152606401610456565b6034805460ff191690557f5db9ee0a495bf2e6ff9c91a7834c1ba4fdd244a5e8aa4e537bd38aeae4b073aa335b6040516001600160a01b03909116815260200160405180910390a1565b611c0460345461010090046001600160a01b0316331490565b611c205760405162461bcd60e51b8152600401610456906150cf565b6001600160a01b038116611c805760405162461bcd60e51b815260206004820152602160248201527f4272696467653a2053696465546f6b656e466163746f727920697320656d70746044820152607960f81b6064820152608401610456565b6001600160a01b0381163b611ce75760405162461bcd60e51b815260206004820152602760248201527f4272696467653a2053696465546f6b656e466163746f7279206e6f74206120636044820152661bdb9d1c9858dd60ca1b6064820152608401610456565b604080546001600160a01b0319166001600160a01b038316908117825590519081527f619936bc6e3618d0b8dc69bcc70134fe9d88f9967f3a8b8304e318369252162590602001611258565b6000611378603383613804565b611d5960345461010090046001600160a01b0316331490565b611d755760405162461bcd60e51b8152600401610456906150cf565b6001600160a01b038216611d9b5760405162461bcd60e51b8152600401610456906152dd565b6001600160a01b03821661dead1415611dc65760405162461bcd60e51b815260040161045690615309565b6001600160a01b03828116600081815260476020908152604091829020855181546001600160a01b031916951694851781558582015160019091018190558251908152908101939093528201527fd5bc37e3a0e62b76d2ac35727b4221d8571768e83273e3e2f2fee961efc31d939060600160405180910390a15050565b611e5d60345461010090046001600160a01b0316331490565b611e795760405162461bcd60e51b8152600401610456906150cf565b6001600160a01b038216611e9f5760405162461bcd60e51b8152600401610456906152dd565b6001600160a01b03821661dead1415611eca5760405162461bcd60e51b815260040161045690615309565b60008381526046602090815260408083206001600160a01b038681168086529184529382902080546001600160a01b03191694861694851790558151878152928301528101919091527fd5bc37e3a0e62b76d2ac35727b4221d8571768e83273e3e2f2fee961efc31d93906060015b60405180910390a1505050565b600080611f7d611f596020860186614bab565b602086013560408701356060880135611f7860a08a0160808b01615335565b61357e565b6000818152603e602052604090205490915060ff1680611fab57506000838152603e602052604090205460ff165b949350505050565b611fbc33613887565b565b611fd760345461010090046001600160a01b0316331490565b611ff35760405162461bcd60e51b8152600401610456906150cf565b60345460405160009161010090046001600160a01b0316907f8be0079c531659141344cd1fd0a4f28419497f9722a3daafe3b4186f6b6457e0908390a360348054610100600160a81b0319169055565b600054610100900460ff168061205c575060005460ff16155b6120785760405162461bcd60e51b81526004016104569061519b565b600054610100900460ff1615801561209a576000805461ffff19166101011790555b600160355580156120b1576000805461ff00191690555b50565b6120bd33611d33565b6120d95760405162461bcd60e51b815260040161045690615295565b6120b1816138c9565b6120eb33611d33565b6121075760405162461bcd60e51b815260040161045690615295565b60345460ff161561212a5760405162461bcd60e51b815260040161045690615104565b6034805460ff191660011790557f62e78cea01bee320cd4e420270b5ea74000d11b0c9f74754ebdbfc544b05a258611bce3390565b336121756001600160a01b03851682308561390b565b61219284828585604051806020016040528060008152508a612f4d565b5050505050565b6000428510156121dd5760405162461bcd60e51b815260206004820152600f60248201526e109c9a5919d94e8811561412549151608a1b6044820152606401610456565b60006121f96121f1368b90038b018b615350565b89898961397c565b6040805160008082526020820180845284905260ff89169282019290925260608101879052608081018690529192509060019060a0016020604051602081039080840390855afa158015612251573d6000803e3d6000fd5b5050604051601f19015191506000905061226e60208c018c614bab565b6001600160a01b0316141580156122a2575061228d60208b018b614bab565b6001600160a01b0316816001600160a01b0316145b6122ee5760405162461bcd60e51b815260206004820152601960248201527f4272696467653a20494e56414c49445f5349474e4154555245000000000000006044820152606401610456565b6123068a6122ff6020820182614bab565b8b8b6132fd565b9a9950505050505050505050565b60388054612321906153d9565b80601f016020809104026020016040519081016040528092919081815260200182805461234d906153d9565b801561239a5780601f1061236f5761010080835404028352916020019161239a565b820191906000526020600020905b81548152906001019060200180831161237d57829003601f168201915b505050505081565b6123bb60345461010090046001600160a01b0316331490565b6123d75760405162461bcd60e51b8152600401610456906150cf565b6001600160a01b03811661242d5760405162461bcd60e51b815260206004820152601c60248201527f4272696467653a20416c6c6f77546f6b656e7320697320656d707479000000006044820152606401610456565b6001600160a01b0381163b6124905760405162461bcd60e51b815260206004820152602360248201527f4272696467653a20416c6c6f7720546f6b656e73206e6f74206120636f6e74726044820152621858dd60ea1b6064820152608401610456565b603f80546001600160a01b0319166001600160a01b0383169081179091556040519081527f5f2c1fe803fd576d8af05ea156011cc9cc8c025bda24c1e85772fc05a0b3f1e390602001611258565b60496020526000908152604090208054612321906153d9565b6040805160208082019790975280820195909552606097881b6bffffffffffffffffffffffff191697850197909752607484019590955260e09190911b6001600160e01b0319166094830152609882015260b8808201939093528351808203909301835260d801909252805191012090565b61258260345461010090046001600160a01b0316331490565b61259e5760405162461bcd60e51b8152600401610456906150cf565b6125ab600a612710615424565b81106125f95760405162461bcd60e51b815260206004820152601760248201527f4272696467653a20626967676572207468616e203130250000000000000000006044820152606401610456565b60378190556040518181527f97e97c577f03bda90e2c9739011ec065ed5fbfb36ae217d20bb0d9be95e160cd90602001611258565b61264760345461010090046001600160a01b0316331490565b6126635760405162461bcd60e51b8152600401610456906150cf565b6001600160a01b0382166000908152604960209081526040909120825161268c92840190614790565b506040518060400160405280836001600160a01b0316815260200184815250604a826040516126bb9190615438565b90815260405160209181900382018120835181546001600160a01b0319166001600160a01b0390911617815592909101516001909201919091557fb7924ee2fddea404b34edd2016ffac13a55fccace32bd60b3ce963bff51e007a90611f39908490849061544a565b6000828152603e602052604081205460ff168061274f57506000828152603e602052604090205460ff165b9392505050565b60408051808201909152600080825260208201526001600160a01b0382166127905760405162461bcd60e51b8152600401610456906152dd565b6001600160a01b03821661dead14156127bb5760405162461bcd60e51b815260040161045690615309565b506001600160a01b03808216600090815260476020908152604091829020825180840190935280549093168083526001909301549082015290156127fe57919050565b60016020808301919091526001600160a01b039283166000908152603c9091526040902054909116815290565b600054610100900460ff1680612844575060005460ff16155b6128605760405162461bcd60e51b81526004016104569061519b565b600054610100900460ff16158015612882576000805461ffff19166101011790555b60348054610100600160a81b0319166101006001600160a01b0385811682029290921792839055604051920416906000907f8be0079c531659141344cd1fd0a4f28419497f9722a3daafe3b4186f6b6457e0908290a380156118e8576000805461ff00191690555050565b61290660345461010090046001600160a01b0316331490565b6129225760405162461bcd60e51b8152600401610456906150cf565b6111ca88888888888888886135e9565b604b5460ff16156129855760405162461bcd60e51b815260206004820152601960248201527f4272696467653a20616c726561647920696e69746961746564000000000000006044820152606401610456565b6040805180820182526013815272486174686f7220546f6b656e2042726964676560681b60208083019182528351808501855260018152603160f81b908201529151902082517f8b73c3c69bb8fe3d512ecc4cf759cc79239f7b179b0ffacaa9a75d522b39400f8152918201527fc89efdaa54c0f20c7adf612882df0950f5a951637e0307cdcb4c672f298b8bc69181019190915246606082015230608082015260a09020603955565b60006001600160a01b038216612a575760405162461bcd60e51b8152600401610456906152dd565b6001600160a01b03821661dead1415612a825760405162461bcd60e51b815260040161045690615309565b60008381526046602090815260408083206001600160a01b038087168552925290912054168015612ab4579050611378565b50506001600160a01b039081166000908152603b602052604090205416919050565b60008281526048602090815260408083206001600160a01b038516845290915281205460ff168015612b09579050611378565b50506001600160a01b03166000908152603d602052604090205460ff16919050565b600054610100900460ff1680612b44575060005460ff16155b612b605760405162461bcd60e51b81526004016104569061519b565b600054610100900460ff16158015612b82576000805461ffff19166101011790555b612b8b82611d33565b612b9857612b98826138c9565b80156118e8576000805461ff00191690555050565b612bc660345461010090046001600160a01b0316331490565b612be25760405162461bcd60e51b8152600401610456906150cf565b6120b181613a80565b600054610100900460ff1680612c04575060005460ff16155b612c205760405162461bcd60e51b81526004016104569061519b565b600054610100900460ff16158015612c42576000805461ffff19166101011790555b612c4b8561282b565b612c548561186c565b603f80546001600160a01b038581166001600160a01b031992831617909255604080548584169083161781556036805493881693909216929092179055516329965a1d60e01b815230600482018190527fb281fc8c12954d22544db45de3159a39272895b169a852b314f9cc762e44c53b60248301526044820152731820a4b7618bde71dce8cdc73aab6c95905fad24906329965a1d90606401600060405180830381600087803b158015612d0857600080fd5b505af1158015612d1c573d6000803e3d6000fd5b50505050612d28612932565b8015612192576000805461ff00191690555050505050565b612d5960345461010090046001600160a01b0316331490565b612d755760405162461bcd60e51b8152600401610456906150cf565b6001600160a01b038116612dcb5760405162461bcd60e51b815260206004820152601b60248201527f4272696467653a2046656465726174696f6e20697320656d70747900000000006044820152606401610456565b6001600160a01b0381163b612e2c5760405162461bcd60e51b815260206004820152602160248201527f4272696467653a2046656465726174696f6e206e6f74206120636f6e747261636044820152601d60fa1b6064820152608401610456565b603680546001600160a01b0319166001600160a01b0383169081179091556040519081527f4a41a4d11aaf0c0c9e4311ac1d68b2b0134556da594779a2a35b0ddf7cd1eafb90602001611258565b6000612e8782601461512e565b83511015612ed75760405162461bcd60e51b815260206004820152601f60248201527f4c69625574696c733a20746f416464726573735f6f75744f66426f756e6473006044820152606401610456565b500160200151600160601b900490565b6000612ef482602061512e565b83511015612f445760405162461bcd60e51b815260206004820152601f60248201527f4c69625574696c733a20746f55696e743235365f6f75744f66426f756e6473006044820152606401610456565b50016020015190565b604054600160a01b900460ff1615612f9b5760405162461bcd60e51b81526020600482015260116024820152704272696467653a20557067726164696e6760781b6044820152606401610456565b60345460ff1615612fbe5760405162461bcd60e51b815260040161045690615104565b600160356000828254612fd1919061512e565b9091555050603554468214156130455760405162461bcd60e51b815260206004820152603360248201527f4272696467653a2064657374696e6174696f6e20636861696e20696420657175604482015272185b0818dd5c9c995b9d0818da185a5b881a59606a1b6064820152608401610456565b61304e826134e8565b60008281526048602090815260408083206001600160a01b038b1684529091529020805460ff19166001179055600061309e61271061309860375488613b4890919063ffffffff16565b90613bc7565b905060006130ac8683613c09565b905060006130b98a613c4b565b905086601260ff8316146130ea576130e76130d583601261546e565b6130e090600a615575565b8990613b48565b90505b603f54604051638c34bc5560e01b81526001600160a01b038d811660048301526024820184905290911690638c34bc5590604401600060405180830381600087803b15801561313857600080fd5b505af115801561314c573d6000803e3d6000fd5b50505050600061315b8c612756565b80519091506001600160a01b0316156132575760006131798d613d38565b905060006131878683613e24565b90506131938782613e66565b965061319f8682613c09565b60405163fe9d930360e01b81529096506001600160a01b038f169063fe9d9303906131d09089908e90600401615584565b600060405180830381600087803b1580156131ea57600080fd5b505af11580156131fe573d6000803e3d6000fd5b5050505050508681600001516001600160a01b03167ff79d8745c9a7b4a879eece08f2ec5bdd6f85ec822d09df9e03b171b12192d5938c8e46898e60405161324a95949392919061559d565b60405180910390a36132a2565b868c6001600160a01b03167ff79d8745c9a7b4a879eece08f2ec5bdd6f85ec822d09df9e03b171b12192d5938c8e46898e60405161329995949392919061559d565b60405180910390a35b84156132ce576034546132ce9061010090046001600160a01b03166001600160a01b038e169087613ec5565b505050505060355481146132f45760405162461bcd60e51b815260040161045690615146565b50505050505050565b6000600160356000828254613312919061512e565b909155505060355460608601356000908152604360205260409020546001600160a01b03168061337d5760405162461bcd60e51b8152602060048201526016602482015275109c9a5919d94e88151e081b9bdd0818dc9bdcdcd95960521b6044820152606401610456565b60006133b961338f60208a018a614bab565b60208a013560408b013560608c01356133ae60a08e0160808f01615335565b8d60a00135466124f7565b606089013560009081526042602052604090205490915081146134285760405162461bcd60e51b815260206004820152602160248201527f4272696467653a2057726f6e67207472616e73616374696f6e446174614861736044820152600d60fb1b6064820152608401610456565b6134328882611f46565b156134795760405162461bcd60e51b8152602060048201526017602482015276109c9a5919d94e88105b1c9958591e4818db185a5b5959604a1b6044820152606401610456565b6000818152603e60209081526040909120805460ff191660011790556134ad9060a08a01359084908a908c01358a8a613ef5565b93506134bc8883898989613f46565b505060355481146134df5760405162461bcd60e51b815260040161045690615146565b50949350505050565b600081116120b15760405162461bcd60e51b815260206004820152601460248201527304272696467653a20436861696e496420697320360641b6044820152606401610456565b4681146120b15760405162461bcd60e51b815260206004820152601960248201527f4272696467653a204e6f7420626c6f636b2e636861696e6964000000000000006044820152606401610456565b6040805160208101859052908101839052606086811b6bffffffffffffffffffffffff1916908201526074810185905260e082901b6001600160e01b031916609482015260009060980160405160208183030381529060405280519060200120905095945050505050565b6001600160a01b03871661360f5760405162461bcd60e51b8152600401610456906152dd565b613618816134e8565b60006136248289612a2f565b90506001600160a01b038116156136765760405162461bcd60e51b81526020600482015260166024820152754272696467653a20416c72656164792065786973747360501b6044820152606401610456565b600061368188614021565b6040805490516326d9e96360e01b81529192506001600160a01b0316906326d9e963906136ba90889088908c908c908890600401615614565b602060405180830381600087803b1580156136d457600080fd5b505af11580156136e8573d6000803e3d6000fd5b505050506040513d601f19601f8201168201806040525081019061370c9190615085565b9150613719838a84611e44565b60408051808201909152602081018490526001600160a01b038a1681526137408382611d40565b603f546040516378bf2b5360e01b81526001600160a01b038581166004830152602482018e9052909116906378bf2b5390604401600060405180830381600087803b15801561378e57600080fd5b505af11580156137a2573d6000803e3d6000fd5b50505050896001600160a01b0316836001600160a01b03167f88dcf8b72e53287db29df3fee9a0f2cb07d1f986cee153aa7d7554405d5db0178a8a86896040516137ef949392919061564e565b60405180910390a35050505050505050505050565b60006001600160a01b0382166138675760405162461bcd60e51b815260206004820152602260248201527f526f6c65733a206163636f756e7420697320746865207a65726f206164647265604482015261737360f01b6064820152608401610456565b506001600160a01b03166000908152602091909152604090205460ff1690565b61389260338261408d565b6040516001600160a01b038216907fcd265ebaf09df2871cc7bd4133404a235ba12eff2041bb89d9c714a2621c7c7e90600090a250565b6138d4603382614105565b6040516001600160a01b038216907f6719d08c1888103bea251a4ed56406bd0c3e69723c8a1686e017e7bbe159b6f890600090a250565b6040516001600160a01b03808516602483015283166044820152606481018290526139769085906323b872dd60e01b906084015b60408051601f198184030181529190526020810180516001600160e01b03166001600160e01b031990931692909217909152614181565b50505050565b6039548451602080870151606088015160a08901516001600160a01b038516600090815260459094526040842080549496613a779690957faf3ac34fea9cc1b1def33a9bdc482d988feb61b5015ae4a55e2a62bb3600d54c959194919391928c918c918b6139e98361527a565b909155506040805160208101999099526001600160a01b03978816908901526060880195909552608087019390935260a086019190915290921660c084015260e08301919091526101008201526101208101859052610140016040516020818303038152906040528051906020012060405161190160f01b8152600281019290925260228201526042902090565b95945050505050565b6001600160a01b038116613ae15760405162461bcd60e51b815260206004820152602260248201527f4f776e61626c653a206e6577206f776e6572206973207a65726f206164647265604482015261737360f01b6064820152608401610456565b6034546040516001600160a01b0380841692610100900416907f8be0079c531659141344cd1fd0a4f28419497f9722a3daafe3b4186f6b6457e090600090a3603480546001600160a01b0390921661010002610100600160a81b0319909216919091179055565b600082613b5757506000611378565b6000613b638385615675565b905082613b708583615424565b1461274f5760405162461bcd60e51b815260206004820152602160248201527f536166654d6174683a206d756c7469706c69636174696f6e206f766572666c6f6044820152607760f81b6064820152608401610456565b600061274f83836040518060400160405280601a81526020017f536166654d6174683a206469766973696f6e206279207a65726f000000000000815250614301565b600061274f83836040518060400160405280601e81526020017f536166654d6174683a207375627472616374696f6e206f766572666c6f77000081525061432f565b60408051600481526024810182526020810180516001600160e01b031663313ce56760e01b1790529051600091829182916001600160a01b03861691613c919190615438565b600060405180830381855afa9150503d8060008114613ccc576040519150601f19603f3d011682016040523d82523d6000602084013e613cd1565b606091505b509150915081613d1b5760405162461bcd60e51b81526020600482015260156024820152744c69625574696c733a204e6f20646563696d616c7360581b6044820152606401610456565b600081806020019051810190613d319190615694565b9050611fab565b60408051600481526024810182526020810180516001600160e01b031663556f0dc760e01b1790529051600091829182916001600160a01b03861691613d7e9190615438565b600060405180830381855afa9150503d8060008114613db9576040519150601f19603f3d011682016040523d82523d6000602084013e613dbe565b606091505b509150915081613e105760405162461bcd60e51b815260206004820152601860248201527f4c69625574696c733a204e6f206772616e756c617269747900000000000000006044820152606401610456565b80806020019051810190611fab9190615694565b600061274f83836040518060400160405280601881526020017f536166654d6174683a206d6f64756c6f206279207a65726f0000000000000000815250614360565b600080613e73838561512e565b90508381101561274f5760405162461bcd60e51b815260206004820152601b60248201527f536166654d6174683a206164646974696f6e206f766572666c6f7700000000006044820152606401610456565b6040516001600160a01b03831660248201526044810182905261135890849063a9059cbb60e01b9060640161393f565b6000613f00876134e8565b613f0a8787612ad6565b15613f2357613f1c868686868661438c565b9050613f3c565b613f39613f308888612a2f565b8686868661453c565b90505b9695505050505050565b613f536020860186614bab565b6060860135600081815260446020908152604091829020546001600160a01b039485169489811694937fa7a84dcc6757cdf9b9122d3bbc42d58358c28dc4b09cc24349599a63c56c62fd9392909116918b0135908b0135613fba60a08d0160808e01615335565b604080516001600160a01b039586168152602081019490945283019190915263ffffffff166060820152818916608082015290871660a08281019190915260c082018790528a013560e0820152466101008201526101200160405180910390a45050505050565b600060128260ff1611156140775760405162461bcd60e51b815260206004820152601c60248201527f4c69625574696c733a20446563696d616c73206e6f74203c3d203138000000006044820152606401610456565b61408282601261546e565b61137890600a615575565b6140978282613804565b6140e35760405162461bcd60e51b815260206004820181905260248201527f526f6c65733a206163636f756e7420646f65736e2774206861766520726f6c656044820152606401610456565b6001600160a01b0316600090815260209190915260409020805460ff19169055565b61410f8282613804565b1561415c5760405162461bcd60e51b815260206004820152601f60248201527f526f6c65733a206163636f756e7420616c72656164792068617320726f6c65006044820152606401610456565b6001600160a01b0316600090815260209190915260409020805460ff19166001179055565b6001600160a01b0382163b6141d85760405162461bcd60e51b815260206004820152601f60248201527f5361666545524332303a2063616c6c20746f206e6f6e2d636f6e7472616374006044820152606401610456565b600080836001600160a01b0316836040516141f39190615438565b6000604051808303816000865af19150503d8060008114614230576040519150601f19603f3d011682016040523d82523d6000602084013e614235565b606091505b5091509150816142875760405162461bcd60e51b815260206004820181905260248201527f5361666545524332303a206c6f772d6c6576656c2063616c6c206661696c65646044820152606401610456565b80511561397657808060200190518101906142a291906156ad565b6139765760405162461bcd60e51b815260206004820152602a60248201527f5361666545524332303a204552433230206f7065726174696f6e20646964206e6044820152691bdd081cdd58d8d9595960b21b6064820152608401610456565b600081836143225760405162461bcd60e51b81526004016104569190614d86565b506000613a778486615424565b600081848411156143535760405162461bcd60e51b81526004016104569190614d86565b506000613a7784866150b8565b600081836143815760405162461bcd60e51b81526004016104569190614d86565b50611fab83856156ca565b60008061439887613c4b565b60ff16905060006143bf6143ad8360126150b8565b6143b890600a6156de565b8790613bc7565b9050808411156144085760405162461bcd60e51b8152602060048201526014602482015273084e4d2c8ceca7440cccaca40e8dede40d0d2ced60631b6044820152606401610456565b6144128185613c09565b6041549093506001600160a01b038981169116141561450357604154604051632e1a7d4d60e01b8152600481018390526001600160a01b0390911690632e1a7d4d90602401600060405180830381600087803b15801561447157600080fd5b505af1158015614485573d6000803e3d6000fd5b50506040516001600160a01b038a16925085156108fc02915085906000818181858888f193505050501580156144bf573d6000803e3d6000fd5b5083156144fe576040516001600160a01b0386169085156108fc029086906000818181858888f193505050501580156144fc573d6000803e3d6000fd5b505b614531565b6145176001600160a01b0389168885613ec5565b8315614531576145316001600160a01b0389168686613ec5565b505095945050505050565b60006001600160a01b0386166145945760405162461bcd60e51b815260206004820152601a60248201527f4272696467653a207369646520746f6b656e206973206e756c6c0000000000006044820152606401610456565b6000866001600160a01b031663556f0dc76040518163ffffffff1660e01b815260040160206040518083038186803b1580156145cf57600080fd5b505afa1580156145e3573d6000803e3d6000fd5b505050506040513d601f19601f820116820180604052508101906146079190615694565b905060006146158683613b48565b90508084111561465e5760405162461bcd60e51b8152602060048201526014602482015273084e4d2c8ceca7440cccaca40e8dede40d0d2ced60631b6044820152606401610456565b6146688185613c09565b604051630dcdc7dd60e41b81526001600160a01b038981166004830152602482018390526080604483015260006084830181905260a0606484015260a48301529194509089169063dcdc7dd09060c401600060405180830381600087803b1580156146d257600080fd5b505af11580156146e6573d6000803e3d6000fd5b50505050600084111561453157604051630dcdc7dd60e41b81526001600160a01b03868116600483015260248201869052608060448301526000608483015260a06064830152600b60a48301526a72656c617965722066656560a81b60c483015289169063dcdc7dd09060e401600060405180830381600087803b15801561476d57600080fd5b505af1158015614781573d6000803e3d6000fd5b50505050505095945050505050565b82805461479c906153d9565b90600052602060002090601f0160209004810192826147be5760008555614804565b82601f106147d757805160ff1916838001178555614804565b82800160010185558215614804579182015b828111156148045782518255916020019190600101906147e9565b50614810929150614814565b5090565b5b808211156148105760008155600101614815565b6001600160a01b03811681146120b157600080fd5b60008083601f84011261485057600080fd5b5081356001600160401b0381111561486757600080fd5b60208301915083602082850101111561487f57600080fd5b9250929050565b60008060008060008060008060c0898b0312156148a257600080fd5b88356148ad81614829565b975060208901356148bd81614829565b965060408901356148cd81614829565b95506060890135945060808901356001600160401b03808211156148f057600080fd5b6148fc8c838d0161483e565b909650945060a08b013591508082111561491557600080fd5b506149228b828c0161483e565b999c989b5096995094979396929594505050565b60006020828403121561494857600080fd5b5035919050565b80151581146120b157600080fd5b60006020828403121561496f57600080fd5b813561274f8161494f565b634e487b7160e01b600052604160045260246000fd5b600082601f8301126149a157600080fd5b81356001600160401b03808211156149bb576149bb61497a565b604051601f8301601f19908116603f011681019082821181831017156149e3576149e361497a565b816040528381528660208588010111156149fc57600080fd5b836020870160208301376000602085830101528094505050505092915050565b60008060408385031215614a2f57600080fd5b8235915060208301356001600160401b03811115614a4c57600080fd5b614a5885828601614990565b9150509250929050565b600060c08284031215614a7457600080fd5b50919050565b600060c08284031215614a8c57600080fd5b61274f8383614a62565b803563ffffffff81168114614aaa57600080fd5b919050565b60008060008060008060008060006101208a8c031215614ace57600080fd5b8935614ad981614829565b985060208a0135614ae981614829565b975060408a0135614af981614829565b965060608a0135955060808a0135945060a08a01359350614b1c60c08b01614a96565b925060e08a013591506101008a013590509295985092959850929598565b60008060208385031215614b4d57600080fd5b82356001600160401b03811115614b6357600080fd5b614b6f8582860161483e565b90969095509350505050565b60008060408385031215614b8e57600080fd5b823591506020830135614ba081614829565b809150509250929050565b600060208284031215614bbd57600080fd5b813561274f81614829565b60008060208385031215614bdb57600080fd5b82356001600160401b0380821115614bf257600080fd5b818501915085601f830112614c0657600080fd5b813581811115614c1557600080fd5b8660208260051b8501011115614c2a57600080fd5b60209290920196919550909350505050565b6000808284036060811215614c5057600080fd5b8335614c5b81614829565b92506040601f1982011215614c6f57600080fd5b50604051604081018181106001600160401b0382111715614c9257614c9261497a565b6040526020840135614ca381614829565b81526040939093013560208401525092909150565b600080600060608486031215614ccd57600080fd5b833592506020840135614cdf81614829565b91506040840135614cef81614829565b809150509250925092565b600060208284031215614d0c57600080fd5b81356001600160401b03811115614d2257600080fd5b611fab84828501614990565b60005b83811015614d49578181015183820152602001614d31565b838111156139765750506000910152565b60008151808452614d72816020860160208601614d2e565b601f01601f19169290920160200192915050565b60208152600061274f6020830184614d5a565b60008060e08385031215614dac57600080fd5b614db68484614a62565b9460c0939093013593505050565b60008060008060808587031215614dda57600080fd5b843593506020850135614dec81614829565b925060408501356001600160401b03811115614e0757600080fd5b614e1387828801614990565b949793965093946060013593505050565b803560ff81168114614aaa57600080fd5b6000806000806000806000610180888a031215614e5157600080fd5b614e5b8989614a62565b965060c0880135614e6b81614829565b955060e088013594506101008801359350614e896101208901614e24565b92506101408801359150610160880135905092959891949750929550565b600080600080600080600060e0888a031215614ec257600080fd5b8735614ecd81614829565b9650602088013595506040880135945060608801359350614ef060808901614a96565b925060a0880135915060c0880135905092959891949750929550565b600080600060608486031215614f2157600080fd5b833592506020840135614f3381614829565b915060408401356001600160401b03811115614f4e57600080fd5b614f5a86828701614990565b9150509250925092565b60008060408385031215614f7757600080fd5b50508035926020909101359150565b60008060008060008060008060c0898b031215614fa257600080fd5b883597506020890135614fb481614829565b9650614fc260408a01614e24565b955060608901356001600160401b0380821115614fde57600080fd5b614fea8c838d0161483e565b909750955060808b013591508082111561500357600080fd5b506150108b828c0161483e565b999c989b50969995989497949560a00135949350505050565b6000806000806080858703121561503f57600080fd5b843561504a81614829565b9350602085013561505a81614829565b9250604085013561506a81614829565b9150606085013561507a81614829565b939692955090935050565b60006020828403121561509757600080fd5b815161274f81614829565b634e487b7160e01b600052601160045260246000fd5b6000828210156150ca576150ca6150a2565b500390565b6020808252818101527f4f776e61626c653a2063616c6c6572206973206e6f7420746865206f776e6572604082015260600190565b60208082526010908201526f14185d5cd8589b194e881c185d5cd95960821b604082015260600190565b60008219821115615141576151416150a2565b500190565b60208082526025908201527f5265656e7472616e637947756172643a206e6f207265656e7472616e7420616c6040820152641b1bddd95960da1b606082015260800190565b8183823760009101908152919050565b60208082526028908201527f436f6e747261637420696e7374616e636520697320616c726561647920696e696040820152671d1a585b1a5e995960c21b606082015260800190565b634e487b7160e01b600052603260045260246000fd5b6000823560be1983360301811261520f57600080fd5b9190910192915050565b60006020828403121561522b57600080fd5b61274f82614e24565b6000808335601e1984360301811261524b57600080fd5b8301803591506001600160401b0382111561526557600080fd5b60200191503681900382131561487f57600080fd5b600060001982141561528e5761528e6150a2565b5060010190565b60208082526028908201527f506175736572526f6c653a2063616c6c657220646f65736e277420686176652060408201526774686520726f6c6560c01b606082015260800190565b602080825260129082015271213934b233b29d10273ab636103a37b5b2b760711b604082015260600190565b602080825260129082015271213934b233b29d102232b0b2103a37b5b2b760711b604082015260600190565b60006020828403121561534757600080fd5b61274f82614a96565b600060c0828403121561536257600080fd5b60405160c081018181106001600160401b03821117156153845761538461497a565b604052823561539281614829565b808252506020830135602082015260408301356040820152606083013560608201526153c060808401614a96565b608082015260a083013560a08201528091505092915050565b600181811c908216806153ed57607f821691505b60208210811415614a7457634e487b7160e01b600052602260045260246000fd5b634e487b7160e01b600052601260045260246000fd5b6000826154335761543361540e565b500490565b6000825161520f818460208701614d2e565b6001600160a01b0383168152604060208201819052600090611fab90830184614d5a565b600060ff821660ff841680821015615488576154886150a2565b90039392505050565b600181815b808511156154cc5781600019048211156154b2576154b26150a2565b808516156154bf57918102915b93841c9390800290615496565b509250929050565b6000826154e357506001611378565b816154f057506000611378565b816001811461550657600281146155105761552c565b6001915050611378565b60ff841115615521576155216150a2565b50506001821b611378565b5060208310610133831016604e8410600b841016171561554f575081810a611378565b6155598383615491565b806000190482111561556d5761556d6150a2565b029392505050565b600061274f60ff8416836154d4565b828152604060208201526000611fab6040830184614d5a565b60a0815260006155b060a0830188614d5a565b6001600160a01b0387166020840152604083018690526060830185905282810360808401526155df8185614d5a565b98975050505050505050565b81835281816020850137506000828201602090810191909152601f909101601f19169091010190565b6060815260006156286060830187896155eb565b828103602084015261563b8186886155eb565b9150508260408301529695505050505050565b6060815260006156626060830186886155eb565b6020830194909452506040015292915050565b600081600019048311821515161561568f5761568f6150a2565b500290565b6000602082840312156156a657600080fd5b5051919050565b6000602082840312156156bf57600080fd5b815161274f8161494f565b6000826156d9576156d961540e565b500690565b600061274f83836154d456fea2646970667358221220995859917b72db246ecff25027abdca9f7cf9a80575ee546722be171f9ca623064736f6c63430008090033",
  "devdoc": {
    "kind": "dev",
    "methods": {
      "__Pausable_init(address)": {
        "details": "Initializes the contract in unpaused state. Assigns the Pauser role to the deployer."
      },
      "initialize(address)": {
        "details": "Initializes the contract setting the deployer as the initial owner."
      },
      "isOwner()": {
        "details": "Returns true if the caller is the current owner."
      },
      "owner()": {
        "details": "Returns the address of the current owner."
      },
      "pause()": {
        "details": "Called by a pauser to pause, triggers stopped state."
      },
      "paused()": {
        "details": "Returns true if the contract is paused, and false otherwise."
      },
      "renounceOwnership()": {
        "details": "Leaves the contract without owner. It will not be possible to call `onlyOwner` functions anymore. Can only be called by the current owner. > Note: Renouncing ownership will leave the contract without an owner, thereby removing any functionality that is only available to the owner."
      },
      "tokensReceived(address,address,address,uint256,bytes,bytes)": {
        "params": {
          "userData": "it can be 2 options in the first one you can send the receiver and the chain id of the destination const userData = web3.eth.abi.encodeParameters(   [\"address\", \"uint256\"],   [anAccount.toLowerCase(), chains.ETHEREUM_MAIN_NET_CHAIN_ID] ); or you also can send only the destination chain id, and the receiver would be the same as the from parameter const userData = web3.eth.abi.encodeParameters([\"uint256\"], [chains.ETHEREUM_MAIN_NET_CHAIN_ID]);"
        }
      },
      "transferOwnership(address)": {
        "details": "Transfers ownership of the contract to a new account (`newOwner`). Can only be called by the current owner."
      },
      "unpause()": {
        "details": "Called by a pauser to unpause, returns to normal state."
      }
    },
    "version": 1
  },
  "userdoc": {
    "kind": "user",
    "methods": {
      "acceptTransfer(address,address,address,uint256,bytes32,bytes32,uint32,uint256,uint256)": {
        "notice": "Accepts the transaction from the other chain that was voted and sent by the Federation contract"
      },
      "claim((address,uint256,bytes32,bytes32,uint32,uint256))": {
        "notice": "Claims the crossed transaction using the hash, this sends the funds to the address indicated in"
      },
      "depositTo(uint256,string)": {
        "notice": "Use network currency and cross it."
      },
      "receiveTokensTo(uint256,address,string,uint256)": {
        "notice": "ERC-20 tokens approve and transferFrom pattern See https://eips.ethereum.org/EIPS/eip-20#transferfrom"
      },
      "tokensReceived(address,address,address,uint256,bytes,bytes)": {
        "notice": "ERC-777 tokensReceived hook allows to send tokens to a contract and notify it in a single transaction See https://eips.ethereum.org/EIPS/eip-777#motivation for details"
      }
    },
    "version": 1
  },
  "storageLayout": {
    "storage": [
      {
        "astId": 3893,
        "contract": "contracts/Bridge/Bridge.sol:Bridge",
        "label": "initialized",
        "offset": 0,
        "slot": "0",
        "type": "t_bool"
      },
      {
        "astId": 3896,
        "contract": "contracts/Bridge/Bridge.sol:Bridge",
        "label": "initializing",
        "offset": 1,
        "slot": "0",
        "type": "t_bool"
      },
      {
        "astId": 3936,
        "contract": "contracts/Bridge/Bridge.sol:Bridge",
        "label": "______gap",
        "offset": 0,
        "slot": "1",
        "type": "t_array(t_uint256)50_storage"
      },
      {
        "astId": 3962,
        "contract": "contracts/Bridge/Bridge.sol:Bridge",
        "label": "_pausers",
        "offset": 0,
        "slot": "51",
        "type": "t_struct(Role)3017_storage"
      },
      {
        "astId": 4084,
        "contract": "contracts/Bridge/Bridge.sol:Bridge",
        "label": "_paused",
        "offset": 0,
        "slot": "52",
        "type": "t_bool"
      },
      {
        "astId": 4182,
        "contract": "contracts/Bridge/Bridge.sol:Bridge",
        "label": "_owner",
        "offset": 1,
        "slot": "52",
        "type": "t_address"
      },
      {
        "astId": 4313,
        "contract": "contracts/Bridge/Bridge.sol:Bridge",
        "label": "_guardCounter",
        "offset": 0,
        "slot": "53",
        "type": "t_uint256"
      },
      {
        "astId": 65,
        "contract": "contracts/Bridge/Bridge.sol:Bridge",
        "label": "federation",
        "offset": 0,
        "slot": "54",
        "type": "t_address"
      },
      {
        "astId": 67,
        "contract": "contracts/Bridge/Bridge.sol:Bridge",
        "label": "feePercentage",
        "offset": 0,
        "slot": "55",
        "type": "t_uint256"
      },
      {
        "astId": 69,
        "contract": "contracts/Bridge/Bridge.sol:Bridge",
        "label": "deprecatedSymbolPrefix",
        "offset": 0,
        "slot": "56",
        "type": "t_string_storage"
      },
      {
        "astId": 71,
        "contract": "contracts/Bridge/Bridge.sol:Bridge",
        "label": "domainSeparator",
        "offset": 0,
        "slot": "57",
        "type": "t_bytes32"
      },
      {
        "astId": 73,
        "contract": "contracts/Bridge/Bridge.sol:Bridge",
        "label": "_deprecatedSpentToday",
        "offset": 0,
        "slot": "58",
        "type": "t_uint256"
      },
      {
        "astId": 77,
        "contract": "contracts/Bridge/Bridge.sol:Bridge",
        "label": "deprecatedMappedTokens",
        "offset": 0,
        "slot": "59",
        "type": "t_mapping(t_address,t_address)"
      },
      {
        "astId": 81,
        "contract": "contracts/Bridge/Bridge.sol:Bridge",
        "label": "deprecatedOriginalTokens",
        "offset": 0,
        "slot": "60",
        "type": "t_mapping(t_address,t_address)"
      },
      {
        "astId": 85,
        "contract": "contracts/Bridge/Bridge.sol:Bridge",
        "label": "deprecatedKnownTokens",
        "offset": 0,
        "slot": "61",
        "type": "t_mapping(t_address,t_bool)"
      },
      {
        "astId": 89,
        "contract": "contracts/Bridge/Bridge.sol:Bridge",
        "label": "claimed",
        "offset": 0,
        "slot": "62",
        "type": "t_mapping(t_bytes32,t_bool)"
      },
      {
        "astId": 92,
        "contract": "contracts/Bridge/Bridge.sol:Bridge",
        "label": "allowTokens",
        "offset": 0,
        "slot": "63",
        "type": "t_contract(IAllowTokens)2316"
      },
      {
        "astId": 95,
        "contract": "contracts/Bridge/Bridge.sol:Bridge",
        "label": "sideTokenFactory",
        "offset": 0,
        "slot": "64",
        "type": "t_contract(ISideTokenFactory)2613"
      },
      {
        "astId": 97,
        "contract": "contracts/Bridge/Bridge.sol:Bridge",
        "label": "isUpgrading",
        "offset": 20,
        "slot": "64",
        "type": "t_bool"
      },
      {
        "astId": 108,
        "contract": "contracts/Bridge/Bridge.sol:Bridge",
        "label": "wrappedCurrency",
        "offset": 0,
        "slot": "65",
        "type": "t_contract(IWrapped)2666"
      },
      {
        "astId": 112,
        "contract": "contracts/Bridge/Bridge.sol:Bridge",
        "label": "transactionsDataHashes",
        "offset": 0,
        "slot": "66",
        "type": "t_mapping(t_bytes32,t_bytes32)"
      },
      {
        "astId": 116,
        "contract": "contracts/Bridge/Bridge.sol:Bridge",
        "label": "originalTokenAddresses",
        "offset": 0,
        "slot": "67",
        "type": "t_mapping(t_bytes32,t_address)"
      },
      {
        "astId": 120,
        "contract": "contracts/Bridge/Bridge.sol:Bridge",
        "label": "senderAddresses",
        "offset": 0,
        "slot": "68",
        "type": "t_mapping(t_bytes32,t_address)"
      },
      {
        "astId": 127,
        "contract": "contracts/Bridge/Bridge.sol:Bridge",
        "label": "nonces",
        "offset": 0,
        "slot": "69",
        "type": "t_mapping(t_address,t_uint256)"
      },
      {
        "astId": 133,
        "contract": "contracts/Bridge/Bridge.sol:Bridge",
        "label": "sideTokenByOriginalTokenByChain",
        "offset": 0,
        "slot": "70",
        "type": "t_mapping(t_uint256,t_mapping(t_address,t_address))"
      },
      {
        "astId": 138,
        "contract": "contracts/Bridge/Bridge.sol:Bridge",
        "label": "originalTokenBySideToken",
        "offset": 0,
        "slot": "71",
        "type": "t_mapping(t_address,t_struct(OriginalToken)2337_storage)"
      },
      {
        "astId": 144,
        "contract": "contracts/Bridge/Bridge.sol:Bridge",
        "label": "knownTokenByChain",
        "offset": 0,
        "slot": "72",
        "type": "t_mapping(t_uint256,t_mapping(t_address,t_bool))"
      },
      {
        "astId": 148,
        "contract": "contracts/Bridge/Bridge.sol:Bridge",
        "label": "EvmToHathorTokenMap",
        "offset": 0,
        "slot": "73",
        "type": "t_mapping(t_address,t_string_storage)"
      },
      {
        "astId": 153,
        "contract": "contracts/Bridge/Bridge.sol:Bridge",
        "label": "HathorToEvmTokenMap",
        "offset": 0,
        "slot": "74",
        "type": "t_mapping(t_string_memory_ptr,t_struct(OriginalToken)2337_storage)"
      },
      {
        "astId": 155,
        "contract": "contracts/Bridge/Bridge.sol:Bridge",
        "label": "initiated",
        "offset": 0,
        "slot": "75",
        "type": "t_bool"
      }
    ],
    "types": {
      "t_address": {
        "encoding": "inplace",
        "label": "address",
        "numberOfBytes": "20"
      },
      "t_array(t_uint256)50_storage": {
        "base": "t_uint256",
        "encoding": "inplace",
        "label": "uint256[50]",
        "numberOfBytes": "1600"
      },
      "t_bool": {
        "encoding": "inplace",
        "label": "bool",
        "numberOfBytes": "1"
      },
      "t_bytes32": {
        "encoding": "inplace",
        "label": "bytes32",
        "numberOfBytes": "32"
      },
      "t_contract(IAllowTokens)2316": {
        "encoding": "inplace",
        "label": "contract IAllowTokens",
        "numberOfBytes": "20"
      },
      "t_contract(ISideTokenFactory)2613": {
        "encoding": "inplace",
        "label": "contract ISideTokenFactory",
        "numberOfBytes": "20"
      },
      "t_contract(IWrapped)2666": {
        "encoding": "inplace",
        "label": "contract IWrapped",
        "numberOfBytes": "20"
      },
      "t_mapping(t_address,t_address)": {
        "encoding": "mapping",
        "key": "t_address",
        "label": "mapping(address => address)",
        "numberOfBytes": "32",
        "value": "t_address"
      },
      "t_mapping(t_address,t_bool)": {
        "encoding": "mapping",
        "key": "t_address",
        "label": "mapping(address => bool)",
        "numberOfBytes": "32",
        "value": "t_bool"
      },
      "t_mapping(t_address,t_string_storage)": {
        "encoding": "mapping",
        "key": "t_address",
        "label": "mapping(address => string)",
        "numberOfBytes": "32",
        "value": "t_string_storage"
      },
      "t_mapping(t_address,t_struct(OriginalToken)2337_storage)": {
        "encoding": "mapping",
        "key": "t_address",
        "label": "mapping(address => struct IBridge.OriginalToken)",
        "numberOfBytes": "32",
        "value": "t_struct(OriginalToken)2337_storage"
      },
      "t_mapping(t_address,t_uint256)": {
        "encoding": "mapping",
        "key": "t_address",
        "label": "mapping(address => uint256)",
        "numberOfBytes": "32",
        "value": "t_uint256"
      },
      "t_mapping(t_bytes32,t_address)": {
        "encoding": "mapping",
        "key": "t_bytes32",
        "label": "mapping(bytes32 => address)",
        "numberOfBytes": "32",
        "value": "t_address"
      },
      "t_mapping(t_bytes32,t_bool)": {
        "encoding": "mapping",
        "key": "t_bytes32",
        "label": "mapping(bytes32 => bool)",
        "numberOfBytes": "32",
        "value": "t_bool"
      },
      "t_mapping(t_bytes32,t_bytes32)": {
        "encoding": "mapping",
        "key": "t_bytes32",
        "label": "mapping(bytes32 => bytes32)",
        "numberOfBytes": "32",
        "value": "t_bytes32"
      },
      "t_mapping(t_string_memory_ptr,t_struct(OriginalToken)2337_storage)": {
        "encoding": "mapping",
        "key": "t_string_memory_ptr",
        "label": "mapping(string => struct IBridge.OriginalToken)",
        "numberOfBytes": "32",
        "value": "t_struct(OriginalToken)2337_storage"
      },
      "t_mapping(t_uint256,t_mapping(t_address,t_address))": {
        "encoding": "mapping",
        "key": "t_uint256",
        "label": "mapping(uint256 => mapping(address => address))",
        "numberOfBytes": "32",
        "value": "t_mapping(t_address,t_address)"
      },
      "t_mapping(t_uint256,t_mapping(t_address,t_bool))": {
        "encoding": "mapping",
        "key": "t_uint256",
        "label": "mapping(uint256 => mapping(address => bool))",
        "numberOfBytes": "32",
        "value": "t_mapping(t_address,t_bool)"
      },
      "t_string_memory_ptr": {
        "encoding": "bytes",
        "label": "string",
        "numberOfBytes": "32"
      },
      "t_string_storage": {
        "encoding": "bytes",
        "label": "string",
        "numberOfBytes": "32"
      },
      "t_struct(OriginalToken)2337_storage": {
        "encoding": "inplace",
        "label": "struct IBridge.OriginalToken",
        "members": [
          {
            "astId": 2334,
            "contract": "contracts/Bridge/Bridge.sol:Bridge",
            "label": "tokenAddress",
            "offset": 0,
            "slot": "0",
            "type": "t_address"
          },
          {
            "astId": 2336,
            "contract": "contracts/Bridge/Bridge.sol:Bridge",
            "label": "originChainId",
            "offset": 0,
            "slot": "1",
            "type": "t_uint256"
          }
        ],
        "numberOfBytes": "64"
      },
      "t_struct(Role)3017_storage": {
        "encoding": "inplace",
        "label": "struct Roles.Role",
        "members": [
          {
            "astId": 3016,
            "contract": "contracts/Bridge/Bridge.sol:Bridge",
            "label": "bearer",
            "offset": 0,
            "slot": "0",
            "type": "t_mapping(t_address,t_bool)"
          }
        ],
        "numberOfBytes": "32"
      },
      "t_uint256": {
        "encoding": "inplace",
        "label": "uint256",
        "numberOfBytes": "32"
      }
    }
  }
}